{
	"contracts/CrowdFunding.sol": {
		"Crowdfunding": {
			"abi": [
				{
					"inputs": [
						{
							"internalType": "address",
							"name": "_owner",
							"type": "address"
						},
						{
							"internalType": "string",
							"name": "_name",
							"type": "string"
						},
						{
							"internalType": "string",
							"name": "_description",
							"type": "string"
						},
						{
							"internalType": "uint256",
							"name": "_goal",
							"type": "uint256"
						},
						{
							"internalType": "uint256",
							"name": "_duratationInDays",
							"type": "uint256"
						}
					],
					"stateMutability": "nonpayable",
					"type": "constructor"
				},
				{
					"inputs": [
						{
							"internalType": "string",
							"name": "_name",
							"type": "string"
						},
						{
							"internalType": "uint256",
							"name": "_amount",
							"type": "uint256"
						}
					],
					"name": "addTier",
					"outputs": [],
					"stateMutability": "nonpayable",
					"type": "function"
				},
				{
					"inputs": [
						{
							"internalType": "address",
							"name": "",
							"type": "address"
						}
					],
					"name": "backers",
					"outputs": [
						{
							"internalType": "uint256",
							"name": "totalContrubution",
							"type": "uint256"
						}
					],
					"stateMutability": "view",
					"type": "function"
				},
				{
					"inputs": [],
					"name": "deadline",
					"outputs": [
						{
							"internalType": "uint256",
							"name": "",
							"type": "uint256"
						}
					],
					"stateMutability": "view",
					"type": "function"
				},
				{
					"inputs": [],
					"name": "description",
					"outputs": [
						{
							"internalType": "string",
							"name": "",
							"type": "string"
						}
					],
					"stateMutability": "view",
					"type": "function"
				},
				{
					"inputs": [
						{
							"internalType": "uint256",
							"name": "_daysToAdd",
							"type": "uint256"
						}
					],
					"name": "extendDeadLine",
					"outputs": [],
					"stateMutability": "nonpayable",
					"type": "function"
				},
				{
					"inputs": [
						{
							"internalType": "uint256",
							"name": "_tierIndex",
							"type": "uint256"
						}
					],
					"name": "fund",
					"outputs": [],
					"stateMutability": "payable",
					"type": "function"
				},
				{
					"inputs": [],
					"name": "getCampaignStatus",
					"outputs": [
						{
							"internalType": "enum Crowdfunding.CampaignState",
							"name": "",
							"type": "uint8"
						}
					],
					"stateMutability": "view",
					"type": "function"
				},
				{
					"inputs": [],
					"name": "getContractBalance",
					"outputs": [
						{
							"internalType": "uint256",
							"name": "",
							"type": "uint256"
						}
					],
					"stateMutability": "view",
					"type": "function"
				},
				{
					"inputs": [],
					"name": "getTiers",
					"outputs": [
						{
							"components": [
								{
									"internalType": "string",
									"name": "name",
									"type": "string"
								},
								{
									"internalType": "uint256",
									"name": "amount",
									"type": "uint256"
								},
								{
									"internalType": "uint256",
									"name": "backers",
									"type": "uint256"
								}
							],
							"internalType": "struct Crowdfunding.Tier[]",
							"name": "",
							"type": "tuple[]"
						}
					],
					"stateMutability": "view",
					"type": "function"
				},
				{
					"inputs": [],
					"name": "goal",
					"outputs": [
						{
							"internalType": "uint256",
							"name": "",
							"type": "uint256"
						}
					],
					"stateMutability": "view",
					"type": "function"
				},
				{
					"inputs": [
						{
							"internalType": "address",
							"name": "_backer",
							"type": "address"
						},
						{
							"internalType": "uint256",
							"name": "_tierIndex",
							"type": "uint256"
						}
					],
					"name": "hasFundedTier",
					"outputs": [
						{
							"internalType": "bool",
							"name": "",
							"type": "bool"
						}
					],
					"stateMutability": "view",
					"type": "function"
				},
				{
					"inputs": [],
					"name": "name",
					"outputs": [
						{
							"internalType": "string",
							"name": "",
							"type": "string"
						}
					],
					"stateMutability": "view",
					"type": "function"
				},
				{
					"inputs": [],
					"name": "owner",
					"outputs": [
						{
							"internalType": "address",
							"name": "",
							"type": "address"
						}
					],
					"stateMutability": "view",
					"type": "function"
				},
				{
					"inputs": [],
					"name": "paused",
					"outputs": [
						{
							"internalType": "bool",
							"name": "",
							"type": "bool"
						}
					],
					"stateMutability": "view",
					"type": "function"
				},
				{
					"inputs": [],
					"name": "refund",
					"outputs": [],
					"stateMutability": "nonpayable",
					"type": "function"
				},
				{
					"inputs": [
						{
							"internalType": "uint256",
							"name": "_index",
							"type": "uint256"
						}
					],
					"name": "removeTier",
					"outputs": [],
					"stateMutability": "nonpayable",
					"type": "function"
				},
				{
					"inputs": [],
					"name": "state",
					"outputs": [
						{
							"internalType": "enum Crowdfunding.CampaignState",
							"name": "",
							"type": "uint8"
						}
					],
					"stateMutability": "view",
					"type": "function"
				},
				{
					"inputs": [
						{
							"internalType": "uint256",
							"name": "",
							"type": "uint256"
						}
					],
					"name": "tiers",
					"outputs": [
						{
							"internalType": "string",
							"name": "name",
							"type": "string"
						},
						{
							"internalType": "uint256",
							"name": "amount",
							"type": "uint256"
						},
						{
							"internalType": "uint256",
							"name": "backers",
							"type": "uint256"
						}
					],
					"stateMutability": "view",
					"type": "function"
				},
				{
					"inputs": [],
					"name": "togglePause",
					"outputs": [],
					"stateMutability": "nonpayable",
					"type": "function"
				},
				{
					"inputs": [],
					"name": "withdraw",
					"outputs": [],
					"stateMutability": "nonpayable",
					"type": "function"
				}
			],
			"devdoc": {
				"kind": "dev",
				"methods": {},
				"version": 1
			},
			"evm": {
				"assembly": "    /* \"contracts/CrowdFunding.sol\":62:4260  contract Crowdfunding {... */\n  mstore(0x40, 0x80)\n    /* \"contracts/CrowdFunding.sol\":967:1361  constructor(... */\n  callvalue\n  dup1\n  iszero\n  tag_1\n  jumpi\n  0x00\n  dup1\n  revert\ntag_1:\n  pop\n  mload(0x40)\n  sub(codesize, bytecodeSize)\n  dup1\n  bytecodeSize\n  dup4\n  codecopy\n  dup2\n  dup2\n  add\n  0x40\n  mstore\n  dup2\n  add\n  swap1\n  tag_2\n  swap2\n  swap1\n  tag_3\n  jump\t// in\ntag_2:\n    /* \"contracts/CrowdFunding.sol\":1156:1161  _name */\n  dup4\n    /* \"contracts/CrowdFunding.sol\":1149:1153  name */\n  0x00\n    /* \"contracts/CrowdFunding.sol\":1149:1161  name = _name */\n  swap1\n  dup2\n  tag_6\n  swap2\n  swap1\n  tag_7\n  jump\t// in\ntag_6:\n  pop\n    /* \"contracts/CrowdFunding.sol\":1186:1198  _description */\n  dup3\n    /* \"contracts/CrowdFunding.sol\":1172:1183  description */\n  0x01\n    /* \"contracts/CrowdFunding.sol\":1172:1198  description = _description */\n  swap1\n  dup2\n  tag_8\n  swap2\n  swap1\n  tag_7\n  jump\t// in\ntag_8:\n  pop\n    /* \"contracts/CrowdFunding.sol\":1216:1221  _goal */\n  dup2\n    /* \"contracts/CrowdFunding.sol\":1209:1213  goal */\n  0x02\n    /* \"contracts/CrowdFunding.sol\":1209:1221  goal = _goal */\n  dup2\n  swap1\n  sstore\n  pop\n    /* \"contracts/CrowdFunding.sol\":1282:1288  1 days */\n  0x015180\n    /* \"contracts/CrowdFunding.sol\":1262:1279  _duratationInDays */\n  dup2\n    /* \"contracts/CrowdFunding.sol\":1262:1288  _duratationInDays * 1 days */\n  tag_9\n  swap2\n  swap1\n  tag_10\n  jump\t// in\ntag_9:\n    /* \"contracts/CrowdFunding.sol\":1243:1258  block.timestamp */\n  timestamp\n    /* \"contracts/CrowdFunding.sol\":1243:1289  block.timestamp + (_duratationInDays * 1 days) */\n  tag_11\n  swap2\n  swap1\n  tag_12\n  jump\t// in\ntag_11:\n    /* \"contracts/CrowdFunding.sol\":1232:1240  deadline */\n  0x03\n    /* \"contracts/CrowdFunding.sol\":1232:1289  deadline = block.timestamp + (_duratationInDays * 1 days) */\n  dup2\n  swap1\n  sstore\n  pop\n    /* \"contracts/CrowdFunding.sol\":1308:1314  _owner */\n  dup5\n    /* \"contracts/CrowdFunding.sol\":1300:1305  owner */\n  0x04\n  0x00\n    /* \"contracts/CrowdFunding.sol\":1300:1314  owner = _owner */\n  0x0100\n  exp\n  dup2\n  sload\n  dup2\n  0xffffffffffffffffffffffffffffffffffffffff\n  mul\n  not\n  and\n  swap1\n  dup4\n  0xffffffffffffffffffffffffffffffffffffffff\n  and\n  mul\n  or\n  swap1\n  sstore\n  pop\n    /* \"contracts/CrowdFunding.sol\":1333:1353  CampaignState.Active */\n  0x00\n    /* \"contracts/CrowdFunding.sol\":1325:1330  state */\n  0x04\n  0x15\n    /* \"contracts/CrowdFunding.sol\":1325:1353  state = CampaignState.Active */\n  0x0100\n  exp\n  dup2\n  sload\n  dup2\n  0xff\n  mul\n  not\n  and\n  swap1\n  dup4\n  0x02\n  dup2\n  gt\n  iszero\n  tag_13\n  jumpi\n  tag_14\n  tag_15\n  jump\t// in\ntag_14:\ntag_13:\n  mul\n  or\n  swap1\n  sstore\n  pop\n    /* \"contracts/CrowdFunding.sol\":967:1361  constructor(... */\n  pop\n  pop\n  pop\n  pop\n  pop\n    /* \"contracts/CrowdFunding.sol\":62:4260  contract Crowdfunding {... */\n  jump(tag_16)\n    /* \"#utility.yul\":7:82   */\ntag_17:\n    /* \"#utility.yul\":40:46   */\n  0x00\n    /* \"#utility.yul\":73:75   */\n  0x40\n    /* \"#utility.yul\":67:76   */\n  mload\n    /* \"#utility.yul\":57:76   */\n  swap1\n  pop\n    /* \"#utility.yul\":7:82   */\n  swap1\n  jump\t// out\n    /* \"#utility.yul\":88:205   */\ntag_18:\n    /* \"#utility.yul\":197:198   */\n  0x00\n    /* \"#utility.yul\":194:195   */\n  dup1\n    /* \"#utility.yul\":187:199   */\n  revert\n    /* \"#utility.yul\":211:328   */\ntag_19:\n    /* \"#utility.yul\":320:321   */\n  0x00\n    /* \"#utility.yul\":317:318   */\n  dup1\n    /* \"#utility.yul\":310:322   */\n  revert\n    /* \"#utility.yul\":334:460   */\ntag_20:\n    /* \"#utility.yul\":371:378   */\n  0x00\n    /* \"#utility.yul\":411:453   */\n  0xffffffffffffffffffffffffffffffffffffffff\n    /* \"#utility.yul\":404:409   */\n  dup3\n    /* \"#utility.yul\":400:454   */\n  and\n    /* \"#utility.yul\":389:454   */\n  swap1\n  pop\n    /* \"#utility.yul\":334:460   */\n  swap2\n  swap1\n  pop\n  jump\t// out\n    /* \"#utility.yul\":466:562   */\ntag_21:\n    /* \"#utility.yul\":503:510   */\n  0x00\n    /* \"#utility.yul\":532:556   */\n  tag_62\n    /* \"#utility.yul\":550:555   */\n  dup3\n    /* \"#utility.yul\":532:556   */\n  tag_20\n  jump\t// in\ntag_62:\n    /* \"#utility.yul\":521:556   */\n  swap1\n  pop\n    /* \"#utility.yul\":466:562   */\n  swap2\n  swap1\n  pop\n  jump\t// out\n    /* \"#utility.yul\":568:690   */\ntag_22:\n    /* \"#utility.yul\":641:665   */\n  tag_64\n    /* \"#utility.yul\":659:664   */\n  dup2\n    /* \"#utility.yul\":641:665   */\n  tag_21\n  jump\t// in\ntag_64:\n    /* \"#utility.yul\":634:639   */\n  dup2\n    /* \"#utility.yul\":631:666   */\n  eq\n    /* \"#utility.yul\":621:684   */\n  tag_65\n  jumpi\n    /* \"#utility.yul\":680:681   */\n  0x00\n    /* \"#utility.yul\":677:678   */\n  dup1\n    /* \"#utility.yul\":670:682   */\n  revert\n    /* \"#utility.yul\":621:684   */\ntag_65:\n    /* \"#utility.yul\":568:690   */\n  pop\n  jump\t// out\n    /* \"#utility.yul\":696:839   */\ntag_23:\n    /* \"#utility.yul\":753:758   */\n  0x00\n    /* \"#utility.yul\":784:790   */\n  dup2\n    /* \"#utility.yul\":778:791   */\n  mload\n    /* \"#utility.yul\":769:791   */\n  swap1\n  pop\n    /* \"#utility.yul\":800:833   */\n  tag_67\n    /* \"#utility.yul\":827:832   */\n  dup2\n    /* \"#utility.yul\":800:833   */\n  tag_22\n  jump\t// in\ntag_67:\n    /* \"#utility.yul\":696:839   */\n  swap3\n  swap2\n  pop\n  pop\n  jump\t// out\n    /* \"#utility.yul\":845:962   */\ntag_24:\n    /* \"#utility.yul\":954:955   */\n  0x00\n    /* \"#utility.yul\":951:952   */\n  dup1\n    /* \"#utility.yul\":944:956   */\n  revert\n    /* \"#utility.yul\":968:1085   */\ntag_25:\n    /* \"#utility.yul\":1077:1078   */\n  0x00\n    /* \"#utility.yul\":1074:1075   */\n  dup1\n    /* \"#utility.yul\":1067:1079   */\n  revert\n    /* \"#utility.yul\":1091:1193   */\ntag_26:\n    /* \"#utility.yul\":1132:1138   */\n  0x00\n    /* \"#utility.yul\":1183:1185   */\n  0x1f\n    /* \"#utility.yul\":1179:1186   */\n  not\n    /* \"#utility.yul\":1174:1176   */\n  0x1f\n    /* \"#utility.yul\":1167:1172   */\n  dup4\n    /* \"#utility.yul\":1163:1177   */\n  add\n    /* \"#utility.yul\":1159:1187   */\n  and\n    /* \"#utility.yul\":1149:1187   */\n  swap1\n  pop\n    /* \"#utility.yul\":1091:1193   */\n  swap2\n  swap1\n  pop\n  jump\t// out\n    /* \"#utility.yul\":1199:1379   */\ntag_27:\n    /* \"#utility.yul\":1247:1324   */\n  0x4e487b7100000000000000000000000000000000000000000000000000000000\n    /* \"#utility.yul\":1244:1245   */\n  0x00\n    /* \"#utility.yul\":1237:1325   */\n  mstore\n    /* \"#utility.yul\":1344:1348   */\n  0x41\n    /* \"#utility.yul\":1341:1342   */\n  0x04\n    /* \"#utility.yul\":1334:1349   */\n  mstore\n    /* \"#utility.yul\":1368:1372   */\n  0x24\n    /* \"#utility.yul\":1365:1366   */\n  0x00\n    /* \"#utility.yul\":1358:1373   */\n  revert\n    /* \"#utility.yul\":1385:1666   */\ntag_28:\n    /* \"#utility.yul\":1468:1495   */\n  tag_73\n    /* \"#utility.yul\":1490:1494   */\n  dup3\n    /* \"#utility.yul\":1468:1495   */\n  tag_26\n  jump\t// in\ntag_73:\n    /* \"#utility.yul\":1460:1466   */\n  dup2\n    /* \"#utility.yul\":1456:1496   */\n  add\n    /* \"#utility.yul\":1598:1604   */\n  dup2\n    /* \"#utility.yul\":1586:1596   */\n  dup2\n    /* \"#utility.yul\":1583:1605   */\n  lt\n    /* \"#utility.yul\":1562:1580   */\n  0xffffffffffffffff\n    /* \"#utility.yul\":1550:1560   */\n  dup3\n    /* \"#utility.yul\":1547:1581   */\n  gt\n    /* \"#utility.yul\":1544:1606   */\n  or\n    /* \"#utility.yul\":1541:1629   */\n  iszero\n  tag_74\n  jumpi\n    /* \"#utility.yul\":1609:1627   */\n  tag_75\n  tag_27\n  jump\t// in\ntag_75:\n    /* \"#utility.yul\":1541:1629   */\ntag_74:\n    /* \"#utility.yul\":1649:1659   */\n  dup1\n    /* \"#utility.yul\":1645:1647   */\n  0x40\n    /* \"#utility.yul\":1638:1660   */\n  mstore\n    /* \"#utility.yul\":1428:1666   */\n  pop\n    /* \"#utility.yul\":1385:1666   */\n  pop\n  pop\n  jump\t// out\n    /* \"#utility.yul\":1672:1801   */\ntag_29:\n    /* \"#utility.yul\":1706:1712   */\n  0x00\n    /* \"#utility.yul\":1733:1753   */\n  tag_77\n  tag_17\n  jump\t// in\ntag_77:\n    /* \"#utility.yul\":1723:1753   */\n  swap1\n  pop\n    /* \"#utility.yul\":1762:1795   */\n  tag_78\n    /* \"#utility.yul\":1790:1794   */\n  dup3\n    /* \"#utility.yul\":1782:1788   */\n  dup3\n    /* \"#utility.yul\":1762:1795   */\n  tag_28\n  jump\t// in\ntag_78:\n    /* \"#utility.yul\":1672:1801   */\n  swap2\n  swap1\n  pop\n  jump\t// out\n    /* \"#utility.yul\":1807:2115   */\ntag_30:\n    /* \"#utility.yul\":1869:1873   */\n  0x00\n    /* \"#utility.yul\":1959:1977   */\n  0xffffffffffffffff\n    /* \"#utility.yul\":1951:1957   */\n  dup3\n    /* \"#utility.yul\":1948:1978   */\n  gt\n    /* \"#utility.yul\":1945:2001   */\n  iszero\n  tag_80\n  jumpi\n    /* \"#utility.yul\":1981:1999   */\n  tag_81\n  tag_27\n  jump\t// in\ntag_81:\n    /* \"#utility.yul\":1945:2001   */\ntag_80:\n    /* \"#utility.yul\":2019:2048   */\n  tag_82\n    /* \"#utility.yul\":2041:2047   */\n  dup3\n    /* \"#utility.yul\":2019:2048   */\n  tag_26\n  jump\t// in\ntag_82:\n    /* \"#utility.yul\":2011:2048   */\n  swap1\n  pop\n    /* \"#utility.yul\":2103:2107   */\n  0x20\n    /* \"#utility.yul\":2097:2101   */\n  dup2\n    /* \"#utility.yul\":2093:2108   */\n  add\n    /* \"#utility.yul\":2085:2108   */\n  swap1\n  pop\n    /* \"#utility.yul\":1807:2115   */\n  swap2\n  swap1\n  pop\n  jump\t// out\n    /* \"#utility.yul\":2121:2260   */\ntag_31:\n    /* \"#utility.yul\":2210:2216   */\n  dup3\n    /* \"#utility.yul\":2205:2208   */\n  dup2\n    /* \"#utility.yul\":2200:2203   */\n  dup4\n    /* \"#utility.yul\":2194:2217   */\n  mcopy\n    /* \"#utility.yul\":2251:2252   */\n  0x00\n    /* \"#utility.yul\":2242:2248   */\n  dup4\n    /* \"#utility.yul\":2237:2240   */\n  dup4\n    /* \"#utility.yul\":2233:2249   */\n  add\n    /* \"#utility.yul\":2226:2253   */\n  mstore\n    /* \"#utility.yul\":2121:2260   */\n  pop\n  pop\n  pop\n  jump\t// out\n    /* \"#utility.yul\":2266:2700   */\ntag_32:\n    /* \"#utility.yul\":2355:2360   */\n  0x00\n    /* \"#utility.yul\":2380:2446   */\n  tag_85\n    /* \"#utility.yul\":2396:2445   */\n  tag_86\n    /* \"#utility.yul\":2438:2444   */\n  dup5\n    /* \"#utility.yul\":2396:2445   */\n  tag_30\n  jump\t// in\ntag_86:\n    /* \"#utility.yul\":2380:2446   */\n  tag_29\n  jump\t// in\ntag_85:\n    /* \"#utility.yul\":2371:2446   */\n  swap1\n  pop\n    /* \"#utility.yul\":2469:2475   */\n  dup3\n    /* \"#utility.yul\":2462:2467   */\n  dup2\n    /* \"#utility.yul\":2455:2476   */\n  mstore\n    /* \"#utility.yul\":2507:2511   */\n  0x20\n    /* \"#utility.yul\":2500:2505   */\n  dup2\n    /* \"#utility.yul\":2496:2512   */\n  add\n    /* \"#utility.yul\":2545:2548   */\n  dup5\n    /* \"#utility.yul\":2536:2542   */\n  dup5\n    /* \"#utility.yul\":2531:2534   */\n  dup5\n    /* \"#utility.yul\":2527:2543   */\n  add\n    /* \"#utility.yul\":2524:2549   */\n  gt\n    /* \"#utility.yul\":2521:2633   */\n  iszero\n  tag_87\n  jumpi\n    /* \"#utility.yul\":2552:2631   */\n  tag_88\n  tag_25\n  jump\t// in\ntag_88:\n    /* \"#utility.yul\":2521:2633   */\ntag_87:\n    /* \"#utility.yul\":2642:2694   */\n  tag_89\n    /* \"#utility.yul\":2687:2693   */\n  dup5\n    /* \"#utility.yul\":2682:2685   */\n  dup3\n    /* \"#utility.yul\":2677:2680   */\n  dup6\n    /* \"#utility.yul\":2642:2694   */\n  tag_31\n  jump\t// in\ntag_89:\n    /* \"#utility.yul\":2361:2700   */\n  pop\n    /* \"#utility.yul\":2266:2700   */\n  swap4\n  swap3\n  pop\n  pop\n  pop\n  jump\t// out\n    /* \"#utility.yul\":2720:3075   */\ntag_33:\n    /* \"#utility.yul\":2787:2792   */\n  0x00\n    /* \"#utility.yul\":2836:2839   */\n  dup3\n    /* \"#utility.yul\":2829:2833   */\n  0x1f\n    /* \"#utility.yul\":2821:2827   */\n  dup4\n    /* \"#utility.yul\":2817:2834   */\n  add\n    /* \"#utility.yul\":2813:2840   */\n  slt\n    /* \"#utility.yul\":2803:2925   */\n  tag_91\n  jumpi\n    /* \"#utility.yul\":2844:2923   */\n  tag_92\n  tag_24\n  jump\t// in\ntag_92:\n    /* \"#utility.yul\":2803:2925   */\ntag_91:\n    /* \"#utility.yul\":2954:2960   */\n  dup2\n    /* \"#utility.yul\":2948:2961   */\n  mload\n    /* \"#utility.yul\":2979:3069   */\n  tag_93\n    /* \"#utility.yul\":3065:3068   */\n  dup5\n    /* \"#utility.yul\":3057:3063   */\n  dup3\n    /* \"#utility.yul\":3050:3054   */\n  0x20\n    /* \"#utility.yul\":3042:3048   */\n  dup7\n    /* \"#utility.yul\":3038:3055   */\n  add\n    /* \"#utility.yul\":2979:3069   */\n  tag_32\n  jump\t// in\ntag_93:\n    /* \"#utility.yul\":2970:3069   */\n  swap2\n  pop\n    /* \"#utility.yul\":2793:3075   */\n  pop\n    /* \"#utility.yul\":2720:3075   */\n  swap3\n  swap2\n  pop\n  pop\n  jump\t// out\n    /* \"#utility.yul\":3081:3158   */\ntag_34:\n    /* \"#utility.yul\":3118:3125   */\n  0x00\n    /* \"#utility.yul\":3147:3152   */\n  dup2\n    /* \"#utility.yul\":3136:3152   */\n  swap1\n  pop\n    /* \"#utility.yul\":3081:3158   */\n  swap2\n  swap1\n  pop\n  jump\t// out\n    /* \"#utility.yul\":3164:3286   */\ntag_35:\n    /* \"#utility.yul\":3237:3261   */\n  tag_96\n    /* \"#utility.yul\":3255:3260   */\n  dup2\n    /* \"#utility.yul\":3237:3261   */\n  tag_34\n  jump\t// in\ntag_96:\n    /* \"#utility.yul\":3230:3235   */\n  dup2\n    /* \"#utility.yul\":3227:3262   */\n  eq\n    /* \"#utility.yul\":3217:3280   */\n  tag_97\n  jumpi\n    /* \"#utility.yul\":3276:3277   */\n  0x00\n    /* \"#utility.yul\":3273:3274   */\n  dup1\n    /* \"#utility.yul\":3266:3278   */\n  revert\n    /* \"#utility.yul\":3217:3280   */\ntag_97:\n    /* \"#utility.yul\":3164:3286   */\n  pop\n  jump\t// out\n    /* \"#utility.yul\":3292:3435   */\ntag_36:\n    /* \"#utility.yul\":3349:3354   */\n  0x00\n    /* \"#utility.yul\":3380:3386   */\n  dup2\n    /* \"#utility.yul\":3374:3387   */\n  mload\n    /* \"#utility.yul\":3365:3387   */\n  swap1\n  pop\n    /* \"#utility.yul\":3396:3429   */\n  tag_99\n    /* \"#utility.yul\":3423:3428   */\n  dup2\n    /* \"#utility.yul\":3396:3429   */\n  tag_35\n  jump\t// in\ntag_99:\n    /* \"#utility.yul\":3292:3435   */\n  swap3\n  swap2\n  pop\n  pop\n  jump\t// out\n    /* \"#utility.yul\":3441:4764   */\ntag_3:\n    /* \"#utility.yul\":3567:3573   */\n  0x00\n    /* \"#utility.yul\":3575:3581   */\n  dup1\n    /* \"#utility.yul\":3583:3589   */\n  0x00\n    /* \"#utility.yul\":3591:3597   */\n  dup1\n    /* \"#utility.yul\":3599:3605   */\n  0x00\n    /* \"#utility.yul\":3648:3651   */\n  0xa0\n    /* \"#utility.yul\":3636:3645   */\n  dup7\n    /* \"#utility.yul\":3627:3634   */\n  dup9\n    /* \"#utility.yul\":3623:3646   */\n  sub\n    /* \"#utility.yul\":3619:3652   */\n  slt\n    /* \"#utility.yul\":3616:3736   */\n  iszero\n  tag_101\n  jumpi\n    /* \"#utility.yul\":3655:3734   */\n  tag_102\n  tag_18\n  jump\t// in\ntag_102:\n    /* \"#utility.yul\":3616:3736   */\ntag_101:\n    /* \"#utility.yul\":3775:3776   */\n  0x00\n    /* \"#utility.yul\":3800:3864   */\n  tag_103\n    /* \"#utility.yul\":3856:3863   */\n  dup9\n    /* \"#utility.yul\":3847:3853   */\n  dup3\n    /* \"#utility.yul\":3836:3845   */\n  dup10\n    /* \"#utility.yul\":3832:3854   */\n  add\n    /* \"#utility.yul\":3800:3864   */\n  tag_23\n  jump\t// in\ntag_103:\n    /* \"#utility.yul\":3790:3864   */\n  swap6\n  pop\n    /* \"#utility.yul\":3746:3874   */\n  pop\n    /* \"#utility.yul\":3934:3936   */\n  0x20\n    /* \"#utility.yul\":3923:3932   */\n  dup7\n    /* \"#utility.yul\":3919:3937   */\n  add\n    /* \"#utility.yul\":3913:3938   */\n  mload\n    /* \"#utility.yul\":3965:3983   */\n  0xffffffffffffffff\n    /* \"#utility.yul\":3957:3963   */\n  dup2\n    /* \"#utility.yul\":3954:3984   */\n  gt\n    /* \"#utility.yul\":3951:4068   */\n  iszero\n  tag_104\n  jumpi\n    /* \"#utility.yul\":3987:4066   */\n  tag_105\n  tag_19\n  jump\t// in\ntag_105:\n    /* \"#utility.yul\":3951:4068   */\ntag_104:\n    /* \"#utility.yul\":4092:4166   */\n  tag_106\n    /* \"#utility.yul\":4158:4165   */\n  dup9\n    /* \"#utility.yul\":4149:4155   */\n  dup3\n    /* \"#utility.yul\":4138:4147   */\n  dup10\n    /* \"#utility.yul\":4134:4156   */\n  add\n    /* \"#utility.yul\":4092:4166   */\n  tag_33\n  jump\t// in\ntag_106:\n    /* \"#utility.yul\":4082:4166   */\n  swap5\n  pop\n    /* \"#utility.yul\":3884:4176   */\n  pop\n    /* \"#utility.yul\":4236:4238   */\n  0x40\n    /* \"#utility.yul\":4225:4234   */\n  dup7\n    /* \"#utility.yul\":4221:4239   */\n  add\n    /* \"#utility.yul\":4215:4240   */\n  mload\n    /* \"#utility.yul\":4267:4285   */\n  0xffffffffffffffff\n    /* \"#utility.yul\":4259:4265   */\n  dup2\n    /* \"#utility.yul\":4256:4286   */\n  gt\n    /* \"#utility.yul\":4253:4370   */\n  iszero\n  tag_107\n  jumpi\n    /* \"#utility.yul\":4289:4368   */\n  tag_108\n  tag_19\n  jump\t// in\ntag_108:\n    /* \"#utility.yul\":4253:4370   */\ntag_107:\n    /* \"#utility.yul\":4394:4468   */\n  tag_109\n    /* \"#utility.yul\":4460:4467   */\n  dup9\n    /* \"#utility.yul\":4451:4457   */\n  dup3\n    /* \"#utility.yul\":4440:4449   */\n  dup10\n    /* \"#utility.yul\":4436:4458   */\n  add\n    /* \"#utility.yul\":4394:4468   */\n  tag_33\n  jump\t// in\ntag_109:\n    /* \"#utility.yul\":4384:4468   */\n  swap4\n  pop\n    /* \"#utility.yul\":4186:4478   */\n  pop\n    /* \"#utility.yul\":4517:4519   */\n  0x60\n    /* \"#utility.yul\":4543:4607   */\n  tag_110\n    /* \"#utility.yul\":4599:4606   */\n  dup9\n    /* \"#utility.yul\":4590:4596   */\n  dup3\n    /* \"#utility.yul\":4579:4588   */\n  dup10\n    /* \"#utility.yul\":4575:4597   */\n  add\n    /* \"#utility.yul\":4543:4607   */\n  tag_36\n  jump\t// in\ntag_110:\n    /* \"#utility.yul\":4533:4607   */\n  swap3\n  pop\n    /* \"#utility.yul\":4488:4617   */\n  pop\n    /* \"#utility.yul\":4656:4659   */\n  0x80\n    /* \"#utility.yul\":4683:4747   */\n  tag_111\n    /* \"#utility.yul\":4739:4746   */\n  dup9\n    /* \"#utility.yul\":4730:4736   */\n  dup3\n    /* \"#utility.yul\":4719:4728   */\n  dup10\n    /* \"#utility.yul\":4715:4737   */\n  add\n    /* \"#utility.yul\":4683:4747   */\n  tag_36\n  jump\t// in\ntag_111:\n    /* \"#utility.yul\":4673:4747   */\n  swap2\n  pop\n    /* \"#utility.yul\":4627:4757   */\n  pop\n    /* \"#utility.yul\":3441:4764   */\n  swap3\n  swap6\n  pop\n  swap3\n  swap6\n  swap1\n  swap4\n  pop\n  jump\t// out\n    /* \"#utility.yul\":4770:4869   */\ntag_37:\n    /* \"#utility.yul\":4822:4828   */\n  0x00\n    /* \"#utility.yul\":4856:4861   */\n  dup2\n    /* \"#utility.yul\":4850:4862   */\n  mload\n    /* \"#utility.yul\":4840:4862   */\n  swap1\n  pop\n    /* \"#utility.yul\":4770:4869   */\n  swap2\n  swap1\n  pop\n  jump\t// out\n    /* \"#utility.yul\":4875:5055   */\ntag_38:\n    /* \"#utility.yul\":4923:5000   */\n  0x4e487b7100000000000000000000000000000000000000000000000000000000\n    /* \"#utility.yul\":4920:4921   */\n  0x00\n    /* \"#utility.yul\":4913:5001   */\n  mstore\n    /* \"#utility.yul\":5020:5024   */\n  0x22\n    /* \"#utility.yul\":5017:5018   */\n  0x04\n    /* \"#utility.yul\":5010:5025   */\n  mstore\n    /* \"#utility.yul\":5044:5048   */\n  0x24\n    /* \"#utility.yul\":5041:5042   */\n  0x00\n    /* \"#utility.yul\":5034:5049   */\n  revert\n    /* \"#utility.yul\":5061:5381   */\ntag_39:\n    /* \"#utility.yul\":5105:5111   */\n  0x00\n    /* \"#utility.yul\":5142:5143   */\n  0x02\n    /* \"#utility.yul\":5136:5140   */\n  dup3\n    /* \"#utility.yul\":5132:5144   */\n  div\n    /* \"#utility.yul\":5122:5144   */\n  swap1\n  pop\n    /* \"#utility.yul\":5189:5190   */\n  0x01\n    /* \"#utility.yul\":5183:5187   */\n  dup3\n    /* \"#utility.yul\":5179:5191   */\n  and\n    /* \"#utility.yul\":5210:5228   */\n  dup1\n    /* \"#utility.yul\":5200:5281   */\n  tag_115\n  jumpi\n    /* \"#utility.yul\":5266:5270   */\n  0x7f\n    /* \"#utility.yul\":5258:5264   */\n  dup3\n    /* \"#utility.yul\":5254:5271   */\n  and\n    /* \"#utility.yul\":5244:5271   */\n  swap2\n  pop\n    /* \"#utility.yul\":5200:5281   */\ntag_115:\n    /* \"#utility.yul\":5328:5330   */\n  0x20\n    /* \"#utility.yul\":5320:5326   */\n  dup3\n    /* \"#utility.yul\":5317:5331   */\n  lt\n    /* \"#utility.yul\":5297:5315   */\n  dup2\n    /* \"#utility.yul\":5294:5332   */\n  sub\n    /* \"#utility.yul\":5291:5375   */\n  tag_116\n  jumpi\n    /* \"#utility.yul\":5347:5365   */\n  tag_117\n  tag_38\n  jump\t// in\ntag_117:\n    /* \"#utility.yul\":5291:5375   */\ntag_116:\n    /* \"#utility.yul\":5112:5381   */\n  pop\n    /* \"#utility.yul\":5061:5381   */\n  swap2\n  swap1\n  pop\n  jump\t// out\n    /* \"#utility.yul\":5387:5528   */\ntag_40:\n    /* \"#utility.yul\":5436:5440   */\n  0x00\n    /* \"#utility.yul\":5459:5462   */\n  dup2\n    /* \"#utility.yul\":5451:5462   */\n  swap1\n  pop\n    /* \"#utility.yul\":5482:5485   */\n  dup2\n    /* \"#utility.yul\":5479:5480   */\n  0x00\n    /* \"#utility.yul\":5472:5486   */\n  mstore\n    /* \"#utility.yul\":5516:5520   */\n  0x20\n    /* \"#utility.yul\":5513:5514   */\n  0x00\n    /* \"#utility.yul\":5503:5521   */\n  keccak256\n    /* \"#utility.yul\":5495:5521   */\n  swap1\n  pop\n    /* \"#utility.yul\":5387:5528   */\n  swap2\n  swap1\n  pop\n  jump\t// out\n    /* \"#utility.yul\":5534:5627   */\ntag_41:\n    /* \"#utility.yul\":5571:5577   */\n  0x00\n    /* \"#utility.yul\":5618:5620   */\n  0x20\n    /* \"#utility.yul\":5613:5615   */\n  0x1f\n    /* \"#utility.yul\":5606:5611   */\n  dup4\n    /* \"#utility.yul\":5602:5616   */\n  add\n    /* \"#utility.yul\":5598:5621   */\n  div\n    /* \"#utility.yul\":5588:5621   */\n  swap1\n  pop\n    /* \"#utility.yul\":5534:5627   */\n  swap2\n  swap1\n  pop\n  jump\t// out\n    /* \"#utility.yul\":5633:5740   */\ntag_42:\n    /* \"#utility.yul\":5677:5685   */\n  0x00\n    /* \"#utility.yul\":5727:5732   */\n  dup3\n    /* \"#utility.yul\":5721:5725   */\n  dup3\n    /* \"#utility.yul\":5717:5733   */\n  shl\n    /* \"#utility.yul\":5696:5733   */\n  swap1\n  pop\n    /* \"#utility.yul\":5633:5740   */\n  swap3\n  swap2\n  pop\n  pop\n  jump\t// out\n    /* \"#utility.yul\":5746:6139   */\ntag_43:\n    /* \"#utility.yul\":5815:5821   */\n  0x00\n    /* \"#utility.yul\":5865:5866   */\n  0x08\n    /* \"#utility.yul\":5853:5863   */\n  dup4\n    /* \"#utility.yul\":5849:5867   */\n  mul\n    /* \"#utility.yul\":5888:5985   */\n  tag_122\n    /* \"#utility.yul\":5918:5984   */\n  0xffffffffffffffffffffffffffffffffffffffffffffffffffffffffffffffff\n    /* \"#utility.yul\":5907:5916   */\n  dup3\n    /* \"#utility.yul\":5888:5985   */\n  tag_42\n  jump\t// in\ntag_122:\n    /* \"#utility.yul\":6006:6045   */\n  tag_123\n    /* \"#utility.yul\":6036:6044   */\n  dup7\n    /* \"#utility.yul\":6025:6034   */\n  dup4\n    /* \"#utility.yul\":6006:6045   */\n  tag_42\n  jump\t// in\ntag_123:\n    /* \"#utility.yul\":5994:6045   */\n  swap6\n  pop\n    /* \"#utility.yul\":6078:6082   */\n  dup1\n    /* \"#utility.yul\":6074:6083   */\n  not\n    /* \"#utility.yul\":6067:6072   */\n  dup5\n    /* \"#utility.yul\":6063:6084   */\n  and\n    /* \"#utility.yul\":6054:6084   */\n  swap4\n  pop\n    /* \"#utility.yul\":6127:6131   */\n  dup1\n    /* \"#utility.yul\":6117:6125   */\n  dup7\n    /* \"#utility.yul\":6113:6132   */\n  and\n    /* \"#utility.yul\":6106:6111   */\n  dup5\n    /* \"#utility.yul\":6103:6133   */\n  or\n    /* \"#utility.yul\":6093:6133   */\n  swap3\n  pop\n    /* \"#utility.yul\":5822:6139   */\n  pop\n  pop\n    /* \"#utility.yul\":5746:6139   */\n  swap4\n  swap3\n  pop\n  pop\n  pop\n  jump\t// out\n    /* \"#utility.yul\":6145:6205   */\ntag_44:\n    /* \"#utility.yul\":6173:6176   */\n  0x00\n    /* \"#utility.yul\":6194:6199   */\n  dup2\n    /* \"#utility.yul\":6187:6199   */\n  swap1\n  pop\n    /* \"#utility.yul\":6145:6205   */\n  swap2\n  swap1\n  pop\n  jump\t// out\n    /* \"#utility.yul\":6211:6353   */\ntag_45:\n    /* \"#utility.yul\":6261:6270   */\n  0x00\n    /* \"#utility.yul\":6294:6347   */\n  tag_126\n    /* \"#utility.yul\":6312:6346   */\n  tag_127\n    /* \"#utility.yul\":6321:6345   */\n  tag_128\n    /* \"#utility.yul\":6339:6344   */\n  dup5\n    /* \"#utility.yul\":6321:6345   */\n  tag_34\n  jump\t// in\ntag_128:\n    /* \"#utility.yul\":6312:6346   */\n  tag_44\n  jump\t// in\ntag_127:\n    /* \"#utility.yul\":6294:6347   */\n  tag_34\n  jump\t// in\ntag_126:\n    /* \"#utility.yul\":6281:6347   */\n  swap1\n  pop\n    /* \"#utility.yul\":6211:6353   */\n  swap2\n  swap1\n  pop\n  jump\t// out\n    /* \"#utility.yul\":6359:6434   */\ntag_46:\n    /* \"#utility.yul\":6402:6405   */\n  0x00\n    /* \"#utility.yul\":6423:6428   */\n  dup2\n    /* \"#utility.yul\":6416:6428   */\n  swap1\n  pop\n    /* \"#utility.yul\":6359:6434   */\n  swap2\n  swap1\n  pop\n  jump\t// out\n    /* \"#utility.yul\":6440:6709   */\ntag_47:\n    /* \"#utility.yul\":6550:6589   */\n  tag_131\n    /* \"#utility.yul\":6581:6588   */\n  dup4\n    /* \"#utility.yul\":6550:6589   */\n  tag_45\n  jump\t// in\ntag_131:\n    /* \"#utility.yul\":6611:6702   */\n  tag_132\n    /* \"#utility.yul\":6660:6701   */\n  tag_133\n    /* \"#utility.yul\":6684:6700   */\n  dup3\n    /* \"#utility.yul\":6660:6701   */\n  tag_46\n  jump\t// in\ntag_133:\n    /* \"#utility.yul\":6652:6658   */\n  dup5\n    /* \"#utility.yul\":6645:6649   */\n  dup5\n    /* \"#utility.yul\":6639:6650   */\n  sload\n    /* \"#utility.yul\":6611:6702   */\n  tag_43\n  jump\t// in\ntag_132:\n    /* \"#utility.yul\":6605:6609   */\n  dup3\n    /* \"#utility.yul\":6598:6703   */\n  sstore\n    /* \"#utility.yul\":6516:6709   */\n  pop\n    /* \"#utility.yul\":6440:6709   */\n  pop\n  pop\n  pop\n  jump\t// out\n    /* \"#utility.yul\":6715:6788   */\ntag_48:\n    /* \"#utility.yul\":6760:6763   */\n  0x00\n    /* \"#utility.yul\":6715:6788   */\n  swap1\n  jump\t// out\n    /* \"#utility.yul\":6794:6983   */\ntag_49:\n    /* \"#utility.yul\":6871:6903   */\n  tag_136\n  tag_48\n  jump\t// in\ntag_136:\n    /* \"#utility.yul\":6912:6977   */\n  tag_137\n    /* \"#utility.yul\":6970:6976   */\n  dup2\n    /* \"#utility.yul\":6962:6968   */\n  dup5\n    /* \"#utility.yul\":6956:6960   */\n  dup5\n    /* \"#utility.yul\":6912:6977   */\n  tag_47\n  jump\t// in\ntag_137:\n    /* \"#utility.yul\":6847:6983   */\n  pop\n    /* \"#utility.yul\":6794:6983   */\n  pop\n  pop\n  jump\t// out\n    /* \"#utility.yul\":6989:7175   */\ntag_50:\n    /* \"#utility.yul\":7049:7169   */\ntag_139:\n    /* \"#utility.yul\":7066:7069   */\n  dup2\n    /* \"#utility.yul\":7059:7064   */\n  dup2\n    /* \"#utility.yul\":7056:7070   */\n  lt\n    /* \"#utility.yul\":7049:7169   */\n  iszero\n  tag_141\n  jumpi\n    /* \"#utility.yul\":7120:7159   */\n  tag_142\n    /* \"#utility.yul\":7157:7158   */\n  0x00\n    /* \"#utility.yul\":7150:7155   */\n  dup3\n    /* \"#utility.yul\":7120:7159   */\n  tag_49\n  jump\t// in\ntag_142:\n    /* \"#utility.yul\":7093:7094   */\n  0x01\n    /* \"#utility.yul\":7086:7091   */\n  dup2\n    /* \"#utility.yul\":7082:7095   */\n  add\n    /* \"#utility.yul\":7073:7095   */\n  swap1\n  pop\n    /* \"#utility.yul\":7049:7169   */\n  jump(tag_139)\ntag_141:\n    /* \"#utility.yul\":6989:7175   */\n  pop\n  pop\n  jump\t// out\n    /* \"#utility.yul\":7181:7724   */\ntag_51:\n    /* \"#utility.yul\":7282:7284   */\n  0x1f\n    /* \"#utility.yul\":7277:7280   */\n  dup3\n    /* \"#utility.yul\":7274:7285   */\n  gt\n    /* \"#utility.yul\":7271:7717   */\n  iszero\n  tag_144\n  jumpi\n    /* \"#utility.yul\":7316:7354   */\n  tag_145\n    /* \"#utility.yul\":7348:7353   */\n  dup2\n    /* \"#utility.yul\":7316:7354   */\n  tag_40\n  jump\t// in\ntag_145:\n    /* \"#utility.yul\":7400:7429   */\n  tag_146\n    /* \"#utility.yul\":7418:7428   */\n  dup5\n    /* \"#utility.yul\":7400:7429   */\n  tag_41\n  jump\t// in\ntag_146:\n    /* \"#utility.yul\":7390:7398   */\n  dup2\n    /* \"#utility.yul\":7386:7430   */\n  add\n    /* \"#utility.yul\":7583:7585   */\n  0x20\n    /* \"#utility.yul\":7571:7581   */\n  dup6\n    /* \"#utility.yul\":7568:7586   */\n  lt\n    /* \"#utility.yul\":7565:7614   */\n  iszero\n  tag_147\n  jumpi\n    /* \"#utility.yul\":7604:7612   */\n  dup2\n    /* \"#utility.yul\":7589:7612   */\n  swap1\n  pop\n    /* \"#utility.yul\":7565:7614   */\ntag_147:\n    /* \"#utility.yul\":7627:7707   */\n  tag_148\n    /* \"#utility.yul\":7683:7705   */\n  tag_149\n    /* \"#utility.yul\":7701:7704   */\n  dup6\n    /* \"#utility.yul\":7683:7705   */\n  tag_41\n  jump\t// in\ntag_149:\n    /* \"#utility.yul\":7673:7681   */\n  dup4\n    /* \"#utility.yul\":7669:7706   */\n  add\n    /* \"#utility.yul\":7656:7667   */\n  dup3\n    /* \"#utility.yul\":7627:7707   */\n  tag_50\n  jump\t// in\ntag_148:\n    /* \"#utility.yul\":7286:7717   */\n  pop\n  pop\n    /* \"#utility.yul\":7271:7717   */\ntag_144:\n    /* \"#utility.yul\":7181:7724   */\n  pop\n  pop\n  pop\n  jump\t// out\n    /* \"#utility.yul\":7730:7847   */\ntag_52:\n    /* \"#utility.yul\":7784:7792   */\n  0x00\n    /* \"#utility.yul\":7834:7839   */\n  dup3\n    /* \"#utility.yul\":7828:7832   */\n  dup3\n    /* \"#utility.yul\":7824:7840   */\n  shr\n    /* \"#utility.yul\":7803:7840   */\n  swap1\n  pop\n    /* \"#utility.yul\":7730:7847   */\n  swap3\n  swap2\n  pop\n  pop\n  jump\t// out\n    /* \"#utility.yul\":7853:8022   */\ntag_53:\n    /* \"#utility.yul\":7897:7903   */\n  0x00\n    /* \"#utility.yul\":7930:7981   */\n  tag_152\n    /* \"#utility.yul\":7978:7979   */\n  0x00\n    /* \"#utility.yul\":7974:7980   */\n  not\n    /* \"#utility.yul\":7966:7971   */\n  dup5\n    /* \"#utility.yul\":7963:7964   */\n  0x08\n    /* \"#utility.yul\":7959:7972   */\n  mul\n    /* \"#utility.yul\":7930:7981   */\n  tag_52\n  jump\t// in\ntag_152:\n    /* \"#utility.yul\":7926:7982   */\n  not\n    /* \"#utility.yul\":8011:8015   */\n  dup1\n    /* \"#utility.yul\":8005:8009   */\n  dup4\n    /* \"#utility.yul\":8001:8016   */\n  and\n    /* \"#utility.yul\":7991:8016   */\n  swap2\n  pop\n    /* \"#utility.yul\":7904:8022   */\n  pop\n    /* \"#utility.yul\":7853:8022   */\n  swap3\n  swap2\n  pop\n  pop\n  jump\t// out\n    /* \"#utility.yul\":8027:8322   */\ntag_54:\n    /* \"#utility.yul\":8103:8107   */\n  0x00\n    /* \"#utility.yul\":8249:8278   */\n  tag_154\n    /* \"#utility.yul\":8274:8277   */\n  dup4\n    /* \"#utility.yul\":8268:8272   */\n  dup4\n    /* \"#utility.yul\":8249:8278   */\n  tag_53\n  jump\t// in\ntag_154:\n    /* \"#utility.yul\":8241:8278   */\n  swap2\n  pop\n    /* \"#utility.yul\":8311:8314   */\n  dup3\n    /* \"#utility.yul\":8308:8309   */\n  0x02\n    /* \"#utility.yul\":8304:8315   */\n  mul\n    /* \"#utility.yul\":8298:8302   */\n  dup3\n    /* \"#utility.yul\":8295:8316   */\n  or\n    /* \"#utility.yul\":8287:8316   */\n  swap1\n  pop\n    /* \"#utility.yul\":8027:8322   */\n  swap3\n  swap2\n  pop\n  pop\n  jump\t// out\n    /* \"#utility.yul\":8327:9722   */\ntag_7:\n    /* \"#utility.yul\":8444:8481   */\n  tag_156\n    /* \"#utility.yul\":8477:8480   */\n  dup3\n    /* \"#utility.yul\":8444:8481   */\n  tag_37\n  jump\t// in\ntag_156:\n    /* \"#utility.yul\":8546:8564   */\n  0xffffffffffffffff\n    /* \"#utility.yul\":8538:8544   */\n  dup2\n    /* \"#utility.yul\":8535:8565   */\n  gt\n    /* \"#utility.yul\":8532:8588   */\n  iszero\n  tag_157\n  jumpi\n    /* \"#utility.yul\":8568:8586   */\n  tag_158\n  tag_27\n  jump\t// in\ntag_158:\n    /* \"#utility.yul\":8532:8588   */\ntag_157:\n    /* \"#utility.yul\":8612:8650   */\n  tag_159\n    /* \"#utility.yul\":8644:8648   */\n  dup3\n    /* \"#utility.yul\":8638:8649   */\n  sload\n    /* \"#utility.yul\":8612:8650   */\n  tag_39\n  jump\t// in\ntag_159:\n    /* \"#utility.yul\":8697:8764   */\n  tag_160\n    /* \"#utility.yul\":8757:8763   */\n  dup3\n    /* \"#utility.yul\":8749:8755   */\n  dup3\n    /* \"#utility.yul\":8743:8747   */\n  dup6\n    /* \"#utility.yul\":8697:8764   */\n  tag_51\n  jump\t// in\ntag_160:\n    /* \"#utility.yul\":8791:8792   */\n  0x00\n    /* \"#utility.yul\":8815:8819   */\n  0x20\n    /* \"#utility.yul\":8802:8819   */\n  swap1\n  pop\n    /* \"#utility.yul\":8847:8849   */\n  0x1f\n    /* \"#utility.yul\":8839:8845   */\n  dup4\n    /* \"#utility.yul\":8836:8850   */\n  gt\n    /* \"#utility.yul\":8864:8865   */\n  0x01\n    /* \"#utility.yul\":8859:9477   */\n  dup2\n  eq\n  tag_162\n  jumpi\n    /* \"#utility.yul\":9521:9522   */\n  0x00\n    /* \"#utility.yul\":9538:9544   */\n  dup5\n    /* \"#utility.yul\":9535:9612   */\n  iszero\n  tag_163\n  jumpi\n    /* \"#utility.yul\":9587:9596   */\n  dup3\n    /* \"#utility.yul\":9582:9585   */\n  dup8\n    /* \"#utility.yul\":9578:9597   */\n  add\n    /* \"#utility.yul\":9572:9598   */\n  mload\n    /* \"#utility.yul\":9563:9598   */\n  swap1\n  pop\n    /* \"#utility.yul\":9535:9612   */\ntag_163:\n    /* \"#utility.yul\":9638:9705   */\n  tag_164\n    /* \"#utility.yul\":9698:9704   */\n  dup6\n    /* \"#utility.yul\":9691:9696   */\n  dup3\n    /* \"#utility.yul\":9638:9705   */\n  tag_54\n  jump\t// in\ntag_164:\n    /* \"#utility.yul\":9632:9636   */\n  dup7\n    /* \"#utility.yul\":9625:9706   */\n  sstore\n    /* \"#utility.yul\":9494:9716   */\n  pop\n    /* \"#utility.yul\":8829:9716   */\n  jump(tag_161)\n    /* \"#utility.yul\":8859:9477   */\ntag_162:\n    /* \"#utility.yul\":8911:8915   */\n  0x1f\n    /* \"#utility.yul\":8907:8916   */\n  not\n    /* \"#utility.yul\":8899:8905   */\n  dup5\n    /* \"#utility.yul\":8895:8917   */\n  and\n    /* \"#utility.yul\":8945:8982   */\n  tag_165\n    /* \"#utility.yul\":8977:8981   */\n  dup7\n    /* \"#utility.yul\":8945:8982   */\n  tag_40\n  jump\t// in\ntag_165:\n    /* \"#utility.yul\":9004:9005   */\n  0x00\n    /* \"#utility.yul\":9018:9226   */\ntag_166:\n    /* \"#utility.yul\":9032:9039   */\n  dup3\n    /* \"#utility.yul\":9029:9030   */\n  dup2\n    /* \"#utility.yul\":9026:9040   */\n  lt\n    /* \"#utility.yul\":9018:9226   */\n  iszero\n  tag_168\n  jumpi\n    /* \"#utility.yul\":9111:9120   */\n  dup5\n    /* \"#utility.yul\":9106:9109   */\n  dup10\n    /* \"#utility.yul\":9102:9121   */\n  add\n    /* \"#utility.yul\":9096:9122   */\n  mload\n    /* \"#utility.yul\":9088:9094   */\n  dup3\n    /* \"#utility.yul\":9081:9123   */\n  sstore\n    /* \"#utility.yul\":9162:9163   */\n  0x01\n    /* \"#utility.yul\":9154:9160   */\n  dup3\n    /* \"#utility.yul\":9150:9164   */\n  add\n    /* \"#utility.yul\":9140:9164   */\n  swap2\n  pop\n    /* \"#utility.yul\":9209:9211   */\n  0x20\n    /* \"#utility.yul\":9198:9207   */\n  dup6\n    /* \"#utility.yul\":9194:9212   */\n  add\n    /* \"#utility.yul\":9181:9212   */\n  swap5\n  pop\n    /* \"#utility.yul\":9055:9059   */\n  0x20\n    /* \"#utility.yul\":9052:9053   */\n  dup2\n    /* \"#utility.yul\":9048:9060   */\n  add\n    /* \"#utility.yul\":9043:9060   */\n  swap1\n  pop\n    /* \"#utility.yul\":9018:9226   */\n  jump(tag_166)\ntag_168:\n    /* \"#utility.yul\":9254:9260   */\n  dup7\n    /* \"#utility.yul\":9245:9252   */\n  dup4\n    /* \"#utility.yul\":9242:9261   */\n  lt\n    /* \"#utility.yul\":9239:9418   */\n  iszero\n  tag_169\n  jumpi\n    /* \"#utility.yul\":9312:9321   */\n  dup5\n    /* \"#utility.yul\":9307:9310   */\n  dup10\n    /* \"#utility.yul\":9303:9322   */\n  add\n    /* \"#utility.yul\":9297:9323   */\n  mload\n    /* \"#utility.yul\":9355:9403   */\n  tag_170\n    /* \"#utility.yul\":9397:9401   */\n  0x1f\n    /* \"#utility.yul\":9389:9395   */\n  dup10\n    /* \"#utility.yul\":9385:9402   */\n  and\n    /* \"#utility.yul\":9374:9383   */\n  dup3\n    /* \"#utility.yul\":9355:9403   */\n  tag_53\n  jump\t// in\ntag_170:\n    /* \"#utility.yul\":9347:9353   */\n  dup4\n    /* \"#utility.yul\":9340:9404   */\n  sstore\n    /* \"#utility.yul\":9262:9418   */\n  pop\n    /* \"#utility.yul\":9239:9418   */\ntag_169:\n    /* \"#utility.yul\":9464:9465   */\n  0x01\n    /* \"#utility.yul\":9460:9461   */\n  0x02\n    /* \"#utility.yul\":9452:9458   */\n  dup9\n    /* \"#utility.yul\":9448:9462   */\n  mul\n    /* \"#utility.yul\":9444:9466   */\n  add\n    /* \"#utility.yul\":9438:9442   */\n  dup9\n    /* \"#utility.yul\":9431:9467   */\n  sstore\n    /* \"#utility.yul\":8866:9477   */\n  pop\n  pop\n  pop\n    /* \"#utility.yul\":8829:9716   */\ntag_161:\n  pop\n    /* \"#utility.yul\":8419:9722   */\n  pop\n  pop\n  pop\n    /* \"#utility.yul\":8327:9722   */\n  pop\n  pop\n  jump\t// out\n    /* \"#utility.yul\":9728:9908   */\ntag_55:\n    /* \"#utility.yul\":9776:9853   */\n  0x4e487b7100000000000000000000000000000000000000000000000000000000\n    /* \"#utility.yul\":9773:9774   */\n  0x00\n    /* \"#utility.yul\":9766:9854   */\n  mstore\n    /* \"#utility.yul\":9873:9877   */\n  0x11\n    /* \"#utility.yul\":9870:9871   */\n  0x04\n    /* \"#utility.yul\":9863:9878   */\n  mstore\n    /* \"#utility.yul\":9897:9901   */\n  0x24\n    /* \"#utility.yul\":9894:9895   */\n  0x00\n    /* \"#utility.yul\":9887:9902   */\n  revert\n    /* \"#utility.yul\":9914:10324   */\ntag_10:\n    /* \"#utility.yul\":9954:9961   */\n  0x00\n    /* \"#utility.yul\":9977:9997   */\n  tag_173\n    /* \"#utility.yul\":9995:9996   */\n  dup3\n    /* \"#utility.yul\":9977:9997   */\n  tag_34\n  jump\t// in\ntag_173:\n    /* \"#utility.yul\":9972:9997   */\n  swap2\n  pop\n    /* \"#utility.yul\":10011:10031   */\n  tag_174\n    /* \"#utility.yul\":10029:10030   */\n  dup4\n    /* \"#utility.yul\":10011:10031   */\n  tag_34\n  jump\t// in\ntag_174:\n    /* \"#utility.yul\":10006:10031   */\n  swap3\n  pop\n    /* \"#utility.yul\":10066:10067   */\n  dup3\n    /* \"#utility.yul\":10063:10064   */\n  dup3\n    /* \"#utility.yul\":10059:10068   */\n  mul\n    /* \"#utility.yul\":10088:10118   */\n  tag_175\n    /* \"#utility.yul\":10106:10117   */\n  dup2\n    /* \"#utility.yul\":10088:10118   */\n  tag_34\n  jump\t// in\ntag_175:\n    /* \"#utility.yul\":10077:10118   */\n  swap2\n  pop\n    /* \"#utility.yul\":10267:10268   */\n  dup3\n    /* \"#utility.yul\":10258:10265   */\n  dup3\n    /* \"#utility.yul\":10254:10269   */\n  div\n    /* \"#utility.yul\":10251:10252   */\n  dup5\n    /* \"#utility.yul\":10248:10270   */\n  eq\n    /* \"#utility.yul\":10228:10229   */\n  dup4\n    /* \"#utility.yul\":10221:10230   */\n  iszero\n    /* \"#utility.yul\":10201:10284   */\n  or\n    /* \"#utility.yul\":10178:10317   */\n  tag_176\n  jumpi\n    /* \"#utility.yul\":10297:10315   */\n  tag_177\n  tag_55\n  jump\t// in\ntag_177:\n    /* \"#utility.yul\":10178:10317   */\ntag_176:\n    /* \"#utility.yul\":9962:10324   */\n  pop\n    /* \"#utility.yul\":9914:10324   */\n  swap3\n  swap2\n  pop\n  pop\n  jump\t// out\n    /* \"#utility.yul\":10330:10521   */\ntag_12:\n    /* \"#utility.yul\":10370:10373   */\n  0x00\n    /* \"#utility.yul\":10389:10409   */\n  tag_179\n    /* \"#utility.yul\":10407:10408   */\n  dup3\n    /* \"#utility.yul\":10389:10409   */\n  tag_34\n  jump\t// in\ntag_179:\n    /* \"#utility.yul\":10384:10409   */\n  swap2\n  pop\n    /* \"#utility.yul\":10423:10443   */\n  tag_180\n    /* \"#utility.yul\":10441:10442   */\n  dup4\n    /* \"#utility.yul\":10423:10443   */\n  tag_34\n  jump\t// in\ntag_180:\n    /* \"#utility.yul\":10418:10443   */\n  swap3\n  pop\n    /* \"#utility.yul\":10466:10467   */\n  dup3\n    /* \"#utility.yul\":10463:10464   */\n  dup3\n    /* \"#utility.yul\":10459:10468   */\n  add\n    /* \"#utility.yul\":10452:10468   */\n  swap1\n  pop\n    /* \"#utility.yul\":10487:10490   */\n  dup1\n    /* \"#utility.yul\":10484:10485   */\n  dup3\n    /* \"#utility.yul\":10481:10491   */\n  gt\n    /* \"#utility.yul\":10478:10514   */\n  iszero\n  tag_181\n  jumpi\n    /* \"#utility.yul\":10494:10512   */\n  tag_182\n  tag_55\n  jump\t// in\ntag_182:\n    /* \"#utility.yul\":10478:10514   */\ntag_181:\n    /* \"#utility.yul\":10330:10521   */\n  swap3\n  swap2\n  pop\n  pop\n  jump\t// out\n    /* \"#utility.yul\":10527:10707   */\ntag_15:\n    /* \"#utility.yul\":10575:10652   */\n  0x4e487b7100000000000000000000000000000000000000000000000000000000\n    /* \"#utility.yul\":10572:10573   */\n  0x00\n    /* \"#utility.yul\":10565:10653   */\n  mstore\n    /* \"#utility.yul\":10672:10676   */\n  0x21\n    /* \"#utility.yul\":10669:10670   */\n  0x04\n    /* \"#utility.yul\":10662:10677   */\n  mstore\n    /* \"#utility.yul\":10696:10700   */\n  0x24\n    /* \"#utility.yul\":10693:10694   */\n  0x00\n    /* \"#utility.yul\":10686:10701   */\n  revert\n    /* \"contracts/CrowdFunding.sol\":62:4260  contract Crowdfunding {... */\ntag_16:\n  dataSize(sub_0)\n  dup1\n  dataOffset(sub_0)\n  0x00\n  codecopy\n  0x00\n  return\nstop\n\nsub_0: assembly {\n        /* \"contracts/CrowdFunding.sol\":62:4260  contract Crowdfunding {... */\n      mstore(0x40, 0x80)\n      jumpi(tag_1, lt(calldatasize, 0x04))\n      shr(0xe0, calldataload(0x00))\n      dup1\n      0x7284e416\n      gt\n      tag_22\n      jumpi\n      dup1\n      0xb85dfb80\n      gt\n      tag_23\n      jumpi\n      dup1\n      0xb85dfb80\n      eq\n      tag_17\n      jumpi\n      dup1\n      0xc19d93fb\n      eq\n      tag_18\n      jumpi\n      dup1\n      0xc4ae3168\n      eq\n      tag_19\n      jumpi\n      dup1\n      0xca1d209d\n      eq\n      tag_20\n      jumpi\n      dup1\n      0xde170570\n      eq\n      tag_21\n      jumpi\n      jump(tag_1)\n    tag_23:\n      dup1\n      0x7284e416\n      eq\n      tag_12\n      jumpi\n      dup1\n      0x7497211b\n      eq\n      tag_13\n      jumpi\n      dup1\n      0x7adba527\n      eq\n      tag_14\n      jumpi\n      dup1\n      0x8da5cb5b\n      eq\n      tag_15\n      jumpi\n      dup1\n      0x8ece7b91\n      eq\n      tag_16\n      jumpi\n      jump(tag_1)\n    tag_22:\n      dup1\n      0x40193883\n      gt\n      tag_24\n      jumpi\n      dup1\n      0x40193883\n      eq\n      tag_7\n      jumpi\n      dup1\n      0x590e1ae3\n      eq\n      tag_8\n      jumpi\n      dup1\n      0x5c975abb\n      eq\n      tag_9\n      jumpi\n      dup1\n      0x631b9d9f\n      eq\n      tag_10\n      jumpi\n      dup1\n      0x6f9fb98a\n      eq\n      tag_11\n      jumpi\n      jump(tag_1)\n    tag_24:\n      dup1\n      0x039af9eb\n      eq\n      tag_2\n      jumpi\n      dup1\n      0x06fdde03\n      eq\n      tag_3\n      jumpi\n      dup1\n      0x10550515\n      eq\n      tag_4\n      jumpi\n      dup1\n      0x29dcb0cf\n      eq\n      tag_5\n      jumpi\n      dup1\n      0x3ccfd60b\n      eq\n      tag_6\n      jumpi\n    tag_1:\n      0x00\n      dup1\n      revert\n        /* \"contracts/CrowdFunding.sol\":561:580  Tier[] public tiers */\n    tag_2:\n      callvalue\n      dup1\n      iszero\n      tag_25\n      jumpi\n      0x00\n      dup1\n      revert\n    tag_25:\n      pop\n      tag_26\n      0x04\n      dup1\n      calldatasize\n      sub\n      dup2\n      add\n      swap1\n      tag_27\n      swap2\n      swap1\n      tag_28\n      jump\t// in\n    tag_27:\n      tag_29\n      jump\t// in\n    tag_26:\n      mload(0x40)\n      tag_30\n      swap4\n      swap3\n      swap2\n      swap1\n      tag_31\n      jump\t// in\n    tag_30:\n      mload(0x40)\n      dup1\n      swap2\n      sub\n      swap1\n      return\n        /* \"contracts/CrowdFunding.sol\":91:109  string public name */\n    tag_3:\n      callvalue\n      dup1\n      iszero\n      tag_32\n      jumpi\n      0x00\n      dup1\n      revert\n    tag_32:\n      pop\n      tag_33\n      tag_34\n      jump\t// in\n    tag_33:\n      mload(0x40)\n      tag_35\n      swap2\n      swap1\n      tag_36\n      jump\t// in\n    tag_35:\n      mload(0x40)\n      dup1\n      swap2\n      sub\n      swap1\n      return\n        /* \"contracts/CrowdFunding.sol\":3831:4123  function getCampaignStatus() public view returns (CampaignState) {... */\n    tag_4:\n      callvalue\n      dup1\n      iszero\n      tag_37\n      jumpi\n      0x00\n      dup1\n      revert\n    tag_37:\n      pop\n      tag_38\n      tag_39\n      jump\t// in\n    tag_38:\n      mload(0x40)\n      tag_40\n      swap2\n      swap1\n      tag_41\n      jump\t// in\n    tag_40:\n      mload(0x40)\n      dup1\n      swap2\n      sub\n      swap1\n      return\n        /* \"contracts/CrowdFunding.sol\":174:197  uint256 public deadline */\n    tag_5:\n      callvalue\n      dup1\n      iszero\n      tag_42\n      jumpi\n      0x00\n      dup1\n      revert\n    tag_42:\n      pop\n      tag_43\n      tag_44\n      jump\t// in\n    tag_43:\n      mload(0x40)\n      tag_45\n      swap2\n      swap1\n      tag_46\n      jump\t// in\n    tag_45:\n      mload(0x40)\n      dup1\n      swap2\n      sub\n      swap1\n      return\n        /* \"contracts/CrowdFunding.sol\":2654:2979  function withdraw()  public onlyOwner() {... */\n    tag_6:\n      callvalue\n      dup1\n      iszero\n      tag_47\n      jumpi\n      0x00\n      dup1\n      revert\n    tag_47:\n      pop\n      tag_48\n      tag_49\n      jump\t// in\n    tag_48:\n      stop\n        /* \"contracts/CrowdFunding.sol\":148:167  uint256 public goal */\n    tag_7:\n      callvalue\n      dup1\n      iszero\n      tag_50\n      jumpi\n      0x00\n      dup1\n      revert\n    tag_50:\n      pop\n      tag_51\n      tag_52\n      jump\t// in\n    tag_51:\n      mload(0x40)\n      tag_53\n      swap2\n      swap1\n      tag_46\n      jump\t// in\n    tag_53:\n      mload(0x40)\n      dup1\n      swap2\n      sub\n      swap1\n      return\n        /* \"contracts/CrowdFunding.sol\":3107:3481  function refund() public {... */\n    tag_8:\n      callvalue\n      dup1\n      iszero\n      tag_54\n      jumpi\n      0x00\n      dup1\n      revert\n    tag_54:\n      pop\n      tag_55\n      tag_56\n      jump\t// in\n    tag_55:\n      stop\n        /* \"contracts/CrowdFunding.sol\":231:249  bool public paused */\n    tag_9:\n      callvalue\n      dup1\n      iszero\n      tag_57\n      jumpi\n      0x00\n      dup1\n      revert\n    tag_57:\n      pop\n      tag_58\n      tag_59\n      jump\t// in\n    tag_58:\n      mload(0x40)\n      tag_60\n      swap2\n      swap1\n      tag_61\n      jump\t// in\n    tag_60:\n      mload(0x40)\n      dup1\n      swap2\n      sub\n      swap1\n      return\n        /* \"contracts/CrowdFunding.sol\":4131:4255  function extendDeadLine(uint256 _daysToAdd) public onlyOwner campaignOpen {... */\n    tag_10:\n      callvalue\n      dup1\n      iszero\n      tag_62\n      jumpi\n      0x00\n      dup1\n      revert\n    tag_62:\n      pop\n      tag_63\n      0x04\n      dup1\n      calldatasize\n      sub\n      dup2\n      add\n      swap1\n      tag_64\n      swap2\n      swap1\n      tag_28\n      jump\t// in\n    tag_64:\n      tag_65\n      jump\t// in\n    tag_63:\n      stop\n        /* \"contracts/CrowdFunding.sol\":2991:3099  function getContractBalance()  public view returns (uint256) {... */\n    tag_11:\n      callvalue\n      dup1\n      iszero\n      tag_66\n      jumpi\n      0x00\n      dup1\n      revert\n    tag_66:\n      pop\n      tag_67\n      tag_68\n      jump\t// in\n    tag_67:\n      mload(0x40)\n      tag_69\n      swap2\n      swap1\n      tag_46\n      jump\t// in\n    tag_69:\n      mload(0x40)\n      dup1\n      swap2\n      sub\n      swap1\n      return\n        /* \"contracts/CrowdFunding.sol\":116:141  string public description */\n    tag_12:\n      callvalue\n      dup1\n      iszero\n      tag_70\n      jumpi\n      0x00\n      dup1\n      revert\n    tag_70:\n      pop\n      tag_71\n      tag_72\n      jump\t// in\n    tag_71:\n      mload(0x40)\n      tag_73\n      swap2\n      swap1\n      tag_36\n      jump\t// in\n    tag_73:\n      mload(0x40)\n      dup1\n      swap2\n      sub\n      swap1\n      return\n        /* \"contracts/CrowdFunding.sol\":2449:2646  function removeTier(uint256 _index) public onlyOwner {... */\n    tag_13:\n      callvalue\n      dup1\n      iszero\n      tag_74\n      jumpi\n      0x00\n      dup1\n      revert\n    tag_74:\n      pop\n      tag_75\n      0x04\n      dup1\n      calldatasize\n      sub\n      dup2\n      add\n      swap1\n      tag_76\n      swap2\n      swap1\n      tag_28\n      jump\t// in\n    tag_76:\n      tag_77\n      jump\t// in\n    tag_75:\n      stop\n        /* \"contracts/CrowdFunding.sol\":3489:3642  function hasFundedTier(address _backer, uint256 _tierIndex) public view returns (bool) {... */\n    tag_14:\n      callvalue\n      dup1\n      iszero\n      tag_78\n      jumpi\n      0x00\n      dup1\n      revert\n    tag_78:\n      pop\n      tag_79\n      0x04\n      dup1\n      calldatasize\n      sub\n      dup2\n      add\n      swap1\n      tag_80\n      swap2\n      swap1\n      tag_81\n      jump\t// in\n    tag_80:\n      tag_82\n      jump\t// in\n    tag_79:\n      mload(0x40)\n      tag_83\n      swap2\n      swap1\n      tag_61\n      jump\t// in\n    tag_83:\n      mload(0x40)\n      dup1\n      swap2\n      sub\n      swap1\n      return\n        /* \"contracts/CrowdFunding.sol\":204:224  address public owner */\n    tag_15:\n      callvalue\n      dup1\n      iszero\n      tag_84\n      jumpi\n      0x00\n      dup1\n      revert\n    tag_84:\n      pop\n      tag_85\n      tag_86\n      jump\t// in\n    tag_85:\n      mload(0x40)\n      tag_87\n      swap2\n      swap1\n      tag_88\n      jump\t// in\n    tag_87:\n      mload(0x40)\n      dup1\n      swap2\n      sub\n      swap1\n      return\n        /* \"contracts/CrowdFunding.sol\":2215:2441  function addTier(... */\n    tag_16:\n      callvalue\n      dup1\n      iszero\n      tag_89\n      jumpi\n      0x00\n      dup1\n      revert\n    tag_89:\n      pop\n      tag_90\n      0x04\n      dup1\n      calldatasize\n      sub\n      dup2\n      add\n      swap1\n      tag_91\n      swap2\n      swap1\n      tag_92\n      jump\t// in\n    tag_91:\n      tag_93\n      jump\t// in\n    tag_90:\n      stop\n        /* \"contracts/CrowdFunding.sol\":587:628  mapping(address => Backer) public backers */\n    tag_17:\n      callvalue\n      dup1\n      iszero\n      tag_94\n      jumpi\n      0x00\n      dup1\n      revert\n    tag_94:\n      pop\n      tag_95\n      0x04\n      dup1\n      calldatasize\n      sub\n      dup2\n      add\n      swap1\n      tag_96\n      swap2\n      swap1\n      tag_97\n      jump\t// in\n    tag_96:\n      tag_98\n      jump\t// in\n    tag_95:\n      mload(0x40)\n      tag_99\n      swap2\n      swap1\n      tag_46\n      jump\t// in\n    tag_99:\n      mload(0x40)\n      dup1\n      swap2\n      sub\n      swap1\n      return\n        /* \"contracts/CrowdFunding.sol\":312:338  CampaignState public state */\n    tag_18:\n      callvalue\n      dup1\n      iszero\n      tag_100\n      jumpi\n      0x00\n      dup1\n      revert\n    tag_100:\n      pop\n      tag_101\n      tag_102\n      jump\t// in\n    tag_101:\n      mload(0x40)\n      tag_103\n      swap2\n      swap1\n      tag_41\n      jump\t// in\n    tag_103:\n      mload(0x40)\n      dup1\n      swap2\n      sub\n      swap1\n      return\n        /* \"contracts/CrowdFunding.sol\":3745:3823  function togglePause()  public onlyOwner {... */\n    tag_19:\n      callvalue\n      dup1\n      iszero\n      tag_104\n      jumpi\n      0x00\n      dup1\n      revert\n    tag_104:\n      pop\n      tag_105\n      tag_106\n      jump\t// in\n    tag_105:\n      stop\n        /* \"contracts/CrowdFunding.sol\":1783:2207  function fund(uint256 _tierIndex)  public payable campaignOpen notPaused{... */\n    tag_20:\n      tag_107\n      0x04\n      dup1\n      calldatasize\n      sub\n      dup2\n      add\n      swap1\n      tag_108\n      swap2\n      swap1\n      tag_28\n      jump\t// in\n    tag_108:\n      tag_109\n      jump\t// in\n    tag_107:\n      stop\n        /* \"contracts/CrowdFunding.sol\":3650:3737  function getTiers() public view returns (Tier[] memory) {... */\n    tag_21:\n      callvalue\n      dup1\n      iszero\n      tag_110\n      jumpi\n      0x00\n      dup1\n      revert\n    tag_110:\n      pop\n      tag_111\n      tag_112\n      jump\t// in\n    tag_111:\n      mload(0x40)\n      tag_113\n      swap2\n      swap1\n      tag_114\n      jump\t// in\n    tag_113:\n      mload(0x40)\n      dup1\n      swap2\n      sub\n      swap1\n      return\n        /* \"contracts/CrowdFunding.sol\":561:580  Tier[] public tiers */\n    tag_29:\n      0x05\n      dup2\n      dup2\n      sload\n      dup2\n      lt\n      tag_115\n      jumpi\n      0x00\n      dup1\n      revert\n    tag_115:\n      swap1\n      0x00\n      mstore\n      keccak256(0x00, 0x20)\n      swap1\n      0x03\n      mul\n      add\n      0x00\n      swap2\n      pop\n      swap1\n      pop\n      dup1\n      0x00\n      add\n      dup1\n      sload\n      tag_117\n      swap1\n      tag_118\n      jump\t// in\n    tag_117:\n      dup1\n      0x1f\n      add\n      0x20\n      dup1\n      swap2\n      div\n      mul\n      0x20\n      add\n      mload(0x40)\n      swap1\n      dup2\n      add\n      0x40\n      mstore\n      dup1\n      swap3\n      swap2\n      swap1\n      dup2\n      dup2\n      mstore\n      0x20\n      add\n      dup3\n      dup1\n      sload\n      tag_119\n      swap1\n      tag_118\n      jump\t// in\n    tag_119:\n      dup1\n      iszero\n      tag_120\n      jumpi\n      dup1\n      0x1f\n      lt\n      tag_121\n      jumpi\n      0x0100\n      dup1\n      dup4\n      sload\n      div\n      mul\n      dup4\n      mstore\n      swap2\n      0x20\n      add\n      swap2\n      jump(tag_120)\n    tag_121:\n      dup3\n      add\n      swap2\n      swap1\n      0x00\n      mstore\n      keccak256(0x00, 0x20)\n      swap1\n    tag_122:\n      dup2\n      sload\n      dup2\n      mstore\n      swap1\n      0x01\n      add\n      swap1\n      0x20\n      add\n      dup1\n      dup4\n      gt\n      tag_122\n      jumpi\n      dup3\n      swap1\n      sub\n      0x1f\n      and\n      dup3\n      add\n      swap2\n    tag_120:\n      pop\n      pop\n      pop\n      pop\n      pop\n      swap1\n      dup1\n      0x01\n      add\n      sload\n      swap1\n      dup1\n      0x02\n      add\n      sload\n      swap1\n      pop\n      dup4\n      jump\t// out\n        /* \"contracts/CrowdFunding.sol\":91:109  string public name */\n    tag_34:\n      0x00\n      dup1\n      sload\n      tag_123\n      swap1\n      tag_118\n      jump\t// in\n    tag_123:\n      dup1\n      0x1f\n      add\n      0x20\n      dup1\n      swap2\n      div\n      mul\n      0x20\n      add\n      mload(0x40)\n      swap1\n      dup2\n      add\n      0x40\n      mstore\n      dup1\n      swap3\n      swap2\n      swap1\n      dup2\n      dup2\n      mstore\n      0x20\n      add\n      dup3\n      dup1\n      sload\n      tag_124\n      swap1\n      tag_118\n      jump\t// in\n    tag_124:\n      dup1\n      iszero\n      tag_125\n      jumpi\n      dup1\n      0x1f\n      lt\n      tag_126\n      jumpi\n      0x0100\n      dup1\n      dup4\n      sload\n      div\n      mul\n      dup4\n      mstore\n      swap2\n      0x20\n      add\n      swap2\n      jump(tag_125)\n    tag_126:\n      dup3\n      add\n      swap2\n      swap1\n      0x00\n      mstore\n      keccak256(0x00, 0x20)\n      swap1\n    tag_127:\n      dup2\n      sload\n      dup2\n      mstore\n      swap1\n      0x01\n      add\n      swap1\n      0x20\n      add\n      dup1\n      dup4\n      gt\n      tag_127\n      jumpi\n      dup3\n      swap1\n      sub\n      0x1f\n      and\n      dup3\n      add\n      swap2\n    tag_125:\n      pop\n      pop\n      pop\n      pop\n      pop\n      dup2\n      jump\t// out\n        /* \"contracts/CrowdFunding.sol\":3831:4123  function getCampaignStatus() public view returns (CampaignState) {... */\n    tag_39:\n        /* \"contracts/CrowdFunding.sol\":3881:3894  CampaignState */\n      0x00\n        /* \"contracts/CrowdFunding.sol\":3919:3939  CampaignState.Active */\n      dup1\n        /* \"contracts/CrowdFunding.sol\":3910:3939  state == CampaignState.Active */\n      0x02\n      dup2\n      gt\n      iszero\n      tag_129\n      jumpi\n      tag_130\n      tag_131\n      jump\t// in\n    tag_130:\n    tag_129:\n        /* \"contracts/CrowdFunding.sol\":3910:3915  state */\n      0x04\n      0x15\n      swap1\n      sload\n      swap1\n      0x0100\n      exp\n      swap1\n      div\n      0xff\n      and\n        /* \"contracts/CrowdFunding.sol\":3910:3939  state == CampaignState.Active */\n      0x02\n      dup2\n      gt\n      iszero\n      tag_132\n      jumpi\n      tag_133\n      tag_131\n      jump\t// in\n    tag_133:\n    tag_132:\n      eq\n        /* \"contracts/CrowdFunding.sol\":3910:3969  state == CampaignState.Active && block.timestamp > deadline */\n      dup1\n      iszero\n      tag_134\n      jumpi\n      pop\n        /* \"contracts/CrowdFunding.sol\":3961:3969  deadline */\n      sload(0x03)\n        /* \"contracts/CrowdFunding.sol\":3943:3958  block.timestamp */\n      timestamp\n        /* \"contracts/CrowdFunding.sol\":3943:3969  block.timestamp > deadline */\n      gt\n        /* \"contracts/CrowdFunding.sol\":3910:3969  state == CampaignState.Active && block.timestamp > deadline */\n    tag_134:\n        /* \"contracts/CrowdFunding.sol\":3907:4083  if(state == CampaignState.Active && block.timestamp > deadline){... */\n      iszero\n      tag_135\n      jumpi\n        /* \"contracts/CrowdFunding.sol\":4017:4021  goal */\n      sload(0x02)\n        /* \"contracts/CrowdFunding.sol\":3992:4013  address(this).balance */\n      selfbalance\n        /* \"contracts/CrowdFunding.sol\":3992:4021  address(this).balance >= goal */\n      lt\n      iszero\n        /* \"contracts/CrowdFunding.sol\":3992:4071  address(this).balance >= goal ? CampaignState.Successful : CampaignState.Failed */\n      tag_136\n      jumpi\n        /* \"contracts/CrowdFunding.sol\":4051:4071  CampaignState.Failed */\n      0x02\n        /* \"contracts/CrowdFunding.sol\":3992:4071  address(this).balance >= goal ? CampaignState.Successful : CampaignState.Failed */\n      jump(tag_137)\n    tag_136:\n        /* \"contracts/CrowdFunding.sol\":4024:4048  CampaignState.Successful */\n      0x01\n        /* \"contracts/CrowdFunding.sol\":3992:4071  address(this).balance >= goal ? CampaignState.Successful : CampaignState.Failed */\n    tag_137:\n        /* \"contracts/CrowdFunding.sol\":3985:4071  return address(this).balance >= goal ? CampaignState.Successful : CampaignState.Failed */\n      swap1\n      pop\n      jump(tag_128)\n        /* \"contracts/CrowdFunding.sol\":3907:4083  if(state == CampaignState.Active && block.timestamp > deadline){... */\n    tag_135:\n        /* \"contracts/CrowdFunding.sol\":4100:4105  state */\n      0x04\n      0x15\n      swap1\n      sload\n      swap1\n      0x0100\n      exp\n      swap1\n      div\n      0xff\n      and\n        /* \"contracts/CrowdFunding.sol\":4093:4105  return state */\n      swap1\n      pop\n        /* \"contracts/CrowdFunding.sol\":3831:4123  function getCampaignStatus() public view returns (CampaignState) {... */\n    tag_128:\n      swap1\n      jump\t// out\n        /* \"contracts/CrowdFunding.sol\":174:197  uint256 public deadline */\n    tag_44:\n      sload(0x03)\n      dup2\n      jump\t// out\n        /* \"contracts/CrowdFunding.sol\":2654:2979  function withdraw()  public onlyOwner() {... */\n    tag_49:\n        /* \"contracts/CrowdFunding.sol\":691:696  owner */\n      0x04\n      0x00\n      swap1\n      sload\n      swap1\n      0x0100\n      exp\n      swap1\n      div\n      0xffffffffffffffffffffffffffffffffffffffff\n      and\n        /* \"contracts/CrowdFunding.sol\":677:696  msg.sender == owner */\n      0xffffffffffffffffffffffffffffffffffffffff\n      and\n        /* \"contracts/CrowdFunding.sol\":677:687  msg.sender */\n      caller\n        /* \"contracts/CrowdFunding.sol\":677:696  msg.sender == owner */\n      0xffffffffffffffffffffffffffffffffffffffff\n      and\n      eq\n        /* \"contracts/CrowdFunding.sol\":669:714  require(msg.sender == owner, \"Not the owner\") */\n      tag_139\n      jumpi\n      mload(0x40)\n      0x08c379a000000000000000000000000000000000000000000000000000000000\n      dup2\n      mstore\n      0x04\n      add\n      tag_140\n      swap1\n      tag_141\n      jump\t// in\n    tag_140:\n      mload(0x40)\n      dup1\n      swap2\n      sub\n      swap1\n      revert\n    tag_139:\n        /* \"contracts/CrowdFunding.sol\":2705:2734  checkAndUpdateCampaignState() */\n      tag_143\n        /* \"contracts/CrowdFunding.sol\":2705:2732  checkAndUpdateCampaignState */\n      tag_144\n        /* \"contracts/CrowdFunding.sol\":2705:2734  checkAndUpdateCampaignState() */\n      jump\t// in\n    tag_143:\n        /* \"contracts/CrowdFunding.sol\":2762:2786  CampaignState.Successful */\n      0x01\n        /* \"contracts/CrowdFunding.sol\":2753:2786  state == CampaignState.Successful */\n      0x02\n      dup2\n      gt\n      iszero\n      tag_145\n      jumpi\n      tag_146\n      tag_131\n      jump\t// in\n    tag_146:\n    tag_145:\n        /* \"contracts/CrowdFunding.sol\":2753:2758  state */\n      0x04\n      0x15\n      swap1\n      sload\n      swap1\n      0x0100\n      exp\n      swap1\n      div\n      0xff\n      and\n        /* \"contracts/CrowdFunding.sol\":2753:2786  state == CampaignState.Successful */\n      0x02\n      dup2\n      gt\n      iszero\n      tag_147\n      jumpi\n      tag_148\n      tag_131\n      jump\t// in\n    tag_148:\n    tag_147:\n      eq\n        /* \"contracts/CrowdFunding.sol\":2745:2817  require(state == CampaignState.Successful, \"Campaign is not successful\") */\n      tag_149\n      jumpi\n      mload(0x40)\n      0x08c379a000000000000000000000000000000000000000000000000000000000\n      dup2\n      mstore\n      0x04\n      add\n      tag_150\n      swap1\n      tag_151\n      jump\t// in\n    tag_150:\n      mload(0x40)\n      dup1\n      swap2\n      sub\n      swap1\n      revert\n    tag_149:\n        /* \"contracts/CrowdFunding.sol\":2830:2845  uint256 balance */\n      0x00\n        /* \"contracts/CrowdFunding.sol\":2848:2869  address(this).balance */\n      selfbalance\n        /* \"contracts/CrowdFunding.sol\":2830:2869  uint256 balance = address(this).balance */\n      swap1\n      pop\n        /* \"contracts/CrowdFunding.sol\":2898:2899  0 */\n      0x00\n        /* \"contracts/CrowdFunding.sol\":2888:2895  balance */\n      dup2\n        /* \"contracts/CrowdFunding.sol\":2888:2899  balance > 0 */\n      gt\n        /* \"contracts/CrowdFunding.sol\":2880:2926  require(balance > 0, \"No balance to withdraw\") */\n      tag_152\n      jumpi\n      mload(0x40)\n      0x08c379a000000000000000000000000000000000000000000000000000000000\n      dup2\n      mstore\n      0x04\n      add\n      tag_153\n      swap1\n      tag_154\n      jump\t// in\n    tag_153:\n      mload(0x40)\n      dup1\n      swap2\n      sub\n      swap1\n      revert\n    tag_152:\n        /* \"contracts/CrowdFunding.sol\":2947:2952  owner */\n      0x04\n      0x00\n      swap1\n      sload\n      swap1\n      0x0100\n      exp\n      swap1\n      div\n      0xffffffffffffffffffffffffffffffffffffffff\n      and\n        /* \"contracts/CrowdFunding.sol\":2939:2962  payable(owner).transfer */\n      0xffffffffffffffffffffffffffffffffffffffff\n      and\n        /* \"contracts/CrowdFunding.sol\":2939:2971  payable(owner).transfer(balance) */\n      0x08fc\n        /* \"contracts/CrowdFunding.sol\":2963:2970  balance */\n      dup3\n        /* \"contracts/CrowdFunding.sol\":2939:2971  payable(owner).transfer(balance) */\n      swap1\n      dup2\n      iszero\n      mul\n      swap1\n      mload(0x40)\n      0x00\n      mload(0x40)\n      dup1\n      dup4\n      sub\n      dup2\n      dup6\n      dup9\n      dup9\n      call\n      swap4\n      pop\n      pop\n      pop\n      pop\n      iszero\n      dup1\n      iszero\n      tag_156\n      jumpi\n      returndatasize\n      0x00\n      dup1\n      returndatacopy\n      revert(0x00, returndatasize)\n    tag_156:\n      pop\n        /* \"contracts/CrowdFunding.sol\":2694:2979  {... */\n      pop\n        /* \"contracts/CrowdFunding.sol\":2654:2979  function withdraw()  public onlyOwner() {... */\n      jump\t// out\n        /* \"contracts/CrowdFunding.sol\":148:167  uint256 public goal */\n    tag_52:\n      sload(0x02)\n      dup2\n      jump\t// out\n        /* \"contracts/CrowdFunding.sol\":3107:3481  function refund() public {... */\n    tag_56:\n        /* \"contracts/CrowdFunding.sol\":3143:3172  checkAndUpdateCampaignState() */\n      tag_158\n        /* \"contracts/CrowdFunding.sol\":3143:3170  checkAndUpdateCampaignState */\n      tag_144\n        /* \"contracts/CrowdFunding.sol\":3143:3172  checkAndUpdateCampaignState() */\n      jump\t// in\n    tag_158:\n        /* \"contracts/CrowdFunding.sol\":3259:3273  uint256 amount */\n      0x00\n        /* \"contracts/CrowdFunding.sol\":3276:3283  backers */\n      0x06\n        /* \"contracts/CrowdFunding.sol\":3276:3295  backers[msg.sender] */\n      0x00\n        /* \"contracts/CrowdFunding.sol\":3284:3294  msg.sender */\n      caller\n        /* \"contracts/CrowdFunding.sol\":3276:3295  backers[msg.sender] */\n      0xffffffffffffffffffffffffffffffffffffffff\n      and\n      0xffffffffffffffffffffffffffffffffffffffff\n      and\n      dup2\n      mstore\n      0x20\n      add\n      swap1\n      dup2\n      mstore\n      0x20\n      add\n      0x00\n      keccak256\n        /* \"contracts/CrowdFunding.sol\":3276:3313  backers[msg.sender].totalContrubution */\n      0x00\n      add\n      sload\n        /* \"contracts/CrowdFunding.sol\":3259:3313  uint256 amount = backers[msg.sender].totalContrubution */\n      swap1\n      pop\n        /* \"contracts/CrowdFunding.sol\":3341:3342  0 */\n      0x00\n        /* \"contracts/CrowdFunding.sol\":3332:3338  amount */\n      dup2\n        /* \"contracts/CrowdFunding.sol\":3332:3342  amount > 0 */\n      gt\n        /* \"contracts/CrowdFunding.sol\":3324:3372  require(amount > 0, \"No Contribution to refund\") */\n      tag_159\n      jumpi\n      mload(0x40)\n      0x08c379a000000000000000000000000000000000000000000000000000000000\n      dup2\n      mstore\n      0x04\n      add\n      tag_160\n      swap1\n      tag_161\n      jump\t// in\n    tag_160:\n      mload(0x40)\n      dup1\n      swap2\n      sub\n      swap1\n      revert\n    tag_159:\n        /* \"contracts/CrowdFunding.sol\":3425:3426  0 */\n      0x00\n        /* \"contracts/CrowdFunding.sol\":3385:3392  backers */\n      0x06\n        /* \"contracts/CrowdFunding.sol\":3385:3404  backers[msg.sender] */\n      0x00\n        /* \"contracts/CrowdFunding.sol\":3393:3403  msg.sender */\n      caller\n        /* \"contracts/CrowdFunding.sol\":3385:3404  backers[msg.sender] */\n      0xffffffffffffffffffffffffffffffffffffffff\n      and\n      0xffffffffffffffffffffffffffffffffffffffff\n      and\n      dup2\n      mstore\n      0x20\n      add\n      swap1\n      dup2\n      mstore\n      0x20\n      add\n      0x00\n      keccak256\n        /* \"contracts/CrowdFunding.sol\":3385:3422  backers[msg.sender].totalContrubution */\n      0x00\n      add\n        /* \"contracts/CrowdFunding.sol\":3385:3426  backers[msg.sender].totalContrubution = 0 */\n      dup2\n      swap1\n      sstore\n      pop\n        /* \"contracts/CrowdFunding.sol\":3445:3455  msg.sender */\n      caller\n        /* \"contracts/CrowdFunding.sol\":3437:3465  payable(msg.sender).transfer */\n      0xffffffffffffffffffffffffffffffffffffffff\n      and\n        /* \"contracts/CrowdFunding.sol\":3437:3473  payable(msg.sender).transfer(amount) */\n      0x08fc\n        /* \"contracts/CrowdFunding.sol\":3466:3472  amount */\n      dup3\n        /* \"contracts/CrowdFunding.sol\":3437:3473  payable(msg.sender).transfer(amount) */\n      swap1\n      dup2\n      iszero\n      mul\n      swap1\n      mload(0x40)\n      0x00\n      mload(0x40)\n      dup1\n      dup4\n      sub\n      dup2\n      dup6\n      dup9\n      dup9\n      call\n      swap4\n      pop\n      pop\n      pop\n      pop\n      iszero\n      dup1\n      iszero\n      tag_163\n      jumpi\n      returndatasize\n      0x00\n      dup1\n      returndatacopy\n      revert(0x00, returndatasize)\n    tag_163:\n      pop\n        /* \"contracts/CrowdFunding.sol\":3132:3481  {... */\n      pop\n        /* \"contracts/CrowdFunding.sol\":3107:3481  function refund() public {... */\n      jump\t// out\n        /* \"contracts/CrowdFunding.sol\":231:249  bool public paused */\n    tag_59:\n      0x04\n      0x14\n      swap1\n      sload\n      swap1\n      0x0100\n      exp\n      swap1\n      div\n      0xff\n      and\n      dup2\n      jump\t// out\n        /* \"contracts/CrowdFunding.sol\":4131:4255  function extendDeadLine(uint256 _daysToAdd) public onlyOwner campaignOpen {... */\n    tag_65:\n        /* \"contracts/CrowdFunding.sol\":691:696  owner */\n      0x04\n      0x00\n      swap1\n      sload\n      swap1\n      0x0100\n      exp\n      swap1\n      div\n      0xffffffffffffffffffffffffffffffffffffffff\n      and\n        /* \"contracts/CrowdFunding.sol\":677:696  msg.sender == owner */\n      0xffffffffffffffffffffffffffffffffffffffff\n      and\n        /* \"contracts/CrowdFunding.sol\":677:687  msg.sender */\n      caller\n        /* \"contracts/CrowdFunding.sol\":677:696  msg.sender == owner */\n      0xffffffffffffffffffffffffffffffffffffffff\n      and\n      eq\n        /* \"contracts/CrowdFunding.sol\":669:714  require(msg.sender == owner, \"Not the owner\") */\n      tag_165\n      jumpi\n      mload(0x40)\n      0x08c379a000000000000000000000000000000000000000000000000000000000\n      dup2\n      mstore\n      0x04\n      add\n      tag_166\n      swap1\n      tag_141\n      jump\t// in\n    tag_166:\n      mload(0x40)\n      dup1\n      swap2\n      sub\n      swap1\n      revert\n    tag_165:\n        /* \"contracts/CrowdFunding.sol\":794:814  CampaignState.Active */\n      0x00\n        /* \"contracts/CrowdFunding.sol\":785:814  state == CampaignState.Active */\n      0x02\n      dup2\n      gt\n      iszero\n      tag_168\n      jumpi\n      tag_169\n      tag_131\n      jump\t// in\n    tag_169:\n    tag_168:\n        /* \"contracts/CrowdFunding.sol\":785:790  state */\n      0x04\n      0x15\n      swap1\n      sload\n      swap1\n      0x0100\n      exp\n      swap1\n      div\n      0xff\n      and\n        /* \"contracts/CrowdFunding.sol\":785:814  state == CampaignState.Active */\n      0x02\n      dup2\n      gt\n      iszero\n      tag_170\n      jumpi\n      tag_171\n      tag_131\n      jump\t// in\n    tag_171:\n    tag_170:\n      eq\n        /* \"contracts/CrowdFunding.sol\":777:841  require(state == CampaignState.Active, \"Campaign is not active\") */\n      tag_172\n      jumpi\n      mload(0x40)\n      0x08c379a000000000000000000000000000000000000000000000000000000000\n      dup2\n      mstore\n      0x04\n      add\n      tag_173\n      swap1\n      tag_174\n      jump\t// in\n    tag_173:\n      mload(0x40)\n      dup1\n      swap2\n      sub\n      swap1\n      revert\n    tag_172:\n        /* \"contracts/CrowdFunding.sol\":4241:4247  1 days */\n      0x015180\n        /* \"contracts/CrowdFunding.sol\":4228:4238  _daysToAdd */\n      dup2\n        /* \"contracts/CrowdFunding.sol\":4228:4247  _daysToAdd * 1 days */\n      tag_176\n      swap2\n      swap1\n      tag_177\n      jump\t// in\n    tag_176:\n        /* \"contracts/CrowdFunding.sol\":4216:4224  deadline */\n      0x03\n      0x00\n        /* \"contracts/CrowdFunding.sol\":4216:4247  deadline += _daysToAdd * 1 days */\n      dup3\n      dup3\n      sload\n      tag_178\n      swap2\n      swap1\n      tag_179\n      jump\t// in\n    tag_178:\n      swap3\n      pop\n      pop\n      dup2\n      swap1\n      sstore\n      pop\n        /* \"contracts/CrowdFunding.sol\":4131:4255  function extendDeadLine(uint256 _daysToAdd) public onlyOwner campaignOpen {... */\n      pop\n      jump\t// out\n        /* \"contracts/CrowdFunding.sol\":2991:3099  function getContractBalance()  public view returns (uint256) {... */\n    tag_68:\n        /* \"contracts/CrowdFunding.sol\":3043:3050  uint256 */\n      0x00\n        /* \"contracts/CrowdFunding.sol\":3070:3091  address(this).balance */\n      selfbalance\n        /* \"contracts/CrowdFunding.sol\":3063:3091  return address(this).balance */\n      swap1\n      pop\n        /* \"contracts/CrowdFunding.sol\":2991:3099  function getContractBalance()  public view returns (uint256) {... */\n      swap1\n      jump\t// out\n        /* \"contracts/CrowdFunding.sol\":116:141  string public description */\n    tag_72:\n      0x01\n      dup1\n      sload\n      tag_181\n      swap1\n      tag_118\n      jump\t// in\n    tag_181:\n      dup1\n      0x1f\n      add\n      0x20\n      dup1\n      swap2\n      div\n      mul\n      0x20\n      add\n      mload(0x40)\n      swap1\n      dup2\n      add\n      0x40\n      mstore\n      dup1\n      swap3\n      swap2\n      swap1\n      dup2\n      dup2\n      mstore\n      0x20\n      add\n      dup3\n      dup1\n      sload\n      tag_182\n      swap1\n      tag_118\n      jump\t// in\n    tag_182:\n      dup1\n      iszero\n      tag_183\n      jumpi\n      dup1\n      0x1f\n      lt\n      tag_184\n      jumpi\n      0x0100\n      dup1\n      dup4\n      sload\n      div\n      mul\n      dup4\n      mstore\n      swap2\n      0x20\n      add\n      swap2\n      jump(tag_183)\n    tag_184:\n      dup3\n      add\n      swap2\n      swap1\n      0x00\n      mstore\n      keccak256(0x00, 0x20)\n      swap1\n    tag_185:\n      dup2\n      sload\n      dup2\n      mstore\n      swap1\n      0x01\n      add\n      swap1\n      0x20\n      add\n      dup1\n      dup4\n      gt\n      tag_185\n      jumpi\n      dup3\n      swap1\n      sub\n      0x1f\n      and\n      dup3\n      add\n      swap2\n    tag_183:\n      pop\n      pop\n      pop\n      pop\n      pop\n      dup2\n      jump\t// out\n        /* \"contracts/CrowdFunding.sol\":2449:2646  function removeTier(uint256 _index) public onlyOwner {... */\n    tag_77:\n        /* \"contracts/CrowdFunding.sol\":691:696  owner */\n      0x04\n      0x00\n      swap1\n      sload\n      swap1\n      0x0100\n      exp\n      swap1\n      div\n      0xffffffffffffffffffffffffffffffffffffffff\n      and\n        /* \"contracts/CrowdFunding.sol\":677:696  msg.sender == owner */\n      0xffffffffffffffffffffffffffffffffffffffff\n      and\n        /* \"contracts/CrowdFunding.sol\":677:687  msg.sender */\n      caller\n        /* \"contracts/CrowdFunding.sol\":677:696  msg.sender == owner */\n      0xffffffffffffffffffffffffffffffffffffffff\n      and\n      eq\n        /* \"contracts/CrowdFunding.sol\":669:714  require(msg.sender == owner, \"Not the owner\") */\n      tag_187\n      jumpi\n      mload(0x40)\n      0x08c379a000000000000000000000000000000000000000000000000000000000\n      dup2\n      mstore\n      0x04\n      add\n      tag_188\n      swap1\n      tag_141\n      jump\t// in\n    tag_188:\n      mload(0x40)\n      dup1\n      swap2\n      sub\n      swap1\n      revert\n    tag_187:\n        /* \"contracts/CrowdFunding.sol\":2530:2535  tiers */\n      0x05\n        /* \"contracts/CrowdFunding.sol\":2530:2542  tiers.length */\n      dup1\n      sload\n      swap1\n      pop\n        /* \"contracts/CrowdFunding.sol\":2521:2527  _index */\n      dup2\n        /* \"contracts/CrowdFunding.sol\":2521:2542  _index < tiers.length */\n      lt\n        /* \"contracts/CrowdFunding.sol\":2513:2566  require(_index < tiers.length, \"Tiers does not exit\") */\n      tag_190\n      jumpi\n      mload(0x40)\n      0x08c379a000000000000000000000000000000000000000000000000000000000\n      dup2\n      mstore\n      0x04\n      add\n      tag_191\n      swap1\n      tag_192\n      jump\t// in\n    tag_191:\n      mload(0x40)\n      dup1\n      swap2\n      sub\n      swap1\n      revert\n    tag_190:\n        /* \"contracts/CrowdFunding.sol\":2593:2598  tiers */\n      0x05\n        /* \"contracts/CrowdFunding.sol\":2614:2615  1 */\n      0x01\n        /* \"contracts/CrowdFunding.sol\":2599:2604  tiers */\n      0x05\n        /* \"contracts/CrowdFunding.sol\":2599:2611  tiers.length */\n      dup1\n      sload\n      swap1\n      pop\n        /* \"contracts/CrowdFunding.sol\":2599:2615  tiers.length - 1 */\n      tag_193\n      swap2\n      swap1\n      tag_194\n      jump\t// in\n    tag_193:\n        /* \"contracts/CrowdFunding.sol\":2593:2616  tiers[tiers.length - 1] */\n      dup2\n      sload\n      dup2\n      lt\n      tag_195\n      jumpi\n      tag_196\n      tag_197\n      jump\t// in\n    tag_196:\n    tag_195:\n      swap1\n      0x00\n      mstore\n      keccak256(0x00, 0x20)\n      swap1\n      0x03\n      mul\n      add\n        /* \"contracts/CrowdFunding.sol\":2577:2582  tiers */\n      0x05\n        /* \"contracts/CrowdFunding.sol\":2583:2589  _index */\n      dup3\n        /* \"contracts/CrowdFunding.sol\":2577:2590  tiers[_index] */\n      dup2\n      sload\n      dup2\n      lt\n      tag_199\n      jumpi\n      tag_200\n      tag_197\n      jump\t// in\n    tag_200:\n    tag_199:\n      swap1\n      0x00\n      mstore\n      keccak256(0x00, 0x20)\n      swap1\n      0x03\n      mul\n      add\n        /* \"contracts/CrowdFunding.sol\":2577:2616  tiers[_index] = tiers[tiers.length - 1] */\n      0x00\n      dup3\n      add\n      dup2\n      0x00\n      add\n      swap1\n      dup2\n      tag_202\n      swap2\n      swap1\n      tag_203\n      jump\t// in\n    tag_202:\n      pop\n      0x01\n      dup3\n      add\n      sload\n      dup2\n      0x01\n      add\n      sstore\n      0x02\n      dup3\n      add\n      sload\n      dup2\n      0x02\n      add\n      sstore\n      swap1\n      pop\n      pop\n        /* \"contracts/CrowdFunding.sol\":2627:2632  tiers */\n      0x05\n        /* \"contracts/CrowdFunding.sol\":2627:2638  tiers.pop() */\n      dup1\n      sload\n      dup1\n      tag_204\n      jumpi\n      tag_205\n      tag_206\n      jump\t// in\n    tag_205:\n    tag_204:\n      0x01\n      swap1\n      sub\n      dup2\n      dup2\n      swap1\n      0x00\n      mstore\n      keccak256(0x00, 0x20)\n      swap1\n      0x03\n      mul\n      add\n      0x00\n      dup1\n      dup3\n      add\n      0x00\n      tag_208\n      swap2\n      swap1\n      tag_209\n      jump\t// in\n    tag_208:\n      0x01\n      dup3\n      add\n      0x00\n      swap1\n      sstore\n      0x02\n      dup3\n      add\n      0x00\n      swap1\n      sstore\n      pop\n      pop\n      swap1\n      sstore\n        /* \"contracts/CrowdFunding.sol\":2449:2646  function removeTier(uint256 _index) public onlyOwner {... */\n      pop\n      jump\t// out\n        /* \"contracts/CrowdFunding.sol\":3489:3642  function hasFundedTier(address _backer, uint256 _tierIndex) public view returns (bool) {... */\n    tag_82:\n        /* \"contracts/CrowdFunding.sol\":3570:3574  bool */\n      0x00\n        /* \"contracts/CrowdFunding.sol\":3594:3601  backers */\n      0x06\n        /* \"contracts/CrowdFunding.sol\":3594:3610  backers[_backer] */\n      0x00\n        /* \"contracts/CrowdFunding.sol\":3602:3609  _backer */\n      dup5\n        /* \"contracts/CrowdFunding.sol\":3594:3610  backers[_backer] */\n      0xffffffffffffffffffffffffffffffffffffffff\n      and\n      0xffffffffffffffffffffffffffffffffffffffff\n      and\n      dup2\n      mstore\n      0x20\n      add\n      swap1\n      dup2\n      mstore\n      0x20\n      add\n      0x00\n      keccak256\n        /* \"contracts/CrowdFunding.sol\":3594:3622  backers[_backer].fundedTiers */\n      0x01\n      add\n        /* \"contracts/CrowdFunding.sol\":3594:3634  backers[_backer].fundedTiers[_tierIndex] */\n      0x00\n        /* \"contracts/CrowdFunding.sol\":3623:3633  _tierIndex */\n      dup4\n        /* \"contracts/CrowdFunding.sol\":3594:3634  backers[_backer].fundedTiers[_tierIndex] */\n      dup2\n      mstore\n      0x20\n      add\n      swap1\n      dup2\n      mstore\n      0x20\n      add\n      0x00\n      keccak256\n      0x00\n      swap1\n      sload\n      swap1\n      0x0100\n      exp\n      swap1\n      div\n      0xff\n      and\n        /* \"contracts/CrowdFunding.sol\":3587:3634  return backers[_backer].fundedTiers[_tierIndex] */\n      swap1\n      pop\n        /* \"contracts/CrowdFunding.sol\":3489:3642  function hasFundedTier(address _backer, uint256 _tierIndex) public view returns (bool) {... */\n      swap3\n      swap2\n      pop\n      pop\n      jump\t// out\n        /* \"contracts/CrowdFunding.sol\":204:224  address public owner */\n    tag_86:\n      0x04\n      0x00\n      swap1\n      sload\n      swap1\n      0x0100\n      exp\n      swap1\n      div\n      0xffffffffffffffffffffffffffffffffffffffff\n      and\n      dup2\n      jump\t// out\n        /* \"contracts/CrowdFunding.sol\":2215:2441  function addTier(... */\n    tag_93:\n        /* \"contracts/CrowdFunding.sol\":691:696  owner */\n      0x04\n      0x00\n      swap1\n      sload\n      swap1\n      0x0100\n      exp\n      swap1\n      div\n      0xffffffffffffffffffffffffffffffffffffffff\n      and\n        /* \"contracts/CrowdFunding.sol\":677:696  msg.sender == owner */\n      0xffffffffffffffffffffffffffffffffffffffff\n      and\n        /* \"contracts/CrowdFunding.sol\":677:687  msg.sender */\n      caller\n        /* \"contracts/CrowdFunding.sol\":677:696  msg.sender == owner */\n      0xffffffffffffffffffffffffffffffffffffffff\n      and\n      eq\n        /* \"contracts/CrowdFunding.sol\":669:714  require(msg.sender == owner, \"Not the owner\") */\n      tag_212\n      jumpi\n      mload(0x40)\n      0x08c379a000000000000000000000000000000000000000000000000000000000\n      dup2\n      mstore\n      0x04\n      add\n      tag_213\n      swap1\n      tag_141\n      jump\t// in\n    tag_213:\n      mload(0x40)\n      dup1\n      swap2\n      sub\n      swap1\n      revert\n    tag_212:\n        /* \"contracts/CrowdFunding.sol\":2351:2352  0 */\n      0x00\n        /* \"contracts/CrowdFunding.sol\":2341:2348  _amount */\n      dup2\n        /* \"contracts/CrowdFunding.sol\":2341:2352  _amount > 0 */\n      gt\n        /* \"contracts/CrowdFunding.sol\":2333:2387  require(_amount > 0, \"Amount must be greater than 0.\") */\n      tag_215\n      jumpi\n      mload(0x40)\n      0x08c379a000000000000000000000000000000000000000000000000000000000\n      dup2\n      mstore\n      0x04\n      add\n      tag_216\n      swap1\n      tag_217\n      jump\t// in\n    tag_216:\n      mload(0x40)\n      dup1\n      swap2\n      sub\n      swap1\n      revert\n    tag_215:\n        /* \"contracts/CrowdFunding.sol\":2398:2403  tiers */\n      0x05\n        /* \"contracts/CrowdFunding.sol\":2409:2432  Tier(_name, _amount, 0) */\n      mload(0x40)\n      dup1\n      0x60\n      add\n      0x40\n      mstore\n      dup1\n        /* \"contracts/CrowdFunding.sol\":2414:2419  _name */\n      dup5\n        /* \"contracts/CrowdFunding.sol\":2409:2432  Tier(_name, _amount, 0) */\n      dup2\n      mstore\n      0x20\n      add\n        /* \"contracts/CrowdFunding.sol\":2421:2428  _amount */\n      dup4\n        /* \"contracts/CrowdFunding.sol\":2409:2432  Tier(_name, _amount, 0) */\n      dup2\n      mstore\n      0x20\n      add\n        /* \"contracts/CrowdFunding.sol\":2430:2431  0 */\n      0x00\n        /* \"contracts/CrowdFunding.sol\":2409:2432  Tier(_name, _amount, 0) */\n      dup2\n      mstore\n      pop\n        /* \"contracts/CrowdFunding.sol\":2398:2433  tiers.push(Tier(_name, _amount, 0)) */\n      swap1\n      dup1\n      0x01\n      dup2\n      sload\n      add\n      dup1\n      dup3\n      sstore\n      dup1\n      swap2\n      pop\n      pop\n      0x01\n      swap1\n      sub\n      swap1\n      0x00\n      mstore\n      keccak256(0x00, 0x20)\n      swap1\n      0x03\n      mul\n      add\n      0x00\n      swap1\n      swap2\n      swap1\n      swap2\n      swap1\n      swap2\n      pop\n      0x00\n      dup3\n      add\n      mload\n      dup2\n      0x00\n      add\n      swap1\n      dup2\n      tag_219\n      swap2\n      swap1\n      tag_220\n      jump\t// in\n    tag_219:\n      pop\n      0x20\n      dup3\n      add\n      mload\n      dup2\n      0x01\n      add\n      sstore\n      0x40\n      dup3\n      add\n      mload\n      dup2\n      0x02\n      add\n      sstore\n      pop\n      pop\n        /* \"contracts/CrowdFunding.sol\":2215:2441  function addTier(... */\n      pop\n      pop\n      jump\t// out\n        /* \"contracts/CrowdFunding.sol\":587:628  mapping(address => Backer) public backers */\n    tag_98:\n      mstore(0x20, 0x06)\n      dup1\n      0x00\n      mstore\n      keccak256(0x00, 0x40)\n      0x00\n      swap2\n      pop\n      swap1\n      pop\n      dup1\n      0x00\n      add\n      sload\n      swap1\n      pop\n      dup2\n      jump\t// out\n        /* \"contracts/CrowdFunding.sol\":312:338  CampaignState public state */\n    tag_102:\n      0x04\n      0x15\n      swap1\n      sload\n      swap1\n      0x0100\n      exp\n      swap1\n      div\n      0xff\n      and\n      dup2\n      jump\t// out\n        /* \"contracts/CrowdFunding.sol\":3745:3823  function togglePause()  public onlyOwner {... */\n    tag_106:\n        /* \"contracts/CrowdFunding.sol\":691:696  owner */\n      0x04\n      0x00\n      swap1\n      sload\n      swap1\n      0x0100\n      exp\n      swap1\n      div\n      0xffffffffffffffffffffffffffffffffffffffff\n      and\n        /* \"contracts/CrowdFunding.sol\":677:696  msg.sender == owner */\n      0xffffffffffffffffffffffffffffffffffffffff\n      and\n        /* \"contracts/CrowdFunding.sol\":677:687  msg.sender */\n      caller\n        /* \"contracts/CrowdFunding.sol\":677:696  msg.sender == owner */\n      0xffffffffffffffffffffffffffffffffffffffff\n      and\n      eq\n        /* \"contracts/CrowdFunding.sol\":669:714  require(msg.sender == owner, \"Not the owner\") */\n      tag_222\n      jumpi\n      mload(0x40)\n      0x08c379a000000000000000000000000000000000000000000000000000000000\n      dup2\n      mstore\n      0x04\n      add\n      tag_223\n      swap1\n      tag_141\n      jump\t// in\n    tag_223:\n      mload(0x40)\n      dup1\n      swap2\n      sub\n      swap1\n      revert\n    tag_222:\n        /* \"contracts/CrowdFunding.sol\":3807:3813  paused */\n      0x04\n      0x14\n      swap1\n      sload\n      swap1\n      0x0100\n      exp\n      swap1\n      div\n      0xff\n      and\n        /* \"contracts/CrowdFunding.sol\":3806:3813  !paused */\n      iszero\n        /* \"contracts/CrowdFunding.sol\":3797:3803  paused */\n      0x04\n      0x14\n        /* \"contracts/CrowdFunding.sol\":3797:3813  paused = !paused */\n      0x0100\n      exp\n      dup2\n      sload\n      dup2\n      0xff\n      mul\n      not\n      and\n      swap1\n      dup4\n      iszero\n      iszero\n      mul\n      or\n      swap1\n      sstore\n      pop\n        /* \"contracts/CrowdFunding.sol\":3745:3823  function togglePause()  public onlyOwner {... */\n      jump\t// out\n        /* \"contracts/CrowdFunding.sol\":1783:2207  function fund(uint256 _tierIndex)  public payable campaignOpen notPaused{... */\n    tag_109:\n        /* \"contracts/CrowdFunding.sol\":794:814  CampaignState.Active */\n      0x00\n        /* \"contracts/CrowdFunding.sol\":785:814  state == CampaignState.Active */\n      0x02\n      dup2\n      gt\n      iszero\n      tag_226\n      jumpi\n      tag_227\n      tag_131\n      jump\t// in\n    tag_227:\n    tag_226:\n        /* \"contracts/CrowdFunding.sol\":785:790  state */\n      0x04\n      0x15\n      swap1\n      sload\n      swap1\n      0x0100\n      exp\n      swap1\n      div\n      0xff\n      and\n        /* \"contracts/CrowdFunding.sol\":785:814  state == CampaignState.Active */\n      0x02\n      dup2\n      gt\n      iszero\n      tag_228\n      jumpi\n      tag_229\n      tag_131\n      jump\t// in\n    tag_229:\n    tag_228:\n      eq\n        /* \"contracts/CrowdFunding.sol\":777:841  require(state == CampaignState.Active, \"Campaign is not active\") */\n      tag_230\n      jumpi\n      mload(0x40)\n      0x08c379a000000000000000000000000000000000000000000000000000000000\n      dup2\n      mstore\n      0x04\n      add\n      tag_231\n      swap1\n      tag_174\n      jump\t// in\n    tag_231:\n      mload(0x40)\n      dup1\n      swap2\n      sub\n      swap1\n      revert\n    tag_230:\n        /* \"contracts/CrowdFunding.sol\":910:916  paused */\n      0x04\n      0x14\n      swap1\n      sload\n      swap1\n      0x0100\n      exp\n      swap1\n      div\n      0xff\n      and\n        /* \"contracts/CrowdFunding.sol\":909:916  !paused */\n      iszero\n        /* \"contracts/CrowdFunding.sol\":901:939  require(!paused, \"Contract is paused\") */\n      tag_233\n      jumpi\n      mload(0x40)\n      0x08c379a000000000000000000000000000000000000000000000000000000000\n      dup2\n      mstore\n      0x04\n      add\n      tag_234\n      swap1\n      tag_235\n      jump\t// in\n    tag_234:\n      mload(0x40)\n      dup1\n      swap2\n      sub\n      swap1\n      revert\n    tag_233:\n        /* \"contracts/CrowdFunding.sol\":1889:1894  tiers */\n      0x05\n        /* \"contracts/CrowdFunding.sol\":1889:1901  tiers.length */\n      dup1\n      sload\n      swap1\n      pop\n        /* \"contracts/CrowdFunding.sol\":1876:1886  _tierIndex */\n      dup2\n        /* \"contracts/CrowdFunding.sol\":1876:1901  _tierIndex < tiers.length */\n      lt\n        /* \"contracts/CrowdFunding.sol\":1868:1919  require(_tierIndex < tiers.length, \"Invalid tier.\") */\n      tag_237\n      jumpi\n      mload(0x40)\n      0x08c379a000000000000000000000000000000000000000000000000000000000\n      dup2\n      mstore\n      0x04\n      add\n      tag_238\n      swap1\n      tag_239\n      jump\t// in\n    tag_238:\n      mload(0x40)\n      dup1\n      swap2\n      sub\n      swap1\n      revert\n    tag_237:\n        /* \"contracts/CrowdFunding.sol\":1951:1956  tiers */\n      0x05\n        /* \"contracts/CrowdFunding.sol\":1957:1967  _tierIndex */\n      dup2\n        /* \"contracts/CrowdFunding.sol\":1951:1968  tiers[_tierIndex] */\n      dup2\n      sload\n      dup2\n      lt\n      tag_240\n      jumpi\n      tag_241\n      tag_197\n      jump\t// in\n    tag_241:\n    tag_240:\n      swap1\n      0x00\n      mstore\n      keccak256(0x00, 0x20)\n      swap1\n      0x03\n      mul\n      add\n        /* \"contracts/CrowdFunding.sol\":1951:1975  tiers[_tierIndex].amount */\n      0x01\n      add\n      sload\n        /* \"contracts/CrowdFunding.sol\":1938:1947  msg.value */\n      callvalue\n        /* \"contracts/CrowdFunding.sol\":1938:1975  msg.value == tiers[_tierIndex].amount */\n      eq\n        /* \"contracts/CrowdFunding.sol\":1930:1995  require(msg.value == tiers[_tierIndex].amount, \"Invalid amount.\") */\n      tag_243\n      jumpi\n      mload(0x40)\n      0x08c379a000000000000000000000000000000000000000000000000000000000\n      dup2\n      mstore\n      0x04\n      add\n      tag_244\n      swap1\n      tag_245\n      jump\t// in\n    tag_244:\n      mload(0x40)\n      dup1\n      swap2\n      sub\n      swap1\n      revert\n    tag_243:\n        /* \"contracts/CrowdFunding.sol\":2008:2013  tiers */\n      0x05\n        /* \"contracts/CrowdFunding.sol\":2014:2024  _tierIndex */\n      dup2\n        /* \"contracts/CrowdFunding.sol\":2008:2025  tiers[_tierIndex] */\n      dup2\n      sload\n      dup2\n      lt\n      tag_246\n      jumpi\n      tag_247\n      tag_197\n      jump\t// in\n    tag_247:\n    tag_246:\n      swap1\n      0x00\n      mstore\n      keccak256(0x00, 0x20)\n      swap1\n      0x03\n      mul\n      add\n        /* \"contracts/CrowdFunding.sol\":2008:2033  tiers[_tierIndex].backers */\n      0x02\n      add\n      0x00\n        /* \"contracts/CrowdFunding.sol\":2008:2035  tiers[_tierIndex].backers++ */\n      dup2\n      sload\n      dup1\n      swap3\n      swap2\n      swap1\n      tag_249\n      swap1\n      tag_250\n      jump\t// in\n    tag_249:\n      swap2\n      swap1\n      pop\n      sstore\n      pop\n        /* \"contracts/CrowdFunding.sol\":2087:2096  msg.value */\n      callvalue\n        /* \"contracts/CrowdFunding.sol\":2046:2053  backers */\n      0x06\n        /* \"contracts/CrowdFunding.sol\":2046:2065  backers[msg.sender] */\n      0x00\n        /* \"contracts/CrowdFunding.sol\":2054:2064  msg.sender */\n      caller\n        /* \"contracts/CrowdFunding.sol\":2046:2065  backers[msg.sender] */\n      0xffffffffffffffffffffffffffffffffffffffff\n      and\n      0xffffffffffffffffffffffffffffffffffffffff\n      and\n      dup2\n      mstore\n      0x20\n      add\n      swap1\n      dup2\n      mstore\n      0x20\n      add\n      0x00\n      keccak256\n        /* \"contracts/CrowdFunding.sol\":2046:2083  backers[msg.sender].totalContrubution */\n      0x00\n      add\n      0x00\n        /* \"contracts/CrowdFunding.sol\":2046:2096  backers[msg.sender].totalContrubution += msg.value */\n      dup3\n      dup3\n      sload\n      tag_251\n      swap2\n      swap1\n      tag_179\n      jump\t// in\n    tag_251:\n      swap3\n      pop\n      pop\n      dup2\n      swap1\n      sstore\n      pop\n        /* \"contracts/CrowdFunding.sol\":2153:2157  true */\n      0x01\n        /* \"contracts/CrowdFunding.sol\":2107:2114  backers */\n      0x06\n        /* \"contracts/CrowdFunding.sol\":2107:2126  backers[msg.sender] */\n      0x00\n        /* \"contracts/CrowdFunding.sol\":2115:2125  msg.sender */\n      caller\n        /* \"contracts/CrowdFunding.sol\":2107:2126  backers[msg.sender] */\n      0xffffffffffffffffffffffffffffffffffffffff\n      and\n      0xffffffffffffffffffffffffffffffffffffffff\n      and\n      dup2\n      mstore\n      0x20\n      add\n      swap1\n      dup2\n      mstore\n      0x20\n      add\n      0x00\n      keccak256\n        /* \"contracts/CrowdFunding.sol\":2107:2138  backers[msg.sender].fundedTiers */\n      0x01\n      add\n        /* \"contracts/CrowdFunding.sol\":2107:2150  backers[msg.sender].fundedTiers[_tierIndex] */\n      0x00\n        /* \"contracts/CrowdFunding.sol\":2139:2149  _tierIndex */\n      dup4\n        /* \"contracts/CrowdFunding.sol\":2107:2150  backers[msg.sender].fundedTiers[_tierIndex] */\n      dup2\n      mstore\n      0x20\n      add\n      swap1\n      dup2\n      mstore\n      0x20\n      add\n      0x00\n      keccak256\n      0x00\n        /* \"contracts/CrowdFunding.sol\":2107:2157  backers[msg.sender].fundedTiers[_tierIndex] = true */\n      0x0100\n      exp\n      dup2\n      sload\n      dup2\n      0xff\n      mul\n      not\n      and\n      swap1\n      dup4\n      iszero\n      iszero\n      mul\n      or\n      swap1\n      sstore\n      pop\n        /* \"contracts/CrowdFunding.sol\":2170:2199  checkAndUpdateCampaignState() */\n      tag_252\n        /* \"contracts/CrowdFunding.sol\":2170:2197  checkAndUpdateCampaignState */\n      tag_144\n        /* \"contracts/CrowdFunding.sol\":2170:2199  checkAndUpdateCampaignState() */\n      jump\t// in\n    tag_252:\n        /* \"contracts/CrowdFunding.sol\":1783:2207  function fund(uint256 _tierIndex)  public payable campaignOpen notPaused{... */\n      pop\n      jump\t// out\n        /* \"contracts/CrowdFunding.sol\":3650:3737  function getTiers() public view returns (Tier[] memory) {... */\n    tag_112:\n        /* \"contracts/CrowdFunding.sol\":3691:3704  Tier[] memory */\n      0x60\n        /* \"contracts/CrowdFunding.sol\":3724:3729  tiers */\n      0x05\n        /* \"contracts/CrowdFunding.sol\":3717:3729  return tiers */\n      dup1\n      sload\n      dup1\n      0x20\n      mul\n      0x20\n      add\n      mload(0x40)\n      swap1\n      dup2\n      add\n      0x40\n      mstore\n      dup1\n      swap3\n      swap2\n      swap1\n      dup2\n      dup2\n      mstore\n      0x20\n      add\n      0x00\n      swap1\n    tag_254:\n      dup3\n      dup3\n      lt\n      iszero\n      tag_255\n      jumpi\n      dup4\n      dup3\n      swap1\n      0x00\n      mstore\n      keccak256(0x00, 0x20)\n      swap1\n      0x03\n      mul\n      add\n      mload(0x40)\n      dup1\n      0x60\n      add\n      0x40\n      mstore\n      swap1\n      dup2\n      0x00\n      dup3\n      add\n      dup1\n      sload\n      tag_257\n      swap1\n      tag_118\n      jump\t// in\n    tag_257:\n      dup1\n      0x1f\n      add\n      0x20\n      dup1\n      swap2\n      div\n      mul\n      0x20\n      add\n      mload(0x40)\n      swap1\n      dup2\n      add\n      0x40\n      mstore\n      dup1\n      swap3\n      swap2\n      swap1\n      dup2\n      dup2\n      mstore\n      0x20\n      add\n      dup3\n      dup1\n      sload\n      tag_258\n      swap1\n      tag_118\n      jump\t// in\n    tag_258:\n      dup1\n      iszero\n      tag_259\n      jumpi\n      dup1\n      0x1f\n      lt\n      tag_260\n      jumpi\n      0x0100\n      dup1\n      dup4\n      sload\n      div\n      mul\n      dup4\n      mstore\n      swap2\n      0x20\n      add\n      swap2\n      jump(tag_259)\n    tag_260:\n      dup3\n      add\n      swap2\n      swap1\n      0x00\n      mstore\n      keccak256(0x00, 0x20)\n      swap1\n    tag_261:\n      dup2\n      sload\n      dup2\n      mstore\n      swap1\n      0x01\n      add\n      swap1\n      0x20\n      add\n      dup1\n      dup4\n      gt\n      tag_261\n      jumpi\n      dup3\n      swap1\n      sub\n      0x1f\n      and\n      dup3\n      add\n      swap2\n    tag_259:\n      pop\n      pop\n      pop\n      pop\n      pop\n      dup2\n      mstore\n      0x20\n      add\n      0x01\n      dup3\n      add\n      sload\n      dup2\n      mstore\n      0x20\n      add\n      0x02\n      dup3\n      add\n      sload\n      dup2\n      mstore\n      pop\n      pop\n      dup2\n      mstore\n      0x20\n      add\n      swap1\n      0x01\n      add\n      swap1\n      jump(tag_254)\n    tag_255:\n      pop\n      pop\n      pop\n      pop\n      swap1\n      pop\n        /* \"contracts/CrowdFunding.sol\":3650:3737  function getTiers() public view returns (Tier[] memory) {... */\n      swap1\n      jump\t// out\n        /* \"contracts/CrowdFunding.sol\":1369:1775  function checkAndUpdateCampaignState() internal {... */\n    tag_144:\n        /* \"contracts/CrowdFunding.sol\":1440:1460  CampaignState.Active */\n      0x00\n        /* \"contracts/CrowdFunding.sol\":1431:1460  state == CampaignState.Active */\n      0x02\n      dup2\n      gt\n      iszero\n      tag_263\n      jumpi\n      tag_264\n      tag_131\n      jump\t// in\n    tag_264:\n    tag_263:\n        /* \"contracts/CrowdFunding.sol\":1431:1436  state */\n      0x04\n      0x15\n      swap1\n      sload\n      swap1\n      0x0100\n      exp\n      swap1\n      div\n      0xff\n      and\n        /* \"contracts/CrowdFunding.sol\":1431:1460  state == CampaignState.Active */\n      0x02\n      dup2\n      gt\n      iszero\n      tag_265\n      jumpi\n      tag_266\n      tag_131\n      jump\t// in\n    tag_266:\n    tag_265:\n      sub\n        /* \"contracts/CrowdFunding.sol\":1428:1768  if(state == CampaignState.Active){... */\n      tag_267\n      jumpi\n        /* \"contracts/CrowdFunding.sol\":1498:1506  deadline */\n      sload(0x03)\n        /* \"contracts/CrowdFunding.sol\":1479:1494  block.timestamp */\n      timestamp\n        /* \"contracts/CrowdFunding.sol\":1479:1506  block.timestamp >= deadline */\n      lt\n        /* \"contracts/CrowdFunding.sol\":1476:1757  if(block.timestamp >= deadline){... */\n      tag_268\n      jumpi\n        /* \"contracts/CrowdFunding.sol\":1559:1563  goal */\n      sload(0x02)\n        /* \"contracts/CrowdFunding.sol\":1534:1555  address(this).balance */\n      selfbalance\n        /* \"contracts/CrowdFunding.sol\":1534:1563  address(this).balance >= goal */\n      lt\n      iszero\n        /* \"contracts/CrowdFunding.sol\":1534:1613  address(this).balance >= goal ? CampaignState.Successful : CampaignState.Failed */\n      tag_269\n      jumpi\n        /* \"contracts/CrowdFunding.sol\":1593:1613  CampaignState.Failed */\n      0x02\n        /* \"contracts/CrowdFunding.sol\":1534:1613  address(this).balance >= goal ? CampaignState.Successful : CampaignState.Failed */\n      jump(tag_270)\n    tag_269:\n        /* \"contracts/CrowdFunding.sol\":1566:1590  CampaignState.Successful */\n      0x01\n        /* \"contracts/CrowdFunding.sol\":1534:1613  address(this).balance >= goal ? CampaignState.Successful : CampaignState.Failed */\n    tag_270:\n        /* \"contracts/CrowdFunding.sol\":1526:1531  state */\n      0x04\n      0x15\n        /* \"contracts/CrowdFunding.sol\":1526:1613  state = address(this).balance >= goal ? CampaignState.Successful : CampaignState.Failed */\n      0x0100\n      exp\n      dup2\n      sload\n      dup2\n      0xff\n      mul\n      not\n      and\n      swap1\n      dup4\n      0x02\n      dup2\n      gt\n      iszero\n      tag_271\n      jumpi\n      tag_272\n      tag_131\n      jump\t// in\n    tag_272:\n    tag_271:\n      mul\n      or\n      swap1\n      sstore\n      pop\n        /* \"contracts/CrowdFunding.sol\":1476:1757  if(block.timestamp >= deadline){... */\n      jump(tag_273)\n    tag_268:\n        /* \"contracts/CrowdFunding.sol\":1687:1691  goal */\n      sload(0x02)\n        /* \"contracts/CrowdFunding.sol\":1662:1683  address(this).balance */\n      selfbalance\n        /* \"contracts/CrowdFunding.sol\":1662:1691  address(this).balance >= goal */\n      lt\n      iszero\n        /* \"contracts/CrowdFunding.sol\":1662:1741  address(this).balance >= goal ? CampaignState.Successful : CampaignState.Active */\n      tag_274\n      jumpi\n        /* \"contracts/CrowdFunding.sol\":1721:1741  CampaignState.Active */\n      0x00\n        /* \"contracts/CrowdFunding.sol\":1662:1741  address(this).balance >= goal ? CampaignState.Successful : CampaignState.Active */\n      jump(tag_275)\n    tag_274:\n        /* \"contracts/CrowdFunding.sol\":1694:1718  CampaignState.Successful */\n      0x01\n        /* \"contracts/CrowdFunding.sol\":1662:1741  address(this).balance >= goal ? CampaignState.Successful : CampaignState.Active */\n    tag_275:\n        /* \"contracts/CrowdFunding.sol\":1654:1659  state */\n      0x04\n      0x15\n        /* \"contracts/CrowdFunding.sol\":1654:1741  state = address(this).balance >= goal ? CampaignState.Successful : CampaignState.Active */\n      0x0100\n      exp\n      dup2\n      sload\n      dup2\n      0xff\n      mul\n      not\n      and\n      swap1\n      dup4\n      0x02\n      dup2\n      gt\n      iszero\n      tag_276\n      jumpi\n      tag_277\n      tag_131\n      jump\t// in\n    tag_277:\n    tag_276:\n      mul\n      or\n      swap1\n      sstore\n      pop\n        /* \"contracts/CrowdFunding.sol\":1476:1757  if(block.timestamp >= deadline){... */\n    tag_273:\n        /* \"contracts/CrowdFunding.sol\":1428:1768  if(state == CampaignState.Active){... */\n    tag_267:\n        /* \"contracts/CrowdFunding.sol\":1369:1775  function checkAndUpdateCampaignState() internal {... */\n      jump\t// out\n    tag_209:\n      pop\n      dup1\n      sload\n      tag_278\n      swap1\n      tag_118\n      jump\t// in\n    tag_278:\n      0x00\n      dup3\n      sstore\n      dup1\n      0x1f\n      lt\n      tag_280\n      jumpi\n      pop\n      jump(tag_279)\n    tag_280:\n      0x1f\n      add\n      0x20\n      swap1\n      div\n      swap1\n      0x00\n      mstore\n      keccak256(0x00, 0x20)\n      swap1\n      dup2\n      add\n      swap1\n      tag_281\n      swap2\n      swap1\n      tag_282\n      jump\t// in\n    tag_281:\n    tag_279:\n      pop\n      jump\t// out\n    tag_282:\n    tag_283:\n      dup1\n      dup3\n      gt\n      iszero\n      tag_284\n      jumpi\n      0x00\n      dup2\n      0x00\n      swap1\n      sstore\n      pop\n      0x01\n      add\n      jump(tag_283)\n    tag_284:\n      pop\n      swap1\n      jump\t// out\n        /* \"#utility.yul\":7:82   */\n    tag_285:\n        /* \"#utility.yul\":40:46   */\n      0x00\n        /* \"#utility.yul\":73:75   */\n      0x40\n        /* \"#utility.yul\":67:76   */\n      mload\n        /* \"#utility.yul\":57:76   */\n      swap1\n      pop\n        /* \"#utility.yul\":7:82   */\n      swap1\n      jump\t// out\n        /* \"#utility.yul\":88:205   */\n    tag_286:\n        /* \"#utility.yul\":197:198   */\n      0x00\n        /* \"#utility.yul\":194:195   */\n      dup1\n        /* \"#utility.yul\":187:199   */\n      revert\n        /* \"#utility.yul\":211:328   */\n    tag_287:\n        /* \"#utility.yul\":320:321   */\n      0x00\n        /* \"#utility.yul\":317:318   */\n      dup1\n        /* \"#utility.yul\":310:322   */\n      revert\n        /* \"#utility.yul\":334:411   */\n    tag_288:\n        /* \"#utility.yul\":371:378   */\n      0x00\n        /* \"#utility.yul\":400:405   */\n      dup2\n        /* \"#utility.yul\":389:405   */\n      swap1\n      pop\n        /* \"#utility.yul\":334:411   */\n      swap2\n      swap1\n      pop\n      jump\t// out\n        /* \"#utility.yul\":417:539   */\n    tag_289:\n        /* \"#utility.yul\":490:514   */\n      tag_371\n        /* \"#utility.yul\":508:513   */\n      dup2\n        /* \"#utility.yul\":490:514   */\n      tag_288\n      jump\t// in\n    tag_371:\n        /* \"#utility.yul\":483:488   */\n      dup2\n        /* \"#utility.yul\":480:515   */\n      eq\n        /* \"#utility.yul\":470:533   */\n      tag_372\n      jumpi\n        /* \"#utility.yul\":529:530   */\n      0x00\n        /* \"#utility.yul\":526:527   */\n      dup1\n        /* \"#utility.yul\":519:531   */\n      revert\n        /* \"#utility.yul\":470:533   */\n    tag_372:\n        /* \"#utility.yul\":417:539   */\n      pop\n      jump\t// out\n        /* \"#utility.yul\":545:684   */\n    tag_290:\n        /* \"#utility.yul\":591:596   */\n      0x00\n        /* \"#utility.yul\":629:635   */\n      dup2\n        /* \"#utility.yul\":616:636   */\n      calldataload\n        /* \"#utility.yul\":607:636   */\n      swap1\n      pop\n        /* \"#utility.yul\":645:678   */\n      tag_374\n        /* \"#utility.yul\":672:677   */\n      dup2\n        /* \"#utility.yul\":645:678   */\n      tag_289\n      jump\t// in\n    tag_374:\n        /* \"#utility.yul\":545:684   */\n      swap3\n      swap2\n      pop\n      pop\n      jump\t// out\n        /* \"#utility.yul\":690:1019   */\n    tag_28:\n        /* \"#utility.yul\":749:755   */\n      0x00\n        /* \"#utility.yul\":798:800   */\n      0x20\n        /* \"#utility.yul\":786:795   */\n      dup3\n        /* \"#utility.yul\":777:784   */\n      dup5\n        /* \"#utility.yul\":773:796   */\n      sub\n        /* \"#utility.yul\":769:801   */\n      slt\n        /* \"#utility.yul\":766:885   */\n      iszero\n      tag_376\n      jumpi\n        /* \"#utility.yul\":804:883   */\n      tag_377\n      tag_286\n      jump\t// in\n    tag_377:\n        /* \"#utility.yul\":766:885   */\n    tag_376:\n        /* \"#utility.yul\":924:925   */\n      0x00\n        /* \"#utility.yul\":949:1002   */\n      tag_378\n        /* \"#utility.yul\":994:1001   */\n      dup5\n        /* \"#utility.yul\":985:991   */\n      dup3\n        /* \"#utility.yul\":974:983   */\n      dup6\n        /* \"#utility.yul\":970:992   */\n      add\n        /* \"#utility.yul\":949:1002   */\n      tag_290\n      jump\t// in\n    tag_378:\n        /* \"#utility.yul\":939:1002   */\n      swap2\n      pop\n        /* \"#utility.yul\":895:1012   */\n      pop\n        /* \"#utility.yul\":690:1019   */\n      swap3\n      swap2\n      pop\n      pop\n      jump\t// out\n        /* \"#utility.yul\":1025:1124   */\n    tag_291:\n        /* \"#utility.yul\":1077:1083   */\n      0x00\n        /* \"#utility.yul\":1111:1116   */\n      dup2\n        /* \"#utility.yul\":1105:1117   */\n      mload\n        /* \"#utility.yul\":1095:1117   */\n      swap1\n      pop\n        /* \"#utility.yul\":1025:1124   */\n      swap2\n      swap1\n      pop\n      jump\t// out\n        /* \"#utility.yul\":1130:1299   */\n    tag_292:\n        /* \"#utility.yul\":1214:1225   */\n      0x00\n        /* \"#utility.yul\":1248:1254   */\n      dup3\n        /* \"#utility.yul\":1243:1246   */\n      dup3\n        /* \"#utility.yul\":1236:1255   */\n      mstore\n        /* \"#utility.yul\":1288:1292   */\n      0x20\n        /* \"#utility.yul\":1283:1286   */\n      dup3\n        /* \"#utility.yul\":1279:1293   */\n      add\n        /* \"#utility.yul\":1264:1293   */\n      swap1\n      pop\n        /* \"#utility.yul\":1130:1299   */\n      swap3\n      swap2\n      pop\n      pop\n      jump\t// out\n        /* \"#utility.yul\":1305:1444   */\n    tag_293:\n        /* \"#utility.yul\":1394:1400   */\n      dup3\n        /* \"#utility.yul\":1389:1392   */\n      dup2\n        /* \"#utility.yul\":1384:1387   */\n      dup4\n        /* \"#utility.yul\":1378:1401   */\n      mcopy\n        /* \"#utility.yul\":1435:1436   */\n      0x00\n        /* \"#utility.yul\":1426:1432   */\n      dup4\n        /* \"#utility.yul\":1421:1424   */\n      dup4\n        /* \"#utility.yul\":1417:1433   */\n      add\n        /* \"#utility.yul\":1410:1437   */\n      mstore\n        /* \"#utility.yul\":1305:1444   */\n      pop\n      pop\n      pop\n      jump\t// out\n        /* \"#utility.yul\":1450:1552   */\n    tag_294:\n        /* \"#utility.yul\":1491:1497   */\n      0x00\n        /* \"#utility.yul\":1542:1544   */\n      0x1f\n        /* \"#utility.yul\":1538:1545   */\n      not\n        /* \"#utility.yul\":1533:1535   */\n      0x1f\n        /* \"#utility.yul\":1526:1531   */\n      dup4\n        /* \"#utility.yul\":1522:1536   */\n      add\n        /* \"#utility.yul\":1518:1546   */\n      and\n        /* \"#utility.yul\":1508:1546   */\n      swap1\n      pop\n        /* \"#utility.yul\":1450:1552   */\n      swap2\n      swap1\n      pop\n      jump\t// out\n        /* \"#utility.yul\":1558:1935   */\n    tag_295:\n        /* \"#utility.yul\":1646:1649   */\n      0x00\n        /* \"#utility.yul\":1674:1713   */\n      tag_384\n        /* \"#utility.yul\":1707:1712   */\n      dup3\n        /* \"#utility.yul\":1674:1713   */\n      tag_291\n      jump\t// in\n    tag_384:\n        /* \"#utility.yul\":1729:1800   */\n      tag_385\n        /* \"#utility.yul\":1793:1799   */\n      dup2\n        /* \"#utility.yul\":1788:1791   */\n      dup6\n        /* \"#utility.yul\":1729:1800   */\n      tag_292\n      jump\t// in\n    tag_385:\n        /* \"#utility.yul\":1722:1800   */\n      swap4\n      pop\n        /* \"#utility.yul\":1809:1874   */\n      tag_386\n        /* \"#utility.yul\":1867:1873   */\n      dup2\n        /* \"#utility.yul\":1862:1865   */\n      dup6\n        /* \"#utility.yul\":1855:1859   */\n      0x20\n        /* \"#utility.yul\":1848:1853   */\n      dup7\n        /* \"#utility.yul\":1844:1860   */\n      add\n        /* \"#utility.yul\":1809:1874   */\n      tag_293\n      jump\t// in\n    tag_386:\n        /* \"#utility.yul\":1899:1928   */\n      tag_387\n        /* \"#utility.yul\":1921:1927   */\n      dup2\n        /* \"#utility.yul\":1899:1928   */\n      tag_294\n      jump\t// in\n    tag_387:\n        /* \"#utility.yul\":1894:1897   */\n      dup5\n        /* \"#utility.yul\":1890:1929   */\n      add\n        /* \"#utility.yul\":1883:1929   */\n      swap2\n      pop\n        /* \"#utility.yul\":1650:1935   */\n      pop\n        /* \"#utility.yul\":1558:1935   */\n      swap3\n      swap2\n      pop\n      pop\n      jump\t// out\n        /* \"#utility.yul\":1941:2059   */\n    tag_296:\n        /* \"#utility.yul\":2028:2052   */\n      tag_389\n        /* \"#utility.yul\":2046:2051   */\n      dup2\n        /* \"#utility.yul\":2028:2052   */\n      tag_288\n      jump\t// in\n    tag_389:\n        /* \"#utility.yul\":2023:2026   */\n      dup3\n        /* \"#utility.yul\":2016:2053   */\n      mstore\n        /* \"#utility.yul\":1941:2059   */\n      pop\n      pop\n      jump\t// out\n        /* \"#utility.yul\":2065:2598   */\n    tag_31:\n        /* \"#utility.yul\":2234:2238   */\n      0x00\n        /* \"#utility.yul\":2272:2274   */\n      0x60\n        /* \"#utility.yul\":2261:2270   */\n      dup3\n        /* \"#utility.yul\":2257:2275   */\n      add\n        /* \"#utility.yul\":2249:2275   */\n      swap1\n      pop\n        /* \"#utility.yul\":2321:2330   */\n      dup2\n        /* \"#utility.yul\":2315:2319   */\n      dup2\n        /* \"#utility.yul\":2311:2331   */\n      sub\n        /* \"#utility.yul\":2307:2308   */\n      0x00\n        /* \"#utility.yul\":2296:2305   */\n      dup4\n        /* \"#utility.yul\":2292:2309   */\n      add\n        /* \"#utility.yul\":2285:2332   */\n      mstore\n        /* \"#utility.yul\":2349:2427   */\n      tag_391\n        /* \"#utility.yul\":2422:2426   */\n      dup2\n        /* \"#utility.yul\":2413:2419   */\n      dup7\n        /* \"#utility.yul\":2349:2427   */\n      tag_295\n      jump\t// in\n    tag_391:\n        /* \"#utility.yul\":2341:2427   */\n      swap1\n      pop\n        /* \"#utility.yul\":2437:2509   */\n      tag_392\n        /* \"#utility.yul\":2505:2507   */\n      0x20\n        /* \"#utility.yul\":2494:2503   */\n      dup4\n        /* \"#utility.yul\":2490:2508   */\n      add\n        /* \"#utility.yul\":2481:2487   */\n      dup6\n        /* \"#utility.yul\":2437:2509   */\n      tag_296\n      jump\t// in\n    tag_392:\n        /* \"#utility.yul\":2519:2591   */\n      tag_393\n        /* \"#utility.yul\":2587:2589   */\n      0x40\n        /* \"#utility.yul\":2576:2585   */\n      dup4\n        /* \"#utility.yul\":2572:2590   */\n      add\n        /* \"#utility.yul\":2563:2569   */\n      dup5\n        /* \"#utility.yul\":2519:2591   */\n      tag_296\n      jump\t// in\n    tag_393:\n        /* \"#utility.yul\":2065:2598   */\n      swap5\n      swap4\n      pop\n      pop\n      pop\n      pop\n      jump\t// out\n        /* \"#utility.yul\":2604:2917   */\n    tag_36:\n        /* \"#utility.yul\":2717:2721   */\n      0x00\n        /* \"#utility.yul\":2755:2757   */\n      0x20\n        /* \"#utility.yul\":2744:2753   */\n      dup3\n        /* \"#utility.yul\":2740:2758   */\n      add\n        /* \"#utility.yul\":2732:2758   */\n      swap1\n      pop\n        /* \"#utility.yul\":2804:2813   */\n      dup2\n        /* \"#utility.yul\":2798:2802   */\n      dup2\n        /* \"#utility.yul\":2794:2814   */\n      sub\n        /* \"#utility.yul\":2790:2791   */\n      0x00\n        /* \"#utility.yul\":2779:2788   */\n      dup4\n        /* \"#utility.yul\":2775:2792   */\n      add\n        /* \"#utility.yul\":2768:2815   */\n      mstore\n        /* \"#utility.yul\":2832:2910   */\n      tag_395\n        /* \"#utility.yul\":2905:2909   */\n      dup2\n        /* \"#utility.yul\":2896:2902   */\n      dup5\n        /* \"#utility.yul\":2832:2910   */\n      tag_295\n      jump\t// in\n    tag_395:\n        /* \"#utility.yul\":2824:2910   */\n      swap1\n      pop\n        /* \"#utility.yul\":2604:2917   */\n      swap3\n      swap2\n      pop\n      pop\n      jump\t// out\n        /* \"#utility.yul\":2923:3103   */\n    tag_131:\n        /* \"#utility.yul\":2971:3048   */\n      0x4e487b7100000000000000000000000000000000000000000000000000000000\n        /* \"#utility.yul\":2968:2969   */\n      0x00\n        /* \"#utility.yul\":2961:3049   */\n      mstore\n        /* \"#utility.yul\":3068:3072   */\n      0x21\n        /* \"#utility.yul\":3065:3066   */\n      0x04\n        /* \"#utility.yul\":3058:3073   */\n      mstore\n        /* \"#utility.yul\":3092:3096   */\n      0x24\n        /* \"#utility.yul\":3089:3090   */\n      0x00\n        /* \"#utility.yul\":3082:3097   */\n      revert\n        /* \"#utility.yul\":3109:3230   */\n    tag_297:\n        /* \"#utility.yul\":3198:3199   */\n      0x03\n        /* \"#utility.yul\":3191:3196   */\n      dup2\n        /* \"#utility.yul\":3188:3200   */\n      lt\n        /* \"#utility.yul\":3178:3224   */\n      tag_398\n      jumpi\n        /* \"#utility.yul\":3204:3222   */\n      tag_399\n      tag_131\n      jump\t// in\n    tag_399:\n        /* \"#utility.yul\":3178:3224   */\n    tag_398:\n        /* \"#utility.yul\":3109:3230   */\n      pop\n      jump\t// out\n        /* \"#utility.yul\":3236:3379   */\n    tag_298:\n        /* \"#utility.yul\":3289:3296   */\n      0x00\n        /* \"#utility.yul\":3318:3323   */\n      dup2\n        /* \"#utility.yul\":3307:3323   */\n      swap1\n      pop\n        /* \"#utility.yul\":3324:3373   */\n      tag_401\n        /* \"#utility.yul\":3367:3372   */\n      dup3\n        /* \"#utility.yul\":3324:3373   */\n      tag_297\n      jump\t// in\n    tag_401:\n        /* \"#utility.yul\":3236:3379   */\n      swap2\n      swap1\n      pop\n      jump\t// out\n        /* \"#utility.yul\":3385:3528   */\n    tag_299:\n        /* \"#utility.yul\":3449:3458   */\n      0x00\n        /* \"#utility.yul\":3482:3522   */\n      tag_403\n        /* \"#utility.yul\":3516:3521   */\n      dup3\n        /* \"#utility.yul\":3482:3522   */\n      tag_298\n      jump\t// in\n    tag_403:\n        /* \"#utility.yul\":3469:3522   */\n      swap1\n      pop\n        /* \"#utility.yul\":3385:3528   */\n      swap2\n      swap1\n      pop\n      jump\t// out\n        /* \"#utility.yul\":3534:3693   */\n    tag_300:\n        /* \"#utility.yul\":3635:3686   */\n      tag_405\n        /* \"#utility.yul\":3680:3685   */\n      dup2\n        /* \"#utility.yul\":3635:3686   */\n      tag_299\n      jump\t// in\n    tag_405:\n        /* \"#utility.yul\":3630:3633   */\n      dup3\n        /* \"#utility.yul\":3623:3687   */\n      mstore\n        /* \"#utility.yul\":3534:3693   */\n      pop\n      pop\n      jump\t// out\n        /* \"#utility.yul\":3699:3949   */\n    tag_41:\n        /* \"#utility.yul\":3806:3810   */\n      0x00\n        /* \"#utility.yul\":3844:3846   */\n      0x20\n        /* \"#utility.yul\":3833:3842   */\n      dup3\n        /* \"#utility.yul\":3829:3847   */\n      add\n        /* \"#utility.yul\":3821:3847   */\n      swap1\n      pop\n        /* \"#utility.yul\":3857:3942   */\n      tag_407\n        /* \"#utility.yul\":3939:3940   */\n      0x00\n        /* \"#utility.yul\":3928:3937   */\n      dup4\n        /* \"#utility.yul\":3924:3941   */\n      add\n        /* \"#utility.yul\":3915:3921   */\n      dup5\n        /* \"#utility.yul\":3857:3942   */\n      tag_300\n      jump\t// in\n    tag_407:\n        /* \"#utility.yul\":3699:3949   */\n      swap3\n      swap2\n      pop\n      pop\n      jump\t// out\n        /* \"#utility.yul\":3955:4177   */\n    tag_46:\n        /* \"#utility.yul\":4048:4052   */\n      0x00\n        /* \"#utility.yul\":4086:4088   */\n      0x20\n        /* \"#utility.yul\":4075:4084   */\n      dup3\n        /* \"#utility.yul\":4071:4089   */\n      add\n        /* \"#utility.yul\":4063:4089   */\n      swap1\n      pop\n        /* \"#utility.yul\":4099:4170   */\n      tag_409\n        /* \"#utility.yul\":4167:4168   */\n      0x00\n        /* \"#utility.yul\":4156:4165   */\n      dup4\n        /* \"#utility.yul\":4152:4169   */\n      add\n        /* \"#utility.yul\":4143:4149   */\n      dup5\n        /* \"#utility.yul\":4099:4170   */\n      tag_296\n      jump\t// in\n    tag_409:\n        /* \"#utility.yul\":3955:4177   */\n      swap3\n      swap2\n      pop\n      pop\n      jump\t// out\n        /* \"#utility.yul\":4183:4273   */\n    tag_301:\n        /* \"#utility.yul\":4217:4224   */\n      0x00\n        /* \"#utility.yul\":4260:4265   */\n      dup2\n        /* \"#utility.yul\":4253:4266   */\n      iszero\n        /* \"#utility.yul\":4246:4267   */\n      iszero\n        /* \"#utility.yul\":4235:4267   */\n      swap1\n      pop\n        /* \"#utility.yul\":4183:4273   */\n      swap2\n      swap1\n      pop\n      jump\t// out\n        /* \"#utility.yul\":4279:4388   */\n    tag_302:\n        /* \"#utility.yul\":4360:4381   */\n      tag_412\n        /* \"#utility.yul\":4375:4380   */\n      dup2\n        /* \"#utility.yul\":4360:4381   */\n      tag_301\n      jump\t// in\n    tag_412:\n        /* \"#utility.yul\":4355:4358   */\n      dup3\n        /* \"#utility.yul\":4348:4382   */\n      mstore\n        /* \"#utility.yul\":4279:4388   */\n      pop\n      pop\n      jump\t// out\n        /* \"#utility.yul\":4394:4604   */\n    tag_61:\n        /* \"#utility.yul\":4481:4485   */\n      0x00\n        /* \"#utility.yul\":4519:4521   */\n      0x20\n        /* \"#utility.yul\":4508:4517   */\n      dup3\n        /* \"#utility.yul\":4504:4522   */\n      add\n        /* \"#utility.yul\":4496:4522   */\n      swap1\n      pop\n        /* \"#utility.yul\":4532:4597   */\n      tag_414\n        /* \"#utility.yul\":4594:4595   */\n      0x00\n        /* \"#utility.yul\":4583:4592   */\n      dup4\n        /* \"#utility.yul\":4579:4596   */\n      add\n        /* \"#utility.yul\":4570:4576   */\n      dup5\n        /* \"#utility.yul\":4532:4597   */\n      tag_302\n      jump\t// in\n    tag_414:\n        /* \"#utility.yul\":4394:4604   */\n      swap3\n      swap2\n      pop\n      pop\n      jump\t// out\n        /* \"#utility.yul\":4610:4736   */\n    tag_303:\n        /* \"#utility.yul\":4647:4654   */\n      0x00\n        /* \"#utility.yul\":4687:4729   */\n      0xffffffffffffffffffffffffffffffffffffffff\n        /* \"#utility.yul\":4680:4685   */\n      dup3\n        /* \"#utility.yul\":4676:4730   */\n      and\n        /* \"#utility.yul\":4665:4730   */\n      swap1\n      pop\n        /* \"#utility.yul\":4610:4736   */\n      swap2\n      swap1\n      pop\n      jump\t// out\n        /* \"#utility.yul\":4742:4838   */\n    tag_304:\n        /* \"#utility.yul\":4779:4786   */\n      0x00\n        /* \"#utility.yul\":4808:4832   */\n      tag_417\n        /* \"#utility.yul\":4826:4831   */\n      dup3\n        /* \"#utility.yul\":4808:4832   */\n      tag_303\n      jump\t// in\n    tag_417:\n        /* \"#utility.yul\":4797:4832   */\n      swap1\n      pop\n        /* \"#utility.yul\":4742:4838   */\n      swap2\n      swap1\n      pop\n      jump\t// out\n        /* \"#utility.yul\":4844:4966   */\n    tag_305:\n        /* \"#utility.yul\":4917:4941   */\n      tag_419\n        /* \"#utility.yul\":4935:4940   */\n      dup2\n        /* \"#utility.yul\":4917:4941   */\n      tag_304\n      jump\t// in\n    tag_419:\n        /* \"#utility.yul\":4910:4915   */\n      dup2\n        /* \"#utility.yul\":4907:4942   */\n      eq\n        /* \"#utility.yul\":4897:4960   */\n      tag_420\n      jumpi\n        /* \"#utility.yul\":4956:4957   */\n      0x00\n        /* \"#utility.yul\":4953:4954   */\n      dup1\n        /* \"#utility.yul\":4946:4958   */\n      revert\n        /* \"#utility.yul\":4897:4960   */\n    tag_420:\n        /* \"#utility.yul\":4844:4966   */\n      pop\n      jump\t// out\n        /* \"#utility.yul\":4972:5111   */\n    tag_306:\n        /* \"#utility.yul\":5018:5023   */\n      0x00\n        /* \"#utility.yul\":5056:5062   */\n      dup2\n        /* \"#utility.yul\":5043:5063   */\n      calldataload\n        /* \"#utility.yul\":5034:5063   */\n      swap1\n      pop\n        /* \"#utility.yul\":5072:5105   */\n      tag_422\n        /* \"#utility.yul\":5099:5104   */\n      dup2\n        /* \"#utility.yul\":5072:5105   */\n      tag_305\n      jump\t// in\n    tag_422:\n        /* \"#utility.yul\":4972:5111   */\n      swap3\n      swap2\n      pop\n      pop\n      jump\t// out\n        /* \"#utility.yul\":5117:5591   */\n    tag_81:\n        /* \"#utility.yul\":5185:5191   */\n      0x00\n        /* \"#utility.yul\":5193:5199   */\n      dup1\n        /* \"#utility.yul\":5242:5244   */\n      0x40\n        /* \"#utility.yul\":5230:5239   */\n      dup4\n        /* \"#utility.yul\":5221:5228   */\n      dup6\n        /* \"#utility.yul\":5217:5240   */\n      sub\n        /* \"#utility.yul\":5213:5245   */\n      slt\n        /* \"#utility.yul\":5210:5329   */\n      iszero\n      tag_424\n      jumpi\n        /* \"#utility.yul\":5248:5327   */\n      tag_425\n      tag_286\n      jump\t// in\n    tag_425:\n        /* \"#utility.yul\":5210:5329   */\n    tag_424:\n        /* \"#utility.yul\":5368:5369   */\n      0x00\n        /* \"#utility.yul\":5393:5446   */\n      tag_426\n        /* \"#utility.yul\":5438:5445   */\n      dup6\n        /* \"#utility.yul\":5429:5435   */\n      dup3\n        /* \"#utility.yul\":5418:5427   */\n      dup7\n        /* \"#utility.yul\":5414:5436   */\n      add\n        /* \"#utility.yul\":5393:5446   */\n      tag_306\n      jump\t// in\n    tag_426:\n        /* \"#utility.yul\":5383:5446   */\n      swap3\n      pop\n        /* \"#utility.yul\":5339:5456   */\n      pop\n        /* \"#utility.yul\":5495:5497   */\n      0x20\n        /* \"#utility.yul\":5521:5574   */\n      tag_427\n        /* \"#utility.yul\":5566:5573   */\n      dup6\n        /* \"#utility.yul\":5557:5563   */\n      dup3\n        /* \"#utility.yul\":5546:5555   */\n      dup7\n        /* \"#utility.yul\":5542:5564   */\n      add\n        /* \"#utility.yul\":5521:5574   */\n      tag_290\n      jump\t// in\n    tag_427:\n        /* \"#utility.yul\":5511:5574   */\n      swap2\n      pop\n        /* \"#utility.yul\":5466:5584   */\n      pop\n        /* \"#utility.yul\":5117:5591   */\n      swap3\n      pop\n      swap3\n      swap1\n      pop\n      jump\t// out\n        /* \"#utility.yul\":5597:5715   */\n    tag_307:\n        /* \"#utility.yul\":5684:5708   */\n      tag_429\n        /* \"#utility.yul\":5702:5707   */\n      dup2\n        /* \"#utility.yul\":5684:5708   */\n      tag_304\n      jump\t// in\n    tag_429:\n        /* \"#utility.yul\":5679:5682   */\n      dup3\n        /* \"#utility.yul\":5672:5709   */\n      mstore\n        /* \"#utility.yul\":5597:5715   */\n      pop\n      pop\n      jump\t// out\n        /* \"#utility.yul\":5721:5943   */\n    tag_88:\n        /* \"#utility.yul\":5814:5818   */\n      0x00\n        /* \"#utility.yul\":5852:5854   */\n      0x20\n        /* \"#utility.yul\":5841:5850   */\n      dup3\n        /* \"#utility.yul\":5837:5855   */\n      add\n        /* \"#utility.yul\":5829:5855   */\n      swap1\n      pop\n        /* \"#utility.yul\":5865:5936   */\n      tag_431\n        /* \"#utility.yul\":5933:5934   */\n      0x00\n        /* \"#utility.yul\":5922:5931   */\n      dup4\n        /* \"#utility.yul\":5918:5935   */\n      add\n        /* \"#utility.yul\":5909:5915   */\n      dup5\n        /* \"#utility.yul\":5865:5936   */\n      tag_307\n      jump\t// in\n    tag_431:\n        /* \"#utility.yul\":5721:5943   */\n      swap3\n      swap2\n      pop\n      pop\n      jump\t// out\n        /* \"#utility.yul\":5949:6066   */\n    tag_308:\n        /* \"#utility.yul\":6058:6059   */\n      0x00\n        /* \"#utility.yul\":6055:6056   */\n      dup1\n        /* \"#utility.yul\":6048:6060   */\n      revert\n        /* \"#utility.yul\":6072:6189   */\n    tag_309:\n        /* \"#utility.yul\":6181:6182   */\n      0x00\n        /* \"#utility.yul\":6178:6179   */\n      dup1\n        /* \"#utility.yul\":6171:6183   */\n      revert\n        /* \"#utility.yul\":6195:6375   */\n    tag_310:\n        /* \"#utility.yul\":6243:6320   */\n      0x4e487b7100000000000000000000000000000000000000000000000000000000\n        /* \"#utility.yul\":6240:6241   */\n      0x00\n        /* \"#utility.yul\":6233:6321   */\n      mstore\n        /* \"#utility.yul\":6340:6344   */\n      0x41\n        /* \"#utility.yul\":6337:6338   */\n      0x04\n        /* \"#utility.yul\":6330:6345   */\n      mstore\n        /* \"#utility.yul\":6364:6368   */\n      0x24\n        /* \"#utility.yul\":6361:6362   */\n      0x00\n        /* \"#utility.yul\":6354:6369   */\n      revert\n        /* \"#utility.yul\":6381:6662   */\n    tag_311:\n        /* \"#utility.yul\":6464:6491   */\n      tag_436\n        /* \"#utility.yul\":6486:6490   */\n      dup3\n        /* \"#utility.yul\":6464:6491   */\n      tag_294\n      jump\t// in\n    tag_436:\n        /* \"#utility.yul\":6456:6462   */\n      dup2\n        /* \"#utility.yul\":6452:6492   */\n      add\n        /* \"#utility.yul\":6594:6600   */\n      dup2\n        /* \"#utility.yul\":6582:6592   */\n      dup2\n        /* \"#utility.yul\":6579:6601   */\n      lt\n        /* \"#utility.yul\":6558:6576   */\n      0xffffffffffffffff\n        /* \"#utility.yul\":6546:6556   */\n      dup3\n        /* \"#utility.yul\":6543:6577   */\n      gt\n        /* \"#utility.yul\":6540:6602   */\n      or\n        /* \"#utility.yul\":6537:6625   */\n      iszero\n      tag_437\n      jumpi\n        /* \"#utility.yul\":6605:6623   */\n      tag_438\n      tag_310\n      jump\t// in\n    tag_438:\n        /* \"#utility.yul\":6537:6625   */\n    tag_437:\n        /* \"#utility.yul\":6645:6655   */\n      dup1\n        /* \"#utility.yul\":6641:6643   */\n      0x40\n        /* \"#utility.yul\":6634:6656   */\n      mstore\n        /* \"#utility.yul\":6424:6662   */\n      pop\n        /* \"#utility.yul\":6381:6662   */\n      pop\n      pop\n      jump\t// out\n        /* \"#utility.yul\":6668:6797   */\n    tag_312:\n        /* \"#utility.yul\":6702:6708   */\n      0x00\n        /* \"#utility.yul\":6729:6749   */\n      tag_440\n      tag_285\n      jump\t// in\n    tag_440:\n        /* \"#utility.yul\":6719:6749   */\n      swap1\n      pop\n        /* \"#utility.yul\":6758:6791   */\n      tag_441\n        /* \"#utility.yul\":6786:6790   */\n      dup3\n        /* \"#utility.yul\":6778:6784   */\n      dup3\n        /* \"#utility.yul\":6758:6791   */\n      tag_311\n      jump\t// in\n    tag_441:\n        /* \"#utility.yul\":6668:6797   */\n      swap2\n      swap1\n      pop\n      jump\t// out\n        /* \"#utility.yul\":6803:7111   */\n    tag_313:\n        /* \"#utility.yul\":6865:6869   */\n      0x00\n        /* \"#utility.yul\":6955:6973   */\n      0xffffffffffffffff\n        /* \"#utility.yul\":6947:6953   */\n      dup3\n        /* \"#utility.yul\":6944:6974   */\n      gt\n        /* \"#utility.yul\":6941:6997   */\n      iszero\n      tag_443\n      jumpi\n        /* \"#utility.yul\":6977:6995   */\n      tag_444\n      tag_310\n      jump\t// in\n    tag_444:\n        /* \"#utility.yul\":6941:6997   */\n    tag_443:\n        /* \"#utility.yul\":7015:7044   */\n      tag_445\n        /* \"#utility.yul\":7037:7043   */\n      dup3\n        /* \"#utility.yul\":7015:7044   */\n      tag_294\n      jump\t// in\n    tag_445:\n        /* \"#utility.yul\":7007:7044   */\n      swap1\n      pop\n        /* \"#utility.yul\":7099:7103   */\n      0x20\n        /* \"#utility.yul\":7093:7097   */\n      dup2\n        /* \"#utility.yul\":7089:7104   */\n      add\n        /* \"#utility.yul\":7081:7104   */\n      swap1\n      pop\n        /* \"#utility.yul\":6803:7111   */\n      swap2\n      swap1\n      pop\n      jump\t// out\n        /* \"#utility.yul\":7117:7265   */\n    tag_314:\n        /* \"#utility.yul\":7215:7221   */\n      dup3\n        /* \"#utility.yul\":7210:7213   */\n      dup2\n        /* \"#utility.yul\":7205:7208   */\n      dup4\n        /* \"#utility.yul\":7192:7222   */\n      calldatacopy\n        /* \"#utility.yul\":7256:7257   */\n      0x00\n        /* \"#utility.yul\":7247:7253   */\n      dup4\n        /* \"#utility.yul\":7242:7245   */\n      dup4\n        /* \"#utility.yul\":7238:7254   */\n      add\n        /* \"#utility.yul\":7231:7258   */\n      mstore\n        /* \"#utility.yul\":7117:7265   */\n      pop\n      pop\n      pop\n      jump\t// out\n        /* \"#utility.yul\":7271:7696   */\n    tag_315:\n        /* \"#utility.yul\":7349:7354   */\n      0x00\n        /* \"#utility.yul\":7374:7440   */\n      tag_448\n        /* \"#utility.yul\":7390:7439   */\n      tag_449\n        /* \"#utility.yul\":7432:7438   */\n      dup5\n        /* \"#utility.yul\":7390:7439   */\n      tag_313\n      jump\t// in\n    tag_449:\n        /* \"#utility.yul\":7374:7440   */\n      tag_312\n      jump\t// in\n    tag_448:\n        /* \"#utility.yul\":7365:7440   */\n      swap1\n      pop\n        /* \"#utility.yul\":7463:7469   */\n      dup3\n        /* \"#utility.yul\":7456:7461   */\n      dup2\n        /* \"#utility.yul\":7449:7470   */\n      mstore\n        /* \"#utility.yul\":7501:7505   */\n      0x20\n        /* \"#utility.yul\":7494:7499   */\n      dup2\n        /* \"#utility.yul\":7490:7506   */\n      add\n        /* \"#utility.yul\":7539:7542   */\n      dup5\n        /* \"#utility.yul\":7530:7536   */\n      dup5\n        /* \"#utility.yul\":7525:7528   */\n      dup5\n        /* \"#utility.yul\":7521:7537   */\n      add\n        /* \"#utility.yul\":7518:7543   */\n      gt\n        /* \"#utility.yul\":7515:7627   */\n      iszero\n      tag_450\n      jumpi\n        /* \"#utility.yul\":7546:7625   */\n      tag_451\n      tag_309\n      jump\t// in\n    tag_451:\n        /* \"#utility.yul\":7515:7627   */\n    tag_450:\n        /* \"#utility.yul\":7636:7690   */\n      tag_452\n        /* \"#utility.yul\":7683:7689   */\n      dup5\n        /* \"#utility.yul\":7678:7681   */\n      dup3\n        /* \"#utility.yul\":7673:7676   */\n      dup6\n        /* \"#utility.yul\":7636:7690   */\n      tag_314\n      jump\t// in\n    tag_452:\n        /* \"#utility.yul\":7355:7696   */\n      pop\n        /* \"#utility.yul\":7271:7696   */\n      swap4\n      swap3\n      pop\n      pop\n      pop\n      jump\t// out\n        /* \"#utility.yul\":7716:8056   */\n    tag_316:\n        /* \"#utility.yul\":7772:7777   */\n      0x00\n        /* \"#utility.yul\":7821:7824   */\n      dup3\n        /* \"#utility.yul\":7814:7818   */\n      0x1f\n        /* \"#utility.yul\":7806:7812   */\n      dup4\n        /* \"#utility.yul\":7802:7819   */\n      add\n        /* \"#utility.yul\":7798:7825   */\n      slt\n        /* \"#utility.yul\":7788:7910   */\n      tag_454\n      jumpi\n        /* \"#utility.yul\":7829:7908   */\n      tag_455\n      tag_308\n      jump\t// in\n    tag_455:\n        /* \"#utility.yul\":7788:7910   */\n    tag_454:\n        /* \"#utility.yul\":7946:7952   */\n      dup2\n        /* \"#utility.yul\":7933:7953   */\n      calldataload\n        /* \"#utility.yul\":7971:8050   */\n      tag_456\n        /* \"#utility.yul\":8046:8049   */\n      dup5\n        /* \"#utility.yul\":8038:8044   */\n      dup3\n        /* \"#utility.yul\":8031:8035   */\n      0x20\n        /* \"#utility.yul\":8023:8029   */\n      dup7\n        /* \"#utility.yul\":8019:8036   */\n      add\n        /* \"#utility.yul\":7971:8050   */\n      tag_315\n      jump\t// in\n    tag_456:\n        /* \"#utility.yul\":7962:8050   */\n      swap2\n      pop\n        /* \"#utility.yul\":7778:8056   */\n      pop\n        /* \"#utility.yul\":7716:8056   */\n      swap3\n      swap2\n      pop\n      pop\n      jump\t// out\n        /* \"#utility.yul\":8062:8716   */\n    tag_92:\n        /* \"#utility.yul\":8140:8146   */\n      0x00\n        /* \"#utility.yul\":8148:8154   */\n      dup1\n        /* \"#utility.yul\":8197:8199   */\n      0x40\n        /* \"#utility.yul\":8185:8194   */\n      dup4\n        /* \"#utility.yul\":8176:8183   */\n      dup6\n        /* \"#utility.yul\":8172:8195   */\n      sub\n        /* \"#utility.yul\":8168:8200   */\n      slt\n        /* \"#utility.yul\":8165:8284   */\n      iszero\n      tag_458\n      jumpi\n        /* \"#utility.yul\":8203:8282   */\n      tag_459\n      tag_286\n      jump\t// in\n    tag_459:\n        /* \"#utility.yul\":8165:8284   */\n    tag_458:\n        /* \"#utility.yul\":8351:8352   */\n      0x00\n        /* \"#utility.yul\":8340:8349   */\n      dup4\n        /* \"#utility.yul\":8336:8353   */\n      add\n        /* \"#utility.yul\":8323:8354   */\n      calldataload\n        /* \"#utility.yul\":8381:8399   */\n      0xffffffffffffffff\n        /* \"#utility.yul\":8373:8379   */\n      dup2\n        /* \"#utility.yul\":8370:8400   */\n      gt\n        /* \"#utility.yul\":8367:8484   */\n      iszero\n      tag_460\n      jumpi\n        /* \"#utility.yul\":8403:8482   */\n      tag_461\n      tag_287\n      jump\t// in\n    tag_461:\n        /* \"#utility.yul\":8367:8484   */\n    tag_460:\n        /* \"#utility.yul\":8508:8571   */\n      tag_462\n        /* \"#utility.yul\":8563:8570   */\n      dup6\n        /* \"#utility.yul\":8554:8560   */\n      dup3\n        /* \"#utility.yul\":8543:8552   */\n      dup7\n        /* \"#utility.yul\":8539:8561   */\n      add\n        /* \"#utility.yul\":8508:8571   */\n      tag_316\n      jump\t// in\n    tag_462:\n        /* \"#utility.yul\":8498:8571   */\n      swap3\n      pop\n        /* \"#utility.yul\":8294:8581   */\n      pop\n        /* \"#utility.yul\":8620:8622   */\n      0x20\n        /* \"#utility.yul\":8646:8699   */\n      tag_463\n        /* \"#utility.yul\":8691:8698   */\n      dup6\n        /* \"#utility.yul\":8682:8688   */\n      dup3\n        /* \"#utility.yul\":8671:8680   */\n      dup7\n        /* \"#utility.yul\":8667:8689   */\n      add\n        /* \"#utility.yul\":8646:8699   */\n      tag_290\n      jump\t// in\n    tag_463:\n        /* \"#utility.yul\":8636:8699   */\n      swap2\n      pop\n        /* \"#utility.yul\":8591:8709   */\n      pop\n        /* \"#utility.yul\":8062:8716   */\n      swap3\n      pop\n      swap3\n      swap1\n      pop\n      jump\t// out\n        /* \"#utility.yul\":8722:9051   */\n    tag_97:\n        /* \"#utility.yul\":8781:8787   */\n      0x00\n        /* \"#utility.yul\":8830:8832   */\n      0x20\n        /* \"#utility.yul\":8818:8827   */\n      dup3\n        /* \"#utility.yul\":8809:8816   */\n      dup5\n        /* \"#utility.yul\":8805:8828   */\n      sub\n        /* \"#utility.yul\":8801:8833   */\n      slt\n        /* \"#utility.yul\":8798:8917   */\n      iszero\n      tag_465\n      jumpi\n        /* \"#utility.yul\":8836:8915   */\n      tag_466\n      tag_286\n      jump\t// in\n    tag_466:\n        /* \"#utility.yul\":8798:8917   */\n    tag_465:\n        /* \"#utility.yul\":8956:8957   */\n      0x00\n        /* \"#utility.yul\":8981:9034   */\n      tag_467\n        /* \"#utility.yul\":9026:9033   */\n      dup5\n        /* \"#utility.yul\":9017:9023   */\n      dup3\n        /* \"#utility.yul\":9006:9015   */\n      dup6\n        /* \"#utility.yul\":9002:9024   */\n      add\n        /* \"#utility.yul\":8981:9034   */\n      tag_306\n      jump\t// in\n    tag_467:\n        /* \"#utility.yul\":8971:9034   */\n      swap2\n      pop\n        /* \"#utility.yul\":8927:9044   */\n      pop\n        /* \"#utility.yul\":8722:9051   */\n      swap3\n      swap2\n      pop\n      pop\n      jump\t// out\n        /* \"#utility.yul\":9057:9191   */\n    tag_317:\n        /* \"#utility.yul\":9144:9150   */\n      0x00\n        /* \"#utility.yul\":9178:9183   */\n      dup2\n        /* \"#utility.yul\":9172:9184   */\n      mload\n        /* \"#utility.yul\":9162:9184   */\n      swap1\n      pop\n        /* \"#utility.yul\":9057:9191   */\n      swap2\n      swap1\n      pop\n      jump\t// out\n        /* \"#utility.yul\":9197:9401   */\n    tag_318:\n        /* \"#utility.yul\":9316:9327   */\n      0x00\n        /* \"#utility.yul\":9350:9356   */\n      dup3\n        /* \"#utility.yul\":9345:9348   */\n      dup3\n        /* \"#utility.yul\":9338:9357   */\n      mstore\n        /* \"#utility.yul\":9390:9394   */\n      0x20\n        /* \"#utility.yul\":9385:9388   */\n      dup3\n        /* \"#utility.yul\":9381:9395   */\n      add\n        /* \"#utility.yul\":9366:9395   */\n      swap1\n      pop\n        /* \"#utility.yul\":9197:9401   */\n      swap3\n      swap2\n      pop\n      pop\n      jump\t// out\n        /* \"#utility.yul\":9407:9559   */\n    tag_319:\n        /* \"#utility.yul\":9494:9498   */\n      0x00\n        /* \"#utility.yul\":9517:9520   */\n      dup2\n        /* \"#utility.yul\":9509:9520   */\n      swap1\n      pop\n        /* \"#utility.yul\":9547:9551   */\n      0x20\n        /* \"#utility.yul\":9542:9545   */\n      dup3\n        /* \"#utility.yul\":9538:9552   */\n      add\n        /* \"#utility.yul\":9530:9552   */\n      swap1\n      pop\n        /* \"#utility.yul\":9407:9559   */\n      swap2\n      swap1\n      pop\n      jump\t// out\n        /* \"#utility.yul\":9565:9724   */\n    tag_320:\n        /* \"#utility.yul\":9639:9650   */\n      0x00\n        /* \"#utility.yul\":9673:9679   */\n      dup3\n        /* \"#utility.yul\":9668:9671   */\n      dup3\n        /* \"#utility.yul\":9661:9680   */\n      mstore\n        /* \"#utility.yul\":9713:9717   */\n      0x20\n        /* \"#utility.yul\":9708:9711   */\n      dup3\n        /* \"#utility.yul\":9704:9718   */\n      add\n        /* \"#utility.yul\":9689:9718   */\n      swap1\n      pop\n        /* \"#utility.yul\":9565:9724   */\n      swap3\n      swap2\n      pop\n      pop\n      jump\t// out\n        /* \"#utility.yul\":9730:10087   */\n    tag_321:\n        /* \"#utility.yul\":9808:9811   */\n      0x00\n        /* \"#utility.yul\":9836:9875   */\n      tag_473\n        /* \"#utility.yul\":9869:9874   */\n      dup3\n        /* \"#utility.yul\":9836:9875   */\n      tag_291\n      jump\t// in\n    tag_473:\n        /* \"#utility.yul\":9891:9952   */\n      tag_474\n        /* \"#utility.yul\":9945:9951   */\n      dup2\n        /* \"#utility.yul\":9940:9943   */\n      dup6\n        /* \"#utility.yul\":9891:9952   */\n      tag_320\n      jump\t// in\n    tag_474:\n        /* \"#utility.yul\":9884:9952   */\n      swap4\n      pop\n        /* \"#utility.yul\":9961:10026   */\n      tag_475\n        /* \"#utility.yul\":10019:10025   */\n      dup2\n        /* \"#utility.yul\":10014:10017   */\n      dup6\n        /* \"#utility.yul\":10007:10011   */\n      0x20\n        /* \"#utility.yul\":10000:10005   */\n      dup7\n        /* \"#utility.yul\":9996:10012   */\n      add\n        /* \"#utility.yul\":9961:10026   */\n      tag_293\n      jump\t// in\n    tag_475:\n        /* \"#utility.yul\":10051:10080   */\n      tag_476\n        /* \"#utility.yul\":10073:10079   */\n      dup2\n        /* \"#utility.yul\":10051:10080   */\n      tag_294\n      jump\t// in\n    tag_476:\n        /* \"#utility.yul\":10046:10049   */\n      dup5\n        /* \"#utility.yul\":10042:10081   */\n      add\n        /* \"#utility.yul\":10035:10081   */\n      swap2\n      pop\n        /* \"#utility.yul\":9812:10087   */\n      pop\n        /* \"#utility.yul\":9730:10087   */\n      swap3\n      swap2\n      pop\n      pop\n      jump\t// out\n        /* \"#utility.yul\":10093:10201   */\n    tag_322:\n        /* \"#utility.yul\":10170:10194   */\n      tag_478\n        /* \"#utility.yul\":10188:10193   */\n      dup2\n        /* \"#utility.yul\":10170:10194   */\n      tag_288\n      jump\t// in\n    tag_478:\n        /* \"#utility.yul\":10165:10168   */\n      dup3\n        /* \"#utility.yul\":10158:10195   */\n      mstore\n        /* \"#utility.yul\":10093:10201   */\n      pop\n      pop\n      jump\t// out\n        /* \"#utility.yul\":10267:11032   */\n    tag_323:\n        /* \"#utility.yul\":10366:10369   */\n      0x00\n        /* \"#utility.yul\":10402:10406   */\n      0x60\n        /* \"#utility.yul\":10397:10400   */\n      dup4\n        /* \"#utility.yul\":10393:10407   */\n      add\n        /* \"#utility.yul\":10489:10493   */\n      0x00\n        /* \"#utility.yul\":10482:10487   */\n      dup4\n        /* \"#utility.yul\":10478:10494   */\n      add\n        /* \"#utility.yul\":10472:10495   */\n      mload\n        /* \"#utility.yul\":10542:10545   */\n      dup5\n        /* \"#utility.yul\":10536:10540   */\n      dup3\n        /* \"#utility.yul\":10532:10546   */\n      sub\n        /* \"#utility.yul\":10525:10529   */\n      0x00\n        /* \"#utility.yul\":10520:10523   */\n      dup7\n        /* \"#utility.yul\":10516:10530   */\n      add\n        /* \"#utility.yul\":10509:10547   */\n      mstore\n        /* \"#utility.yul\":10568:10641   */\n      tag_480\n        /* \"#utility.yul\":10636:10640   */\n      dup3\n        /* \"#utility.yul\":10622:10634   */\n      dup3\n        /* \"#utility.yul\":10568:10641   */\n      tag_321\n      jump\t// in\n    tag_480:\n        /* \"#utility.yul\":10560:10641   */\n      swap2\n      pop\n        /* \"#utility.yul\":10417:10652   */\n      pop\n        /* \"#utility.yul\":10736:10740   */\n      0x20\n        /* \"#utility.yul\":10729:10734   */\n      dup4\n        /* \"#utility.yul\":10725:10741   */\n      add\n        /* \"#utility.yul\":10719:10742   */\n      mload\n        /* \"#utility.yul\":10755:10818   */\n      tag_481\n        /* \"#utility.yul\":10812:10816   */\n      0x20\n        /* \"#utility.yul\":10807:10810   */\n      dup7\n        /* \"#utility.yul\":10803:10817   */\n      add\n        /* \"#utility.yul\":10789:10801   */\n      dup3\n        /* \"#utility.yul\":10755:10818   */\n      tag_322\n      jump\t// in\n    tag_481:\n        /* \"#utility.yul\":10662:10828   */\n      pop\n        /* \"#utility.yul\":10913:10917   */\n      0x40\n        /* \"#utility.yul\":10906:10911   */\n      dup4\n        /* \"#utility.yul\":10902:10918   */\n      add\n        /* \"#utility.yul\":10896:10919   */\n      mload\n        /* \"#utility.yul\":10932:10995   */\n      tag_482\n        /* \"#utility.yul\":10989:10993   */\n      0x40\n        /* \"#utility.yul\":10984:10987   */\n      dup7\n        /* \"#utility.yul\":10980:10994   */\n      add\n        /* \"#utility.yul\":10966:10978   */\n      dup3\n        /* \"#utility.yul\":10932:10995   */\n      tag_322\n      jump\t// in\n    tag_482:\n        /* \"#utility.yul\":10838:11005   */\n      pop\n        /* \"#utility.yul\":11022:11026   */\n      dup1\n        /* \"#utility.yul\":11015:11026   */\n      swap2\n      pop\n        /* \"#utility.yul\":10371:11032   */\n      pop\n        /* \"#utility.yul\":10267:11032   */\n      swap3\n      swap2\n      pop\n      pop\n      jump\t// out\n        /* \"#utility.yul\":11038:11274   */\n    tag_324:\n        /* \"#utility.yul\":11147:11157   */\n      0x00\n        /* \"#utility.yul\":11182:11268   */\n      tag_484\n        /* \"#utility.yul\":11264:11267   */\n      dup4\n        /* \"#utility.yul\":11256:11262   */\n      dup4\n        /* \"#utility.yul\":11182:11268   */\n      tag_323\n      jump\t// in\n    tag_484:\n        /* \"#utility.yul\":11168:11268   */\n      swap1\n      pop\n        /* \"#utility.yul\":11038:11274   */\n      swap3\n      swap2\n      pop\n      pop\n      jump\t// out\n        /* \"#utility.yul\":11280:11413   */\n    tag_325:\n        /* \"#utility.yul\":11370:11374   */\n      0x00\n        /* \"#utility.yul\":11402:11406   */\n      0x20\n        /* \"#utility.yul\":11397:11400   */\n      dup3\n        /* \"#utility.yul\":11393:11407   */\n      add\n        /* \"#utility.yul\":11385:11407   */\n      swap1\n      pop\n        /* \"#utility.yul\":11280:11413   */\n      swap2\n      swap1\n      pop\n      jump\t// out\n        /* \"#utility.yul\":11483:12554   */\n    tag_326:\n        /* \"#utility.yul\":11642:11645   */\n      0x00\n        /* \"#utility.yul\":11671:11745   */\n      tag_487\n        /* \"#utility.yul\":11739:11744   */\n      dup3\n        /* \"#utility.yul\":11671:11745   */\n      tag_317\n      jump\t// in\n    tag_487:\n        /* \"#utility.yul\":11761:11867   */\n      tag_488\n        /* \"#utility.yul\":11860:11866   */\n      dup2\n        /* \"#utility.yul\":11855:11858   */\n      dup6\n        /* \"#utility.yul\":11761:11867   */\n      tag_318\n      jump\t// in\n    tag_488:\n        /* \"#utility.yul\":11754:11867   */\n      swap4\n      pop\n        /* \"#utility.yul\":11893:11896   */\n      dup4\n        /* \"#utility.yul\":11938:11942   */\n      0x20\n        /* \"#utility.yul\":11930:11936   */\n      dup3\n        /* \"#utility.yul\":11926:11943   */\n      mul\n        /* \"#utility.yul\":11921:11924   */\n      dup6\n        /* \"#utility.yul\":11917:11944   */\n      add\n        /* \"#utility.yul\":11968:12044   */\n      tag_489\n        /* \"#utility.yul\":12038:12043   */\n      dup6\n        /* \"#utility.yul\":11968:12044   */\n      tag_319\n      jump\t// in\n    tag_489:\n        /* \"#utility.yul\":12067:12074   */\n      dup1\n        /* \"#utility.yul\":12098:12099   */\n      0x00\n        /* \"#utility.yul\":12083:12509   */\n    tag_490:\n        /* \"#utility.yul\":12108:12114   */\n      dup6\n        /* \"#utility.yul\":12105:12106   */\n      dup2\n        /* \"#utility.yul\":12102:12115   */\n      lt\n        /* \"#utility.yul\":12083:12509   */\n      iszero\n      tag_492\n      jumpi\n        /* \"#utility.yul\":12179:12188   */\n      dup5\n        /* \"#utility.yul\":12173:12177   */\n      dup5\n        /* \"#utility.yul\":12169:12189   */\n      sub\n        /* \"#utility.yul\":12164:12167   */\n      dup10\n        /* \"#utility.yul\":12157:12190   */\n      mstore\n        /* \"#utility.yul\":12230:12236   */\n      dup2\n        /* \"#utility.yul\":12224:12237   */\n      mload\n        /* \"#utility.yul\":12258:12362   */\n      tag_493\n        /* \"#utility.yul\":12357:12361   */\n      dup6\n        /* \"#utility.yul\":12342:12355   */\n      dup3\n        /* \"#utility.yul\":12258:12362   */\n      tag_324\n      jump\t// in\n    tag_493:\n        /* \"#utility.yul\":12250:12362   */\n      swap5\n      pop\n        /* \"#utility.yul\":12385:12465   */\n      tag_494\n        /* \"#utility.yul\":12458:12464   */\n      dup4\n        /* \"#utility.yul\":12385:12465   */\n      tag_325\n      jump\t// in\n    tag_494:\n        /* \"#utility.yul\":12375:12465   */\n      swap3\n      pop\n        /* \"#utility.yul\":12494:12498   */\n      0x20\n        /* \"#utility.yul\":12489:12492   */\n      dup11\n        /* \"#utility.yul\":12485:12499   */\n      add\n        /* \"#utility.yul\":12478:12499   */\n      swap10\n      pop\n        /* \"#utility.yul\":12143:12509   */\n      pop\n        /* \"#utility.yul\":12130:12131   */\n      0x01\n        /* \"#utility.yul\":12127:12128   */\n      dup2\n        /* \"#utility.yul\":12123:12132   */\n      add\n        /* \"#utility.yul\":12118:12132   */\n      swap1\n      pop\n        /* \"#utility.yul\":12083:12509   */\n      jump(tag_490)\n    tag_492:\n        /* \"#utility.yul\":12087:12101   */\n      pop\n        /* \"#utility.yul\":12525:12529   */\n      dup3\n        /* \"#utility.yul\":12518:12529   */\n      swap8\n      pop\n        /* \"#utility.yul\":12545:12548   */\n      dup8\n        /* \"#utility.yul\":12538:12548   */\n      swap6\n      pop\n        /* \"#utility.yul\":11647:12554   */\n      pop\n      pop\n      pop\n      pop\n      pop\n        /* \"#utility.yul\":11483:12554   */\n      swap3\n      swap2\n      pop\n      pop\n      jump\t// out\n        /* \"#utility.yul\":12560:13013   */\n    tag_114:\n        /* \"#utility.yul\":12743:12747   */\n      0x00\n        /* \"#utility.yul\":12781:12783   */\n      0x20\n        /* \"#utility.yul\":12770:12779   */\n      dup3\n        /* \"#utility.yul\":12766:12784   */\n      add\n        /* \"#utility.yul\":12758:12784   */\n      swap1\n      pop\n        /* \"#utility.yul\":12830:12839   */\n      dup2\n        /* \"#utility.yul\":12824:12828   */\n      dup2\n        /* \"#utility.yul\":12820:12840   */\n      sub\n        /* \"#utility.yul\":12816:12817   */\n      0x00\n        /* \"#utility.yul\":12805:12814   */\n      dup4\n        /* \"#utility.yul\":12801:12818   */\n      add\n        /* \"#utility.yul\":12794:12841   */\n      mstore\n        /* \"#utility.yul\":12858:13006   */\n      tag_496\n        /* \"#utility.yul\":13001:13005   */\n      dup2\n        /* \"#utility.yul\":12992:12998   */\n      dup5\n        /* \"#utility.yul\":12858:13006   */\n      tag_326\n      jump\t// in\n    tag_496:\n        /* \"#utility.yul\":12850:13006   */\n      swap1\n      pop\n        /* \"#utility.yul\":12560:13013   */\n      swap3\n      swap2\n      pop\n      pop\n      jump\t// out\n        /* \"#utility.yul\":13019:13199   */\n    tag_327:\n        /* \"#utility.yul\":13067:13144   */\n      0x4e487b7100000000000000000000000000000000000000000000000000000000\n        /* \"#utility.yul\":13064:13065   */\n      0x00\n        /* \"#utility.yul\":13057:13145   */\n      mstore\n        /* \"#utility.yul\":13164:13168   */\n      0x22\n        /* \"#utility.yul\":13161:13162   */\n      0x04\n        /* \"#utility.yul\":13154:13169   */\n      mstore\n        /* \"#utility.yul\":13188:13192   */\n      0x24\n        /* \"#utility.yul\":13185:13186   */\n      0x00\n        /* \"#utility.yul\":13178:13193   */\n      revert\n        /* \"#utility.yul\":13205:13525   */\n    tag_118:\n        /* \"#utility.yul\":13249:13255   */\n      0x00\n        /* \"#utility.yul\":13286:13287   */\n      0x02\n        /* \"#utility.yul\":13280:13284   */\n      dup3\n        /* \"#utility.yul\":13276:13288   */\n      div\n        /* \"#utility.yul\":13266:13288   */\n      swap1\n      pop\n        /* \"#utility.yul\":13333:13334   */\n      0x01\n        /* \"#utility.yul\":13327:13331   */\n      dup3\n        /* \"#utility.yul\":13323:13335   */\n      and\n        /* \"#utility.yul\":13354:13372   */\n      dup1\n        /* \"#utility.yul\":13344:13425   */\n      tag_499\n      jumpi\n        /* \"#utility.yul\":13410:13414   */\n      0x7f\n        /* \"#utility.yul\":13402:13408   */\n      dup3\n        /* \"#utility.yul\":13398:13415   */\n      and\n        /* \"#utility.yul\":13388:13415   */\n      swap2\n      pop\n        /* \"#utility.yul\":13344:13425   */\n    tag_499:\n        /* \"#utility.yul\":13472:13474   */\n      0x20\n        /* \"#utility.yul\":13464:13470   */\n      dup3\n        /* \"#utility.yul\":13461:13475   */\n      lt\n        /* \"#utility.yul\":13441:13459   */\n      dup2\n        /* \"#utility.yul\":13438:13476   */\n      sub\n        /* \"#utility.yul\":13435:13519   */\n      tag_500\n      jumpi\n        /* \"#utility.yul\":13491:13509   */\n      tag_501\n      tag_327\n      jump\t// in\n    tag_501:\n        /* \"#utility.yul\":13435:13519   */\n    tag_500:\n        /* \"#utility.yul\":13256:13525   */\n      pop\n        /* \"#utility.yul\":13205:13525   */\n      swap2\n      swap1\n      pop\n      jump\t// out\n        /* \"#utility.yul\":13531:13694   */\n    tag_328:\n        /* \"#utility.yul\":13671:13686   */\n      0x4e6f7420746865206f776e657200000000000000000000000000000000000000\n        /* \"#utility.yul\":13667:13668   */\n      0x00\n        /* \"#utility.yul\":13659:13665   */\n      dup3\n        /* \"#utility.yul\":13655:13669   */\n      add\n        /* \"#utility.yul\":13648:13687   */\n      mstore\n        /* \"#utility.yul\":13531:13694   */\n      pop\n      jump\t// out\n        /* \"#utility.yul\":13700:14066   */\n    tag_329:\n        /* \"#utility.yul\":13842:13845   */\n      0x00\n        /* \"#utility.yul\":13863:13930   */\n      tag_504\n        /* \"#utility.yul\":13927:13929   */\n      0x0d\n        /* \"#utility.yul\":13922:13925   */\n      dup4\n        /* \"#utility.yul\":13863:13930   */\n      tag_292\n      jump\t// in\n    tag_504:\n        /* \"#utility.yul\":13856:13930   */\n      swap2\n      pop\n        /* \"#utility.yul\":13939:14032   */\n      tag_505\n        /* \"#utility.yul\":14028:14031   */\n      dup3\n        /* \"#utility.yul\":13939:14032   */\n      tag_328\n      jump\t// in\n    tag_505:\n        /* \"#utility.yul\":14057:14059   */\n      0x20\n        /* \"#utility.yul\":14052:14055   */\n      dup3\n        /* \"#utility.yul\":14048:14060   */\n      add\n        /* \"#utility.yul\":14041:14060   */\n      swap1\n      pop\n        /* \"#utility.yul\":13700:14066   */\n      swap2\n      swap1\n      pop\n      jump\t// out\n        /* \"#utility.yul\":14072:14491   */\n    tag_141:\n        /* \"#utility.yul\":14238:14242   */\n      0x00\n        /* \"#utility.yul\":14276:14278   */\n      0x20\n        /* \"#utility.yul\":14265:14274   */\n      dup3\n        /* \"#utility.yul\":14261:14279   */\n      add\n        /* \"#utility.yul\":14253:14279   */\n      swap1\n      pop\n        /* \"#utility.yul\":14325:14334   */\n      dup2\n        /* \"#utility.yul\":14319:14323   */\n      dup2\n        /* \"#utility.yul\":14315:14335   */\n      sub\n        /* \"#utility.yul\":14311:14312   */\n      0x00\n        /* \"#utility.yul\":14300:14309   */\n      dup4\n        /* \"#utility.yul\":14296:14313   */\n      add\n        /* \"#utility.yul\":14289:14336   */\n      mstore\n        /* \"#utility.yul\":14353:14484   */\n      tag_507\n        /* \"#utility.yul\":14479:14483   */\n      dup2\n        /* \"#utility.yul\":14353:14484   */\n      tag_329\n      jump\t// in\n    tag_507:\n        /* \"#utility.yul\":14345:14484   */\n      swap1\n      pop\n        /* \"#utility.yul\":14072:14491   */\n      swap2\n      swap1\n      pop\n      jump\t// out\n        /* \"#utility.yul\":14497:14673   */\n    tag_330:\n        /* \"#utility.yul\":14637:14665   */\n      0x43616d706169676e206973206e6f74207375636365737366756c000000000000\n        /* \"#utility.yul\":14633:14634   */\n      0x00\n        /* \"#utility.yul\":14625:14631   */\n      dup3\n        /* \"#utility.yul\":14621:14635   */\n      add\n        /* \"#utility.yul\":14614:14666   */\n      mstore\n        /* \"#utility.yul\":14497:14673   */\n      pop\n      jump\t// out\n        /* \"#utility.yul\":14679:15045   */\n    tag_331:\n        /* \"#utility.yul\":14821:14824   */\n      0x00\n        /* \"#utility.yul\":14842:14909   */\n      tag_510\n        /* \"#utility.yul\":14906:14908   */\n      0x1a\n        /* \"#utility.yul\":14901:14904   */\n      dup4\n        /* \"#utility.yul\":14842:14909   */\n      tag_292\n      jump\t// in\n    tag_510:\n        /* \"#utility.yul\":14835:14909   */\n      swap2\n      pop\n        /* \"#utility.yul\":14918:15011   */\n      tag_511\n        /* \"#utility.yul\":15007:15010   */\n      dup3\n        /* \"#utility.yul\":14918:15011   */\n      tag_330\n      jump\t// in\n    tag_511:\n        /* \"#utility.yul\":15036:15038   */\n      0x20\n        /* \"#utility.yul\":15031:15034   */\n      dup3\n        /* \"#utility.yul\":15027:15039   */\n      add\n        /* \"#utility.yul\":15020:15039   */\n      swap1\n      pop\n        /* \"#utility.yul\":14679:15045   */\n      swap2\n      swap1\n      pop\n      jump\t// out\n        /* \"#utility.yul\":15051:15470   */\n    tag_151:\n        /* \"#utility.yul\":15217:15221   */\n      0x00\n        /* \"#utility.yul\":15255:15257   */\n      0x20\n        /* \"#utility.yul\":15244:15253   */\n      dup3\n        /* \"#utility.yul\":15240:15258   */\n      add\n        /* \"#utility.yul\":15232:15258   */\n      swap1\n      pop\n        /* \"#utility.yul\":15304:15313   */\n      dup2\n        /* \"#utility.yul\":15298:15302   */\n      dup2\n        /* \"#utility.yul\":15294:15314   */\n      sub\n        /* \"#utility.yul\":15290:15291   */\n      0x00\n        /* \"#utility.yul\":15279:15288   */\n      dup4\n        /* \"#utility.yul\":15275:15292   */\n      add\n        /* \"#utility.yul\":15268:15315   */\n      mstore\n        /* \"#utility.yul\":15332:15463   */\n      tag_513\n        /* \"#utility.yul\":15458:15462   */\n      dup2\n        /* \"#utility.yul\":15332:15463   */\n      tag_331\n      jump\t// in\n    tag_513:\n        /* \"#utility.yul\":15324:15463   */\n      swap1\n      pop\n        /* \"#utility.yul\":15051:15470   */\n      swap2\n      swap1\n      pop\n      jump\t// out\n        /* \"#utility.yul\":15476:15648   */\n    tag_332:\n        /* \"#utility.yul\":15616:15640   */\n      0x4e6f2062616c616e636520746f20776974686472617700000000000000000000\n        /* \"#utility.yul\":15612:15613   */\n      0x00\n        /* \"#utility.yul\":15604:15610   */\n      dup3\n        /* \"#utility.yul\":15600:15614   */\n      add\n        /* \"#utility.yul\":15593:15641   */\n      mstore\n        /* \"#utility.yul\":15476:15648   */\n      pop\n      jump\t// out\n        /* \"#utility.yul\":15654:16020   */\n    tag_333:\n        /* \"#utility.yul\":15796:15799   */\n      0x00\n        /* \"#utility.yul\":15817:15884   */\n      tag_516\n        /* \"#utility.yul\":15881:15883   */\n      0x16\n        /* \"#utility.yul\":15876:15879   */\n      dup4\n        /* \"#utility.yul\":15817:15884   */\n      tag_292\n      jump\t// in\n    tag_516:\n        /* \"#utility.yul\":15810:15884   */\n      swap2\n      pop\n        /* \"#utility.yul\":15893:15986   */\n      tag_517\n        /* \"#utility.yul\":15982:15985   */\n      dup3\n        /* \"#utility.yul\":15893:15986   */\n      tag_332\n      jump\t// in\n    tag_517:\n        /* \"#utility.yul\":16011:16013   */\n      0x20\n        /* \"#utility.yul\":16006:16009   */\n      dup3\n        /* \"#utility.yul\":16002:16014   */\n      add\n        /* \"#utility.yul\":15995:16014   */\n      swap1\n      pop\n        /* \"#utility.yul\":15654:16020   */\n      swap2\n      swap1\n      pop\n      jump\t// out\n        /* \"#utility.yul\":16026:16445   */\n    tag_154:\n        /* \"#utility.yul\":16192:16196   */\n      0x00\n        /* \"#utility.yul\":16230:16232   */\n      0x20\n        /* \"#utility.yul\":16219:16228   */\n      dup3\n        /* \"#utility.yul\":16215:16233   */\n      add\n        /* \"#utility.yul\":16207:16233   */\n      swap1\n      pop\n        /* \"#utility.yul\":16279:16288   */\n      dup2\n        /* \"#utility.yul\":16273:16277   */\n      dup2\n        /* \"#utility.yul\":16269:16289   */\n      sub\n        /* \"#utility.yul\":16265:16266   */\n      0x00\n        /* \"#utility.yul\":16254:16263   */\n      dup4\n        /* \"#utility.yul\":16250:16267   */\n      add\n        /* \"#utility.yul\":16243:16290   */\n      mstore\n        /* \"#utility.yul\":16307:16438   */\n      tag_519\n        /* \"#utility.yul\":16433:16437   */\n      dup2\n        /* \"#utility.yul\":16307:16438   */\n      tag_333\n      jump\t// in\n    tag_519:\n        /* \"#utility.yul\":16299:16438   */\n      swap1\n      pop\n        /* \"#utility.yul\":16026:16445   */\n      swap2\n      swap1\n      pop\n      jump\t// out\n        /* \"#utility.yul\":16451:16626   */\n    tag_334:\n        /* \"#utility.yul\":16591:16618   */\n      0x4e6f20436f6e747269627574696f6e20746f20726566756e6400000000000000\n        /* \"#utility.yul\":16587:16588   */\n      0x00\n        /* \"#utility.yul\":16579:16585   */\n      dup3\n        /* \"#utility.yul\":16575:16589   */\n      add\n        /* \"#utility.yul\":16568:16619   */\n      mstore\n        /* \"#utility.yul\":16451:16626   */\n      pop\n      jump\t// out\n        /* \"#utility.yul\":16632:16998   */\n    tag_335:\n        /* \"#utility.yul\":16774:16777   */\n      0x00\n        /* \"#utility.yul\":16795:16862   */\n      tag_522\n        /* \"#utility.yul\":16859:16861   */\n      0x19\n        /* \"#utility.yul\":16854:16857   */\n      dup4\n        /* \"#utility.yul\":16795:16862   */\n      tag_292\n      jump\t// in\n    tag_522:\n        /* \"#utility.yul\":16788:16862   */\n      swap2\n      pop\n        /* \"#utility.yul\":16871:16964   */\n      tag_523\n        /* \"#utility.yul\":16960:16963   */\n      dup3\n        /* \"#utility.yul\":16871:16964   */\n      tag_334\n      jump\t// in\n    tag_523:\n        /* \"#utility.yul\":16989:16991   */\n      0x20\n        /* \"#utility.yul\":16984:16987   */\n      dup3\n        /* \"#utility.yul\":16980:16992   */\n      add\n        /* \"#utility.yul\":16973:16992   */\n      swap1\n      pop\n        /* \"#utility.yul\":16632:16998   */\n      swap2\n      swap1\n      pop\n      jump\t// out\n        /* \"#utility.yul\":17004:17423   */\n    tag_161:\n        /* \"#utility.yul\":17170:17174   */\n      0x00\n        /* \"#utility.yul\":17208:17210   */\n      0x20\n        /* \"#utility.yul\":17197:17206   */\n      dup3\n        /* \"#utility.yul\":17193:17211   */\n      add\n        /* \"#utility.yul\":17185:17211   */\n      swap1\n      pop\n        /* \"#utility.yul\":17257:17266   */\n      dup2\n        /* \"#utility.yul\":17251:17255   */\n      dup2\n        /* \"#utility.yul\":17247:17267   */\n      sub\n        /* \"#utility.yul\":17243:17244   */\n      0x00\n        /* \"#utility.yul\":17232:17241   */\n      dup4\n        /* \"#utility.yul\":17228:17245   */\n      add\n        /* \"#utility.yul\":17221:17268   */\n      mstore\n        /* \"#utility.yul\":17285:17416   */\n      tag_525\n        /* \"#utility.yul\":17411:17415   */\n      dup2\n        /* \"#utility.yul\":17285:17416   */\n      tag_335\n      jump\t// in\n    tag_525:\n        /* \"#utility.yul\":17277:17416   */\n      swap1\n      pop\n        /* \"#utility.yul\":17004:17423   */\n      swap2\n      swap1\n      pop\n      jump\t// out\n        /* \"#utility.yul\":17429:17601   */\n    tag_336:\n        /* \"#utility.yul\":17569:17593   */\n      0x43616d706169676e206973206e6f742061637469766500000000000000000000\n        /* \"#utility.yul\":17565:17566   */\n      0x00\n        /* \"#utility.yul\":17557:17563   */\n      dup3\n        /* \"#utility.yul\":17553:17567   */\n      add\n        /* \"#utility.yul\":17546:17594   */\n      mstore\n        /* \"#utility.yul\":17429:17601   */\n      pop\n      jump\t// out\n        /* \"#utility.yul\":17607:17973   */\n    tag_337:\n        /* \"#utility.yul\":17749:17752   */\n      0x00\n        /* \"#utility.yul\":17770:17837   */\n      tag_528\n        /* \"#utility.yul\":17834:17836   */\n      0x16\n        /* \"#utility.yul\":17829:17832   */\n      dup4\n        /* \"#utility.yul\":17770:17837   */\n      tag_292\n      jump\t// in\n    tag_528:\n        /* \"#utility.yul\":17763:17837   */\n      swap2\n      pop\n        /* \"#utility.yul\":17846:17939   */\n      tag_529\n        /* \"#utility.yul\":17935:17938   */\n      dup3\n        /* \"#utility.yul\":17846:17939   */\n      tag_336\n      jump\t// in\n    tag_529:\n        /* \"#utility.yul\":17964:17966   */\n      0x20\n        /* \"#utility.yul\":17959:17962   */\n      dup3\n        /* \"#utility.yul\":17955:17967   */\n      add\n        /* \"#utility.yul\":17948:17967   */\n      swap1\n      pop\n        /* \"#utility.yul\":17607:17973   */\n      swap2\n      swap1\n      pop\n      jump\t// out\n        /* \"#utility.yul\":17979:18398   */\n    tag_174:\n        /* \"#utility.yul\":18145:18149   */\n      0x00\n        /* \"#utility.yul\":18183:18185   */\n      0x20\n        /* \"#utility.yul\":18172:18181   */\n      dup3\n        /* \"#utility.yul\":18168:18186   */\n      add\n        /* \"#utility.yul\":18160:18186   */\n      swap1\n      pop\n        /* \"#utility.yul\":18232:18241   */\n      dup2\n        /* \"#utility.yul\":18226:18230   */\n      dup2\n        /* \"#utility.yul\":18222:18242   */\n      sub\n        /* \"#utility.yul\":18218:18219   */\n      0x00\n        /* \"#utility.yul\":18207:18216   */\n      dup4\n        /* \"#utility.yul\":18203:18220   */\n      add\n        /* \"#utility.yul\":18196:18243   */\n      mstore\n        /* \"#utility.yul\":18260:18391   */\n      tag_531\n        /* \"#utility.yul\":18386:18390   */\n      dup2\n        /* \"#utility.yul\":18260:18391   */\n      tag_337\n      jump\t// in\n    tag_531:\n        /* \"#utility.yul\":18252:18391   */\n      swap1\n      pop\n        /* \"#utility.yul\":17979:18398   */\n      swap2\n      swap1\n      pop\n      jump\t// out\n        /* \"#utility.yul\":18404:18584   */\n    tag_338:\n        /* \"#utility.yul\":18452:18529   */\n      0x4e487b7100000000000000000000000000000000000000000000000000000000\n        /* \"#utility.yul\":18449:18450   */\n      0x00\n        /* \"#utility.yul\":18442:18530   */\n      mstore\n        /* \"#utility.yul\":18549:18553   */\n      0x11\n        /* \"#utility.yul\":18546:18547   */\n      0x04\n        /* \"#utility.yul\":18539:18554   */\n      mstore\n        /* \"#utility.yul\":18573:18577   */\n      0x24\n        /* \"#utility.yul\":18570:18571   */\n      0x00\n        /* \"#utility.yul\":18563:18578   */\n      revert\n        /* \"#utility.yul\":18590:19000   */\n    tag_177:\n        /* \"#utility.yul\":18630:18637   */\n      0x00\n        /* \"#utility.yul\":18653:18673   */\n      tag_534\n        /* \"#utility.yul\":18671:18672   */\n      dup3\n        /* \"#utility.yul\":18653:18673   */\n      tag_288\n      jump\t// in\n    tag_534:\n        /* \"#utility.yul\":18648:18673   */\n      swap2\n      pop\n        /* \"#utility.yul\":18687:18707   */\n      tag_535\n        /* \"#utility.yul\":18705:18706   */\n      dup4\n        /* \"#utility.yul\":18687:18707   */\n      tag_288\n      jump\t// in\n    tag_535:\n        /* \"#utility.yul\":18682:18707   */\n      swap3\n      pop\n        /* \"#utility.yul\":18742:18743   */\n      dup3\n        /* \"#utility.yul\":18739:18740   */\n      dup3\n        /* \"#utility.yul\":18735:18744   */\n      mul\n        /* \"#utility.yul\":18764:18794   */\n      tag_536\n        /* \"#utility.yul\":18782:18793   */\n      dup2\n        /* \"#utility.yul\":18764:18794   */\n      tag_288\n      jump\t// in\n    tag_536:\n        /* \"#utility.yul\":18753:18794   */\n      swap2\n      pop\n        /* \"#utility.yul\":18943:18944   */\n      dup3\n        /* \"#utility.yul\":18934:18941   */\n      dup3\n        /* \"#utility.yul\":18930:18945   */\n      div\n        /* \"#utility.yul\":18927:18928   */\n      dup5\n        /* \"#utility.yul\":18924:18946   */\n      eq\n        /* \"#utility.yul\":18904:18905   */\n      dup4\n        /* \"#utility.yul\":18897:18906   */\n      iszero\n        /* \"#utility.yul\":18877:18960   */\n      or\n        /* \"#utility.yul\":18854:18993   */\n      tag_537\n      jumpi\n        /* \"#utility.yul\":18973:18991   */\n      tag_538\n      tag_338\n      jump\t// in\n    tag_538:\n        /* \"#utility.yul\":18854:18993   */\n    tag_537:\n        /* \"#utility.yul\":18638:19000   */\n      pop\n        /* \"#utility.yul\":18590:19000   */\n      swap3\n      swap2\n      pop\n      pop\n      jump\t// out\n        /* \"#utility.yul\":19006:19197   */\n    tag_179:\n        /* \"#utility.yul\":19046:19049   */\n      0x00\n        /* \"#utility.yul\":19065:19085   */\n      tag_540\n        /* \"#utility.yul\":19083:19084   */\n      dup3\n        /* \"#utility.yul\":19065:19085   */\n      tag_288\n      jump\t// in\n    tag_540:\n        /* \"#utility.yul\":19060:19085   */\n      swap2\n      pop\n        /* \"#utility.yul\":19099:19119   */\n      tag_541\n        /* \"#utility.yul\":19117:19118   */\n      dup4\n        /* \"#utility.yul\":19099:19119   */\n      tag_288\n      jump\t// in\n    tag_541:\n        /* \"#utility.yul\":19094:19119   */\n      swap3\n      pop\n        /* \"#utility.yul\":19142:19143   */\n      dup3\n        /* \"#utility.yul\":19139:19140   */\n      dup3\n        /* \"#utility.yul\":19135:19144   */\n      add\n        /* \"#utility.yul\":19128:19144   */\n      swap1\n      pop\n        /* \"#utility.yul\":19163:19166   */\n      dup1\n        /* \"#utility.yul\":19160:19161   */\n      dup3\n        /* \"#utility.yul\":19157:19167   */\n      gt\n        /* \"#utility.yul\":19154:19190   */\n      iszero\n      tag_542\n      jumpi\n        /* \"#utility.yul\":19170:19188   */\n      tag_543\n      tag_338\n      jump\t// in\n    tag_543:\n        /* \"#utility.yul\":19154:19190   */\n    tag_542:\n        /* \"#utility.yul\":19006:19197   */\n      swap3\n      swap2\n      pop\n      pop\n      jump\t// out\n        /* \"#utility.yul\":19203:19372   */\n    tag_339:\n        /* \"#utility.yul\":19343:19364   */\n      0x546965727320646f6573206e6f74206578697400000000000000000000000000\n        /* \"#utility.yul\":19339:19340   */\n      0x00\n        /* \"#utility.yul\":19331:19337   */\n      dup3\n        /* \"#utility.yul\":19327:19341   */\n      add\n        /* \"#utility.yul\":19320:19365   */\n      mstore\n        /* \"#utility.yul\":19203:19372   */\n      pop\n      jump\t// out\n        /* \"#utility.yul\":19378:19744   */\n    tag_340:\n        /* \"#utility.yul\":19520:19523   */\n      0x00\n        /* \"#utility.yul\":19541:19608   */\n      tag_546\n        /* \"#utility.yul\":19605:19607   */\n      0x13\n        /* \"#utility.yul\":19600:19603   */\n      dup4\n        /* \"#utility.yul\":19541:19608   */\n      tag_292\n      jump\t// in\n    tag_546:\n        /* \"#utility.yul\":19534:19608   */\n      swap2\n      pop\n        /* \"#utility.yul\":19617:19710   */\n      tag_547\n        /* \"#utility.yul\":19706:19709   */\n      dup3\n        /* \"#utility.yul\":19617:19710   */\n      tag_339\n      jump\t// in\n    tag_547:\n        /* \"#utility.yul\":19735:19737   */\n      0x20\n        /* \"#utility.yul\":19730:19733   */\n      dup3\n        /* \"#utility.yul\":19726:19738   */\n      add\n        /* \"#utility.yul\":19719:19738   */\n      swap1\n      pop\n        /* \"#utility.yul\":19378:19744   */\n      swap2\n      swap1\n      pop\n      jump\t// out\n        /* \"#utility.yul\":19750:20169   */\n    tag_192:\n        /* \"#utility.yul\":19916:19920   */\n      0x00\n        /* \"#utility.yul\":19954:19956   */\n      0x20\n        /* \"#utility.yul\":19943:19952   */\n      dup3\n        /* \"#utility.yul\":19939:19957   */\n      add\n        /* \"#utility.yul\":19931:19957   */\n      swap1\n      pop\n        /* \"#utility.yul\":20003:20012   */\n      dup2\n        /* \"#utility.yul\":19997:20001   */\n      dup2\n        /* \"#utility.yul\":19993:20013   */\n      sub\n        /* \"#utility.yul\":19989:19990   */\n      0x00\n        /* \"#utility.yul\":19978:19987   */\n      dup4\n        /* \"#utility.yul\":19974:19991   */\n      add\n        /* \"#utility.yul\":19967:20014   */\n      mstore\n        /* \"#utility.yul\":20031:20162   */\n      tag_549\n        /* \"#utility.yul\":20157:20161   */\n      dup2\n        /* \"#utility.yul\":20031:20162   */\n      tag_340\n      jump\t// in\n    tag_549:\n        /* \"#utility.yul\":20023:20162   */\n      swap1\n      pop\n        /* \"#utility.yul\":19750:20169   */\n      swap2\n      swap1\n      pop\n      jump\t// out\n        /* \"#utility.yul\":20175:20369   */\n    tag_194:\n        /* \"#utility.yul\":20215:20219   */\n      0x00\n        /* \"#utility.yul\":20235:20255   */\n      tag_551\n        /* \"#utility.yul\":20253:20254   */\n      dup3\n        /* \"#utility.yul\":20235:20255   */\n      tag_288\n      jump\t// in\n    tag_551:\n        /* \"#utility.yul\":20230:20255   */\n      swap2\n      pop\n        /* \"#utility.yul\":20269:20289   */\n      tag_552\n        /* \"#utility.yul\":20287:20288   */\n      dup4\n        /* \"#utility.yul\":20269:20289   */\n      tag_288\n      jump\t// in\n    tag_552:\n        /* \"#utility.yul\":20264:20289   */\n      swap3\n      pop\n        /* \"#utility.yul\":20313:20314   */\n      dup3\n        /* \"#utility.yul\":20310:20311   */\n      dup3\n        /* \"#utility.yul\":20306:20315   */\n      sub\n        /* \"#utility.yul\":20298:20315   */\n      swap1\n      pop\n        /* \"#utility.yul\":20337:20338   */\n      dup2\n        /* \"#utility.yul\":20331:20335   */\n      dup2\n        /* \"#utility.yul\":20328:20339   */\n      gt\n        /* \"#utility.yul\":20325:20362   */\n      iszero\n      tag_553\n      jumpi\n        /* \"#utility.yul\":20342:20360   */\n      tag_554\n      tag_338\n      jump\t// in\n    tag_554:\n        /* \"#utility.yul\":20325:20362   */\n    tag_553:\n        /* \"#utility.yul\":20175:20369   */\n      swap3\n      swap2\n      pop\n      pop\n      jump\t// out\n        /* \"#utility.yul\":20375:20555   */\n    tag_197:\n        /* \"#utility.yul\":20423:20500   */\n      0x4e487b7100000000000000000000000000000000000000000000000000000000\n        /* \"#utility.yul\":20420:20421   */\n      0x00\n        /* \"#utility.yul\":20413:20501   */\n      mstore\n        /* \"#utility.yul\":20520:20524   */\n      0x32\n        /* \"#utility.yul\":20517:20518   */\n      0x04\n        /* \"#utility.yul\":20510:20525   */\n      mstore\n        /* \"#utility.yul\":20544:20548   */\n      0x24\n        /* \"#utility.yul\":20541:20542   */\n      0x00\n        /* \"#utility.yul\":20534:20549   */\n      revert\n        /* \"#utility.yul\":20561:20710   */\n    tag_341:\n        /* \"#utility.yul\":20610:20616   */\n      0x00\n        /* \"#utility.yul\":20644:20649   */\n      dup2\n        /* \"#utility.yul\":20638:20650   */\n      sload\n        /* \"#utility.yul\":20628:20650   */\n      swap1\n      pop\n        /* \"#utility.yul\":20670:20703   */\n      tag_557\n        /* \"#utility.yul\":20696:20702   */\n      dup2\n        /* \"#utility.yul\":20670:20703   */\n      tag_118\n      jump\t// in\n    tag_557:\n        /* \"#utility.yul\":20660:20703   */\n      swap1\n      pop\n        /* \"#utility.yul\":20561:20710   */\n      swap2\n      swap1\n      pop\n      jump\t// out\n        /* \"#utility.yul\":20716:20857   */\n    tag_342:\n        /* \"#utility.yul\":20765:20769   */\n      0x00\n        /* \"#utility.yul\":20788:20791   */\n      dup2\n        /* \"#utility.yul\":20780:20791   */\n      swap1\n      pop\n        /* \"#utility.yul\":20811:20814   */\n      dup2\n        /* \"#utility.yul\":20808:20809   */\n      0x00\n        /* \"#utility.yul\":20801:20815   */\n      mstore\n        /* \"#utility.yul\":20845:20849   */\n      0x20\n        /* \"#utility.yul\":20842:20843   */\n      0x00\n        /* \"#utility.yul\":20832:20850   */\n      keccak256\n        /* \"#utility.yul\":20824:20850   */\n      swap1\n      pop\n        /* \"#utility.yul\":20716:20857   */\n      swap2\n      swap1\n      pop\n      jump\t// out\n        /* \"#utility.yul\":20863:20956   */\n    tag_343:\n        /* \"#utility.yul\":20900:20906   */\n      0x00\n        /* \"#utility.yul\":20947:20949   */\n      0x20\n        /* \"#utility.yul\":20942:20944   */\n      0x1f\n        /* \"#utility.yul\":20935:20940   */\n      dup4\n        /* \"#utility.yul\":20931:20945   */\n      add\n        /* \"#utility.yul\":20927:20950   */\n      div\n        /* \"#utility.yul\":20917:20950   */\n      swap1\n      pop\n        /* \"#utility.yul\":20863:20956   */\n      swap2\n      swap1\n      pop\n      jump\t// out\n        /* \"#utility.yul\":20962:21069   */\n    tag_344:\n        /* \"#utility.yul\":21006:21014   */\n      0x00\n        /* \"#utility.yul\":21056:21061   */\n      dup3\n        /* \"#utility.yul\":21050:21054   */\n      dup3\n        /* \"#utility.yul\":21046:21062   */\n      shl\n        /* \"#utility.yul\":21025:21062   */\n      swap1\n      pop\n        /* \"#utility.yul\":20962:21069   */\n      swap3\n      swap2\n      pop\n      pop\n      jump\t// out\n        /* \"#utility.yul\":21075:21468   */\n    tag_345:\n        /* \"#utility.yul\":21144:21150   */\n      0x00\n        /* \"#utility.yul\":21194:21195   */\n      0x08\n        /* \"#utility.yul\":21182:21192   */\n      dup4\n        /* \"#utility.yul\":21178:21196   */\n      mul\n        /* \"#utility.yul\":21217:21314   */\n      tag_562\n        /* \"#utility.yul\":21247:21313   */\n      0xffffffffffffffffffffffffffffffffffffffffffffffffffffffffffffffff\n        /* \"#utility.yul\":21236:21245   */\n      dup3\n        /* \"#utility.yul\":21217:21314   */\n      tag_344\n      jump\t// in\n    tag_562:\n        /* \"#utility.yul\":21335:21374   */\n      tag_563\n        /* \"#utility.yul\":21365:21373   */\n      dup7\n        /* \"#utility.yul\":21354:21363   */\n      dup4\n        /* \"#utility.yul\":21335:21374   */\n      tag_344\n      jump\t// in\n    tag_563:\n        /* \"#utility.yul\":21323:21374   */\n      swap6\n      pop\n        /* \"#utility.yul\":21407:21411   */\n      dup1\n        /* \"#utility.yul\":21403:21412   */\n      not\n        /* \"#utility.yul\":21396:21401   */\n      dup5\n        /* \"#utility.yul\":21392:21413   */\n      and\n        /* \"#utility.yul\":21383:21413   */\n      swap4\n      pop\n        /* \"#utility.yul\":21456:21460   */\n      dup1\n        /* \"#utility.yul\":21446:21454   */\n      dup7\n        /* \"#utility.yul\":21442:21461   */\n      and\n        /* \"#utility.yul\":21435:21440   */\n      dup5\n        /* \"#utility.yul\":21432:21462   */\n      or\n        /* \"#utility.yul\":21422:21462   */\n      swap3\n      pop\n        /* \"#utility.yul\":21151:21468   */\n      pop\n      pop\n        /* \"#utility.yul\":21075:21468   */\n      swap4\n      swap3\n      pop\n      pop\n      pop\n      jump\t// out\n        /* \"#utility.yul\":21474:21534   */\n    tag_346:\n        /* \"#utility.yul\":21502:21505   */\n      0x00\n        /* \"#utility.yul\":21523:21528   */\n      dup2\n        /* \"#utility.yul\":21516:21528   */\n      swap1\n      pop\n        /* \"#utility.yul\":21474:21534   */\n      swap2\n      swap1\n      pop\n      jump\t// out\n        /* \"#utility.yul\":21540:21682   */\n    tag_347:\n        /* \"#utility.yul\":21590:21599   */\n      0x00\n        /* \"#utility.yul\":21623:21676   */\n      tag_566\n        /* \"#utility.yul\":21641:21675   */\n      tag_567\n        /* \"#utility.yul\":21650:21674   */\n      tag_568\n        /* \"#utility.yul\":21668:21673   */\n      dup5\n        /* \"#utility.yul\":21650:21674   */\n      tag_288\n      jump\t// in\n    tag_568:\n        /* \"#utility.yul\":21641:21675   */\n      tag_346\n      jump\t// in\n    tag_567:\n        /* \"#utility.yul\":21623:21676   */\n      tag_288\n      jump\t// in\n    tag_566:\n        /* \"#utility.yul\":21610:21676   */\n      swap1\n      pop\n        /* \"#utility.yul\":21540:21682   */\n      swap2\n      swap1\n      pop\n      jump\t// out\n        /* \"#utility.yul\":21688:21763   */\n    tag_348:\n        /* \"#utility.yul\":21731:21734   */\n      0x00\n        /* \"#utility.yul\":21752:21757   */\n      dup2\n        /* \"#utility.yul\":21745:21757   */\n      swap1\n      pop\n        /* \"#utility.yul\":21688:21763   */\n      swap2\n      swap1\n      pop\n      jump\t// out\n        /* \"#utility.yul\":21769:22038   */\n    tag_349:\n        /* \"#utility.yul\":21879:21918   */\n      tag_571\n        /* \"#utility.yul\":21910:21917   */\n      dup4\n        /* \"#utility.yul\":21879:21918   */\n      tag_347\n      jump\t// in\n    tag_571:\n        /* \"#utility.yul\":21940:22031   */\n      tag_572\n        /* \"#utility.yul\":21989:22030   */\n      tag_573\n        /* \"#utility.yul\":22013:22029   */\n      dup3\n        /* \"#utility.yul\":21989:22030   */\n      tag_348\n      jump\t// in\n    tag_573:\n        /* \"#utility.yul\":21981:21987   */\n      dup5\n        /* \"#utility.yul\":21974:21978   */\n      dup5\n        /* \"#utility.yul\":21968:21979   */\n      sload\n        /* \"#utility.yul\":21940:22031   */\n      tag_345\n      jump\t// in\n    tag_572:\n        /* \"#utility.yul\":21934:21938   */\n      dup3\n        /* \"#utility.yul\":21927:22032   */\n      sstore\n        /* \"#utility.yul\":21845:22038   */\n      pop\n        /* \"#utility.yul\":21769:22038   */\n      pop\n      pop\n      pop\n      jump\t// out\n        /* \"#utility.yul\":22044:22117   */\n    tag_350:\n        /* \"#utility.yul\":22089:22092   */\n      0x00\n        /* \"#utility.yul\":22044:22117   */\n      swap1\n      jump\t// out\n        /* \"#utility.yul\":22123:22312   */\n    tag_351:\n        /* \"#utility.yul\":22200:22232   */\n      tag_576\n      tag_350\n      jump\t// in\n    tag_576:\n        /* \"#utility.yul\":22241:22306   */\n      tag_577\n        /* \"#utility.yul\":22299:22305   */\n      dup2\n        /* \"#utility.yul\":22291:22297   */\n      dup5\n        /* \"#utility.yul\":22285:22289   */\n      dup5\n        /* \"#utility.yul\":22241:22306   */\n      tag_349\n      jump\t// in\n    tag_577:\n        /* \"#utility.yul\":22176:22312   */\n      pop\n        /* \"#utility.yul\":22123:22312   */\n      pop\n      pop\n      jump\t// out\n        /* \"#utility.yul\":22318:22504   */\n    tag_352:\n        /* \"#utility.yul\":22378:22498   */\n    tag_579:\n        /* \"#utility.yul\":22395:22398   */\n      dup2\n        /* \"#utility.yul\":22388:22393   */\n      dup2\n        /* \"#utility.yul\":22385:22399   */\n      lt\n        /* \"#utility.yul\":22378:22498   */\n      iszero\n      tag_581\n      jumpi\n        /* \"#utility.yul\":22449:22488   */\n      tag_582\n        /* \"#utility.yul\":22486:22487   */\n      0x00\n        /* \"#utility.yul\":22479:22484   */\n      dup3\n        /* \"#utility.yul\":22449:22488   */\n      tag_351\n      jump\t// in\n    tag_582:\n        /* \"#utility.yul\":22422:22423   */\n      0x01\n        /* \"#utility.yul\":22415:22420   */\n      dup2\n        /* \"#utility.yul\":22411:22424   */\n      add\n        /* \"#utility.yul\":22402:22424   */\n      swap1\n      pop\n        /* \"#utility.yul\":22378:22498   */\n      jump(tag_579)\n    tag_581:\n        /* \"#utility.yul\":22318:22504   */\n      pop\n      pop\n      jump\t// out\n        /* \"#utility.yul\":22510:23053   */\n    tag_353:\n        /* \"#utility.yul\":22611:22613   */\n      0x1f\n        /* \"#utility.yul\":22606:22609   */\n      dup3\n        /* \"#utility.yul\":22603:22614   */\n      gt\n        /* \"#utility.yul\":22600:23046   */\n      iszero\n      tag_584\n      jumpi\n        /* \"#utility.yul\":22645:22683   */\n      tag_585\n        /* \"#utility.yul\":22677:22682   */\n      dup2\n        /* \"#utility.yul\":22645:22683   */\n      tag_342\n      jump\t// in\n    tag_585:\n        /* \"#utility.yul\":22729:22758   */\n      tag_586\n        /* \"#utility.yul\":22747:22757   */\n      dup5\n        /* \"#utility.yul\":22729:22758   */\n      tag_343\n      jump\t// in\n    tag_586:\n        /* \"#utility.yul\":22719:22727   */\n      dup2\n        /* \"#utility.yul\":22715:22759   */\n      add\n        /* \"#utility.yul\":22912:22914   */\n      0x20\n        /* \"#utility.yul\":22900:22910   */\n      dup6\n        /* \"#utility.yul\":22897:22915   */\n      lt\n        /* \"#utility.yul\":22894:22943   */\n      iszero\n      tag_587\n      jumpi\n        /* \"#utility.yul\":22933:22941   */\n      dup2\n        /* \"#utility.yul\":22918:22941   */\n      swap1\n      pop\n        /* \"#utility.yul\":22894:22943   */\n    tag_587:\n        /* \"#utility.yul\":22956:23036   */\n      tag_588\n        /* \"#utility.yul\":23012:23034   */\n      tag_589\n        /* \"#utility.yul\":23030:23033   */\n      dup6\n        /* \"#utility.yul\":23012:23034   */\n      tag_343\n      jump\t// in\n    tag_589:\n        /* \"#utility.yul\":23002:23010   */\n      dup4\n        /* \"#utility.yul\":22998:23035   */\n      add\n        /* \"#utility.yul\":22985:22996   */\n      dup3\n        /* \"#utility.yul\":22956:23036   */\n      tag_352\n      jump\t// in\n    tag_588:\n        /* \"#utility.yul\":22615:23046   */\n      pop\n      pop\n        /* \"#utility.yul\":22600:23046   */\n    tag_584:\n        /* \"#utility.yul\":22510:23053   */\n      pop\n      pop\n      pop\n      jump\t// out\n        /* \"#utility.yul\":23059:23176   */\n    tag_354:\n        /* \"#utility.yul\":23113:23121   */\n      0x00\n        /* \"#utility.yul\":23163:23168   */\n      dup3\n        /* \"#utility.yul\":23157:23161   */\n      dup3\n        /* \"#utility.yul\":23153:23169   */\n      shr\n        /* \"#utility.yul\":23132:23169   */\n      swap1\n      pop\n        /* \"#utility.yul\":23059:23176   */\n      swap3\n      swap2\n      pop\n      pop\n      jump\t// out\n        /* \"#utility.yul\":23182:23351   */\n    tag_355:\n        /* \"#utility.yul\":23226:23232   */\n      0x00\n        /* \"#utility.yul\":23259:23310   */\n      tag_592\n        /* \"#utility.yul\":23307:23308   */\n      0x00\n        /* \"#utility.yul\":23303:23309   */\n      not\n        /* \"#utility.yul\":23295:23300   */\n      dup5\n        /* \"#utility.yul\":23292:23293   */\n      0x08\n        /* \"#utility.yul\":23288:23301   */\n      mul\n        /* \"#utility.yul\":23259:23310   */\n      tag_354\n      jump\t// in\n    tag_592:\n        /* \"#utility.yul\":23255:23311   */\n      not\n        /* \"#utility.yul\":23340:23344   */\n      dup1\n        /* \"#utility.yul\":23334:23338   */\n      dup4\n        /* \"#utility.yul\":23330:23345   */\n      and\n        /* \"#utility.yul\":23320:23345   */\n      swap2\n      pop\n        /* \"#utility.yul\":23233:23351   */\n      pop\n        /* \"#utility.yul\":23182:23351   */\n      swap3\n      swap2\n      pop\n      pop\n      jump\t// out\n        /* \"#utility.yul\":23356:23651   */\n    tag_356:\n        /* \"#utility.yul\":23432:23436   */\n      0x00\n        /* \"#utility.yul\":23578:23607   */\n      tag_594\n        /* \"#utility.yul\":23603:23606   */\n      dup4\n        /* \"#utility.yul\":23597:23601   */\n      dup4\n        /* \"#utility.yul\":23578:23607   */\n      tag_355\n      jump\t// in\n    tag_594:\n        /* \"#utility.yul\":23570:23607   */\n      swap2\n      pop\n        /* \"#utility.yul\":23640:23643   */\n      dup3\n        /* \"#utility.yul\":23637:23638   */\n      0x02\n        /* \"#utility.yul\":23633:23644   */\n      mul\n        /* \"#utility.yul\":23627:23631   */\n      dup3\n        /* \"#utility.yul\":23624:23645   */\n      or\n        /* \"#utility.yul\":23616:23645   */\n      swap1\n      pop\n        /* \"#utility.yul\":23356:23651   */\n      swap3\n      swap2\n      pop\n      pop\n      jump\t// out\n        /* \"#utility.yul\":23656:25107   */\n    tag_203:\n        /* \"#utility.yul\":23767:23770   */\n      dup2\n        /* \"#utility.yul\":23761:23765   */\n      dup2\n        /* \"#utility.yul\":23758:23771   */\n      sub\n        /* \"#utility.yul\":23755:23781   */\n      tag_596\n      jumpi\n        /* \"#utility.yul\":23774:23779   */\n      pop\n      pop\n      jump(tag_595)\n        /* \"#utility.yul\":23755:23781   */\n    tag_596:\n        /* \"#utility.yul\":23805:23839   */\n      tag_597\n        /* \"#utility.yul\":23835:23838   */\n      dup3\n        /* \"#utility.yul\":23805:23839   */\n      tag_341\n      jump\t// in\n    tag_597:\n        /* \"#utility.yul\":23904:23922   */\n      0xffffffffffffffff\n        /* \"#utility.yul\":23896:23902   */\n      dup2\n        /* \"#utility.yul\":23893:23923   */\n      gt\n        /* \"#utility.yul\":23890:23946   */\n      iszero\n      tag_598\n      jumpi\n        /* \"#utility.yul\":23926:23944   */\n      tag_599\n      tag_310\n      jump\t// in\n    tag_599:\n        /* \"#utility.yul\":23890:23946   */\n    tag_598:\n        /* \"#utility.yul\":23970:24008   */\n      tag_600\n        /* \"#utility.yul\":24002:24006   */\n      dup3\n        /* \"#utility.yul\":23996:24007   */\n      sload\n        /* \"#utility.yul\":23970:24008   */\n      tag_118\n      jump\t// in\n    tag_600:\n        /* \"#utility.yul\":24055:24122   */\n      tag_601\n        /* \"#utility.yul\":24115:24121   */\n      dup3\n        /* \"#utility.yul\":24107:24113   */\n      dup3\n        /* \"#utility.yul\":24101:24105   */\n      dup6\n        /* \"#utility.yul\":24055:24122   */\n      tag_353\n      jump\t// in\n    tag_601:\n        /* \"#utility.yul\":24149:24150   */\n      0x00\n        /* \"#utility.yul\":24178:24180   */\n      0x1f\n        /* \"#utility.yul\":24170:24176   */\n      dup4\n        /* \"#utility.yul\":24167:24181   */\n      gt\n        /* \"#utility.yul\":24195:24196   */\n      0x01\n        /* \"#utility.yul\":24190:24862   */\n      dup2\n      eq\n      tag_603\n      jumpi\n        /* \"#utility.yul\":24906:24907   */\n      0x00\n        /* \"#utility.yul\":24923:24929   */\n      dup5\n        /* \"#utility.yul\":24920:24997   */\n      iszero\n      tag_604\n      jumpi\n        /* \"#utility.yul\":24972:24981   */\n      dup3\n        /* \"#utility.yul\":24967:24970   */\n      dup8\n        /* \"#utility.yul\":24963:24982   */\n      add\n        /* \"#utility.yul\":24957:24983   */\n      sload\n        /* \"#utility.yul\":24948:24983   */\n      swap1\n      pop\n        /* \"#utility.yul\":24920:24997   */\n    tag_604:\n        /* \"#utility.yul\":25023:25090   */\n      tag_605\n        /* \"#utility.yul\":25083:25089   */\n      dup6\n        /* \"#utility.yul\":25076:25081   */\n      dup3\n        /* \"#utility.yul\":25023:25090   */\n      tag_356\n      jump\t// in\n    tag_605:\n        /* \"#utility.yul\":25017:25021   */\n      dup7\n        /* \"#utility.yul\":25010:25091   */\n      sstore\n        /* \"#utility.yul\":24879:25101   */\n      pop\n        /* \"#utility.yul\":24160:25101   */\n      jump(tag_602)\n        /* \"#utility.yul\":24190:24862   */\n    tag_603:\n        /* \"#utility.yul\":24242:24246   */\n      0x1f\n        /* \"#utility.yul\":24238:24247   */\n      not\n        /* \"#utility.yul\":24230:24236   */\n      dup5\n        /* \"#utility.yul\":24226:24248   */\n      and\n        /* \"#utility.yul\":24268:24304   */\n      tag_606\n        /* \"#utility.yul\":24300:24303   */\n      dup8\n        /* \"#utility.yul\":24268:24304   */\n      tag_342\n      jump\t// in\n    tag_606:\n        /* \"#utility.yul\":24261:24304   */\n      swap7\n      pop\n        /* \"#utility.yul\":24331:24368   */\n      tag_607\n        /* \"#utility.yul\":24363:24367   */\n      dup7\n        /* \"#utility.yul\":24331:24368   */\n      tag_342\n      jump\t// in\n    tag_607:\n        /* \"#utility.yul\":24390:24391   */\n      0x00\n        /* \"#utility.yul\":24404:24611   */\n    tag_608:\n        /* \"#utility.yul\":24418:24425   */\n      dup3\n        /* \"#utility.yul\":24415:24416   */\n      dup2\n        /* \"#utility.yul\":24412:24426   */\n      lt\n        /* \"#utility.yul\":24404:24611   */\n      iszero\n      tag_610\n      jumpi\n        /* \"#utility.yul\":24497:24506   */\n      dup5\n        /* \"#utility.yul\":24492:24495   */\n      dup10\n        /* \"#utility.yul\":24488:24507   */\n      add\n        /* \"#utility.yul\":24482:24508   */\n      sload\n        /* \"#utility.yul\":24474:24480   */\n      dup3\n        /* \"#utility.yul\":24467:24509   */\n      sstore\n        /* \"#utility.yul\":24548:24549   */\n      0x01\n        /* \"#utility.yul\":24540:24546   */\n      dup3\n        /* \"#utility.yul\":24536:24550   */\n      add\n        /* \"#utility.yul\":24526:24550   */\n      swap2\n      pop\n        /* \"#utility.yul\":24595:24596   */\n      0x01\n        /* \"#utility.yul\":24584:24593   */\n      dup6\n        /* \"#utility.yul\":24580:24597   */\n      add\n        /* \"#utility.yul\":24567:24597   */\n      swap5\n      pop\n        /* \"#utility.yul\":24441:24445   */\n      0x20\n        /* \"#utility.yul\":24438:24439   */\n      dup2\n        /* \"#utility.yul\":24434:24446   */\n      add\n        /* \"#utility.yul\":24429:24446   */\n      swap1\n      pop\n        /* \"#utility.yul\":24404:24611   */\n      jump(tag_608)\n    tag_610:\n        /* \"#utility.yul\":24639:24645   */\n      dup7\n        /* \"#utility.yul\":24630:24637   */\n      dup4\n        /* \"#utility.yul\":24627:24646   */\n      lt\n        /* \"#utility.yul\":24624:24803   */\n      iszero\n      tag_611\n      jumpi\n        /* \"#utility.yul\":24697:24706   */\n      dup5\n        /* \"#utility.yul\":24692:24695   */\n      dup10\n        /* \"#utility.yul\":24688:24707   */\n      add\n        /* \"#utility.yul\":24682:24708   */\n      sload\n        /* \"#utility.yul\":24740:24788   */\n      tag_612\n        /* \"#utility.yul\":24782:24786   */\n      0x1f\n        /* \"#utility.yul\":24774:24780   */\n      dup10\n        /* \"#utility.yul\":24770:24787   */\n      and\n        /* \"#utility.yul\":24759:24768   */\n      dup3\n        /* \"#utility.yul\":24740:24788   */\n      tag_355\n      jump\t// in\n    tag_612:\n        /* \"#utility.yul\":24732:24738   */\n      dup4\n        /* \"#utility.yul\":24725:24789   */\n      sstore\n        /* \"#utility.yul\":24647:24803   */\n      pop\n        /* \"#utility.yul\":24624:24803   */\n    tag_611:\n        /* \"#utility.yul\":24849:24850   */\n      0x01\n        /* \"#utility.yul\":24845:24846   */\n      0x02\n        /* \"#utility.yul\":24837:24843   */\n      dup9\n        /* \"#utility.yul\":24833:24847   */\n      mul\n        /* \"#utility.yul\":24829:24851   */\n      add\n        /* \"#utility.yul\":24823:24827   */\n      dup9\n        /* \"#utility.yul\":24816:24852   */\n      sstore\n        /* \"#utility.yul\":24197:24862   */\n      pop\n      pop\n      pop\n        /* \"#utility.yul\":24160:25101   */\n    tag_602:\n      pop\n        /* \"#utility.yul\":23745:25107   */\n      pop\n      pop\n      pop\n        /* \"#utility.yul\":23656:25107   */\n      pop\n      pop\n    tag_595:\n      jump\t// out\n        /* \"#utility.yul\":25113:25293   */\n    tag_206:\n        /* \"#utility.yul\":25161:25238   */\n      0x4e487b7100000000000000000000000000000000000000000000000000000000\n        /* \"#utility.yul\":25158:25159   */\n      0x00\n        /* \"#utility.yul\":25151:25239   */\n      mstore\n        /* \"#utility.yul\":25258:25262   */\n      0x31\n        /* \"#utility.yul\":25255:25256   */\n      0x04\n        /* \"#utility.yul\":25248:25263   */\n      mstore\n        /* \"#utility.yul\":25282:25286   */\n      0x24\n        /* \"#utility.yul\":25279:25280   */\n      0x00\n        /* \"#utility.yul\":25272:25287   */\n      revert\n        /* \"#utility.yul\":25299:25479   */\n    tag_357:\n        /* \"#utility.yul\":25439:25471   */\n      0x416d6f756e74206d7573742062652067726561746572207468616e20302e0000\n        /* \"#utility.yul\":25435:25436   */\n      0x00\n        /* \"#utility.yul\":25427:25433   */\n      dup3\n        /* \"#utility.yul\":25423:25437   */\n      add\n        /* \"#utility.yul\":25416:25472   */\n      mstore\n        /* \"#utility.yul\":25299:25479   */\n      pop\n      jump\t// out\n        /* \"#utility.yul\":25485:25851   */\n    tag_358:\n        /* \"#utility.yul\":25627:25630   */\n      0x00\n        /* \"#utility.yul\":25648:25715   */\n      tag_616\n        /* \"#utility.yul\":25712:25714   */\n      0x1e\n        /* \"#utility.yul\":25707:25710   */\n      dup4\n        /* \"#utility.yul\":25648:25715   */\n      tag_292\n      jump\t// in\n    tag_616:\n        /* \"#utility.yul\":25641:25715   */\n      swap2\n      pop\n        /* \"#utility.yul\":25724:25817   */\n      tag_617\n        /* \"#utility.yul\":25813:25816   */\n      dup3\n        /* \"#utility.yul\":25724:25817   */\n      tag_357\n      jump\t// in\n    tag_617:\n        /* \"#utility.yul\":25842:25844   */\n      0x20\n        /* \"#utility.yul\":25837:25840   */\n      dup3\n        /* \"#utility.yul\":25833:25845   */\n      add\n        /* \"#utility.yul\":25826:25845   */\n      swap1\n      pop\n        /* \"#utility.yul\":25485:25851   */\n      swap2\n      swap1\n      pop\n      jump\t// out\n        /* \"#utility.yul\":25857:26276   */\n    tag_217:\n        /* \"#utility.yul\":26023:26027   */\n      0x00\n        /* \"#utility.yul\":26061:26063   */\n      0x20\n        /* \"#utility.yul\":26050:26059   */\n      dup3\n        /* \"#utility.yul\":26046:26064   */\n      add\n        /* \"#utility.yul\":26038:26064   */\n      swap1\n      pop\n        /* \"#utility.yul\":26110:26119   */\n      dup2\n        /* \"#utility.yul\":26104:26108   */\n      dup2\n        /* \"#utility.yul\":26100:26120   */\n      sub\n        /* \"#utility.yul\":26096:26097   */\n      0x00\n        /* \"#utility.yul\":26085:26094   */\n      dup4\n        /* \"#utility.yul\":26081:26098   */\n      add\n        /* \"#utility.yul\":26074:26121   */\n      mstore\n        /* \"#utility.yul\":26138:26269   */\n      tag_619\n        /* \"#utility.yul\":26264:26268   */\n      dup2\n        /* \"#utility.yul\":26138:26269   */\n      tag_358\n      jump\t// in\n    tag_619:\n        /* \"#utility.yul\":26130:26269   */\n      swap1\n      pop\n        /* \"#utility.yul\":25857:26276   */\n      swap2\n      swap1\n      pop\n      jump\t// out\n        /* \"#utility.yul\":26282:27677   */\n    tag_220:\n        /* \"#utility.yul\":26399:26436   */\n      tag_621\n        /* \"#utility.yul\":26432:26435   */\n      dup3\n        /* \"#utility.yul\":26399:26436   */\n      tag_291\n      jump\t// in\n    tag_621:\n        /* \"#utility.yul\":26501:26519   */\n      0xffffffffffffffff\n        /* \"#utility.yul\":26493:26499   */\n      dup2\n        /* \"#utility.yul\":26490:26520   */\n      gt\n        /* \"#utility.yul\":26487:26543   */\n      iszero\n      tag_622\n      jumpi\n        /* \"#utility.yul\":26523:26541   */\n      tag_623\n      tag_310\n      jump\t// in\n    tag_623:\n        /* \"#utility.yul\":26487:26543   */\n    tag_622:\n        /* \"#utility.yul\":26567:26605   */\n      tag_624\n        /* \"#utility.yul\":26599:26603   */\n      dup3\n        /* \"#utility.yul\":26593:26604   */\n      sload\n        /* \"#utility.yul\":26567:26605   */\n      tag_118\n      jump\t// in\n    tag_624:\n        /* \"#utility.yul\":26652:26719   */\n      tag_625\n        /* \"#utility.yul\":26712:26718   */\n      dup3\n        /* \"#utility.yul\":26704:26710   */\n      dup3\n        /* \"#utility.yul\":26698:26702   */\n      dup6\n        /* \"#utility.yul\":26652:26719   */\n      tag_353\n      jump\t// in\n    tag_625:\n        /* \"#utility.yul\":26746:26747   */\n      0x00\n        /* \"#utility.yul\":26770:26774   */\n      0x20\n        /* \"#utility.yul\":26757:26774   */\n      swap1\n      pop\n        /* \"#utility.yul\":26802:26804   */\n      0x1f\n        /* \"#utility.yul\":26794:26800   */\n      dup4\n        /* \"#utility.yul\":26791:26805   */\n      gt\n        /* \"#utility.yul\":26819:26820   */\n      0x01\n        /* \"#utility.yul\":26814:27432   */\n      dup2\n      eq\n      tag_627\n      jumpi\n        /* \"#utility.yul\":27476:27477   */\n      0x00\n        /* \"#utility.yul\":27493:27499   */\n      dup5\n        /* \"#utility.yul\":27490:27567   */\n      iszero\n      tag_628\n      jumpi\n        /* \"#utility.yul\":27542:27551   */\n      dup3\n        /* \"#utility.yul\":27537:27540   */\n      dup8\n        /* \"#utility.yul\":27533:27552   */\n      add\n        /* \"#utility.yul\":27527:27553   */\n      mload\n        /* \"#utility.yul\":27518:27553   */\n      swap1\n      pop\n        /* \"#utility.yul\":27490:27567   */\n    tag_628:\n        /* \"#utility.yul\":27593:27660   */\n      tag_629\n        /* \"#utility.yul\":27653:27659   */\n      dup6\n        /* \"#utility.yul\":27646:27651   */\n      dup3\n        /* \"#utility.yul\":27593:27660   */\n      tag_356\n      jump\t// in\n    tag_629:\n        /* \"#utility.yul\":27587:27591   */\n      dup7\n        /* \"#utility.yul\":27580:27661   */\n      sstore\n        /* \"#utility.yul\":27449:27671   */\n      pop\n        /* \"#utility.yul\":26784:27671   */\n      jump(tag_626)\n        /* \"#utility.yul\":26814:27432   */\n    tag_627:\n        /* \"#utility.yul\":26866:26870   */\n      0x1f\n        /* \"#utility.yul\":26862:26871   */\n      not\n        /* \"#utility.yul\":26854:26860   */\n      dup5\n        /* \"#utility.yul\":26850:26872   */\n      and\n        /* \"#utility.yul\":26900:26937   */\n      tag_630\n        /* \"#utility.yul\":26932:26936   */\n      dup7\n        /* \"#utility.yul\":26900:26937   */\n      tag_342\n      jump\t// in\n    tag_630:\n        /* \"#utility.yul\":26959:26960   */\n      0x00\n        /* \"#utility.yul\":26973:27181   */\n    tag_631:\n        /* \"#utility.yul\":26987:26994   */\n      dup3\n        /* \"#utility.yul\":26984:26985   */\n      dup2\n        /* \"#utility.yul\":26981:26995   */\n      lt\n        /* \"#utility.yul\":26973:27181   */\n      iszero\n      tag_633\n      jumpi\n        /* \"#utility.yul\":27066:27075   */\n      dup5\n        /* \"#utility.yul\":27061:27064   */\n      dup10\n        /* \"#utility.yul\":27057:27076   */\n      add\n        /* \"#utility.yul\":27051:27077   */\n      mload\n        /* \"#utility.yul\":27043:27049   */\n      dup3\n        /* \"#utility.yul\":27036:27078   */\n      sstore\n        /* \"#utility.yul\":27117:27118   */\n      0x01\n        /* \"#utility.yul\":27109:27115   */\n      dup3\n        /* \"#utility.yul\":27105:27119   */\n      add\n        /* \"#utility.yul\":27095:27119   */\n      swap2\n      pop\n        /* \"#utility.yul\":27164:27166   */\n      0x20\n        /* \"#utility.yul\":27153:27162   */\n      dup6\n        /* \"#utility.yul\":27149:27167   */\n      add\n        /* \"#utility.yul\":27136:27167   */\n      swap5\n      pop\n        /* \"#utility.yul\":27010:27014   */\n      0x20\n        /* \"#utility.yul\":27007:27008   */\n      dup2\n        /* \"#utility.yul\":27003:27015   */\n      add\n        /* \"#utility.yul\":26998:27015   */\n      swap1\n      pop\n        /* \"#utility.yul\":26973:27181   */\n      jump(tag_631)\n    tag_633:\n        /* \"#utility.yul\":27209:27215   */\n      dup7\n        /* \"#utility.yul\":27200:27207   */\n      dup4\n        /* \"#utility.yul\":27197:27216   */\n      lt\n        /* \"#utility.yul\":27194:27373   */\n      iszero\n      tag_634\n      jumpi\n        /* \"#utility.yul\":27267:27276   */\n      dup5\n        /* \"#utility.yul\":27262:27265   */\n      dup10\n        /* \"#utility.yul\":27258:27277   */\n      add\n        /* \"#utility.yul\":27252:27278   */\n      mload\n        /* \"#utility.yul\":27310:27358   */\n      tag_635\n        /* \"#utility.yul\":27352:27356   */\n      0x1f\n        /* \"#utility.yul\":27344:27350   */\n      dup10\n        /* \"#utility.yul\":27340:27357   */\n      and\n        /* \"#utility.yul\":27329:27338   */\n      dup3\n        /* \"#utility.yul\":27310:27358   */\n      tag_355\n      jump\t// in\n    tag_635:\n        /* \"#utility.yul\":27302:27308   */\n      dup4\n        /* \"#utility.yul\":27295:27359   */\n      sstore\n        /* \"#utility.yul\":27217:27373   */\n      pop\n        /* \"#utility.yul\":27194:27373   */\n    tag_634:\n        /* \"#utility.yul\":27419:27420   */\n      0x01\n        /* \"#utility.yul\":27415:27416   */\n      0x02\n        /* \"#utility.yul\":27407:27413   */\n      dup9\n        /* \"#utility.yul\":27403:27417   */\n      mul\n        /* \"#utility.yul\":27399:27421   */\n      add\n        /* \"#utility.yul\":27393:27397   */\n      dup9\n        /* \"#utility.yul\":27386:27422   */\n      sstore\n        /* \"#utility.yul\":26821:27432   */\n      pop\n      pop\n      pop\n        /* \"#utility.yul\":26784:27671   */\n    tag_626:\n      pop\n        /* \"#utility.yul\":26374:27677   */\n      pop\n      pop\n      pop\n        /* \"#utility.yul\":26282:27677   */\n      pop\n      pop\n      jump\t// out\n        /* \"#utility.yul\":27683:27851   */\n    tag_359:\n        /* \"#utility.yul\":27823:27843   */\n      0x436f6e7472616374206973207061757365640000000000000000000000000000\n        /* \"#utility.yul\":27819:27820   */\n      0x00\n        /* \"#utility.yul\":27811:27817   */\n      dup3\n        /* \"#utility.yul\":27807:27821   */\n      add\n        /* \"#utility.yul\":27800:27844   */\n      mstore\n        /* \"#utility.yul\":27683:27851   */\n      pop\n      jump\t// out\n        /* \"#utility.yul\":27857:28223   */\n    tag_360:\n        /* \"#utility.yul\":27999:28002   */\n      0x00\n        /* \"#utility.yul\":28020:28087   */\n      tag_638\n        /* \"#utility.yul\":28084:28086   */\n      0x12\n        /* \"#utility.yul\":28079:28082   */\n      dup4\n        /* \"#utility.yul\":28020:28087   */\n      tag_292\n      jump\t// in\n    tag_638:\n        /* \"#utility.yul\":28013:28087   */\n      swap2\n      pop\n        /* \"#utility.yul\":28096:28189   */\n      tag_639\n        /* \"#utility.yul\":28185:28188   */\n      dup3\n        /* \"#utility.yul\":28096:28189   */\n      tag_359\n      jump\t// in\n    tag_639:\n        /* \"#utility.yul\":28214:28216   */\n      0x20\n        /* \"#utility.yul\":28209:28212   */\n      dup3\n        /* \"#utility.yul\":28205:28217   */\n      add\n        /* \"#utility.yul\":28198:28217   */\n      swap1\n      pop\n        /* \"#utility.yul\":27857:28223   */\n      swap2\n      swap1\n      pop\n      jump\t// out\n        /* \"#utility.yul\":28229:28648   */\n    tag_235:\n        /* \"#utility.yul\":28395:28399   */\n      0x00\n        /* \"#utility.yul\":28433:28435   */\n      0x20\n        /* \"#utility.yul\":28422:28431   */\n      dup3\n        /* \"#utility.yul\":28418:28436   */\n      add\n        /* \"#utility.yul\":28410:28436   */\n      swap1\n      pop\n        /* \"#utility.yul\":28482:28491   */\n      dup2\n        /* \"#utility.yul\":28476:28480   */\n      dup2\n        /* \"#utility.yul\":28472:28492   */\n      sub\n        /* \"#utility.yul\":28468:28469   */\n      0x00\n        /* \"#utility.yul\":28457:28466   */\n      dup4\n        /* \"#utility.yul\":28453:28470   */\n      add\n        /* \"#utility.yul\":28446:28493   */\n      mstore\n        /* \"#utility.yul\":28510:28641   */\n      tag_641\n        /* \"#utility.yul\":28636:28640   */\n      dup2\n        /* \"#utility.yul\":28510:28641   */\n      tag_360\n      jump\t// in\n    tag_641:\n        /* \"#utility.yul\":28502:28641   */\n      swap1\n      pop\n        /* \"#utility.yul\":28229:28648   */\n      swap2\n      swap1\n      pop\n      jump\t// out\n        /* \"#utility.yul\":28654:28817   */\n    tag_361:\n        /* \"#utility.yul\":28794:28809   */\n      0x496e76616c696420746965722e00000000000000000000000000000000000000\n        /* \"#utility.yul\":28790:28791   */\n      0x00\n        /* \"#utility.yul\":28782:28788   */\n      dup3\n        /* \"#utility.yul\":28778:28792   */\n      add\n        /* \"#utility.yul\":28771:28810   */\n      mstore\n        /* \"#utility.yul\":28654:28817   */\n      pop\n      jump\t// out\n        /* \"#utility.yul\":28823:29189   */\n    tag_362:\n        /* \"#utility.yul\":28965:28968   */\n      0x00\n        /* \"#utility.yul\":28986:29053   */\n      tag_644\n        /* \"#utility.yul\":29050:29052   */\n      0x0d\n        /* \"#utility.yul\":29045:29048   */\n      dup4\n        /* \"#utility.yul\":28986:29053   */\n      tag_292\n      jump\t// in\n    tag_644:\n        /* \"#utility.yul\":28979:29053   */\n      swap2\n      pop\n        /* \"#utility.yul\":29062:29155   */\n      tag_645\n        /* \"#utility.yul\":29151:29154   */\n      dup3\n        /* \"#utility.yul\":29062:29155   */\n      tag_361\n      jump\t// in\n    tag_645:\n        /* \"#utility.yul\":29180:29182   */\n      0x20\n        /* \"#utility.yul\":29175:29178   */\n      dup3\n        /* \"#utility.yul\":29171:29183   */\n      add\n        /* \"#utility.yul\":29164:29183   */\n      swap1\n      pop\n        /* \"#utility.yul\":28823:29189   */\n      swap2\n      swap1\n      pop\n      jump\t// out\n        /* \"#utility.yul\":29195:29614   */\n    tag_239:\n        /* \"#utility.yul\":29361:29365   */\n      0x00\n        /* \"#utility.yul\":29399:29401   */\n      0x20\n        /* \"#utility.yul\":29388:29397   */\n      dup3\n        /* \"#utility.yul\":29384:29402   */\n      add\n        /* \"#utility.yul\":29376:29402   */\n      swap1\n      pop\n        /* \"#utility.yul\":29448:29457   */\n      dup2\n        /* \"#utility.yul\":29442:29446   */\n      dup2\n        /* \"#utility.yul\":29438:29458   */\n      sub\n        /* \"#utility.yul\":29434:29435   */\n      0x00\n        /* \"#utility.yul\":29423:29432   */\n      dup4\n        /* \"#utility.yul\":29419:29436   */\n      add\n        /* \"#utility.yul\":29412:29459   */\n      mstore\n        /* \"#utility.yul\":29476:29607   */\n      tag_647\n        /* \"#utility.yul\":29602:29606   */\n      dup2\n        /* \"#utility.yul\":29476:29607   */\n      tag_362\n      jump\t// in\n    tag_647:\n        /* \"#utility.yul\":29468:29607   */\n      swap1\n      pop\n        /* \"#utility.yul\":29195:29614   */\n      swap2\n      swap1\n      pop\n      jump\t// out\n        /* \"#utility.yul\":29620:29785   */\n    tag_363:\n        /* \"#utility.yul\":29760:29777   */\n      0x496e76616c696420616d6f756e742e0000000000000000000000000000000000\n        /* \"#utility.yul\":29756:29757   */\n      0x00\n        /* \"#utility.yul\":29748:29754   */\n      dup3\n        /* \"#utility.yul\":29744:29758   */\n      add\n        /* \"#utility.yul\":29737:29778   */\n      mstore\n        /* \"#utility.yul\":29620:29785   */\n      pop\n      jump\t// out\n        /* \"#utility.yul\":29791:30157   */\n    tag_364:\n        /* \"#utility.yul\":29933:29936   */\n      0x00\n        /* \"#utility.yul\":29954:30021   */\n      tag_650\n        /* \"#utility.yul\":30018:30020   */\n      0x0f\n        /* \"#utility.yul\":30013:30016   */\n      dup4\n        /* \"#utility.yul\":29954:30021   */\n      tag_292\n      jump\t// in\n    tag_650:\n        /* \"#utility.yul\":29947:30021   */\n      swap2\n      pop\n        /* \"#utility.yul\":30030:30123   */\n      tag_651\n        /* \"#utility.yul\":30119:30122   */\n      dup3\n        /* \"#utility.yul\":30030:30123   */\n      tag_363\n      jump\t// in\n    tag_651:\n        /* \"#utility.yul\":30148:30150   */\n      0x20\n        /* \"#utility.yul\":30143:30146   */\n      dup3\n        /* \"#utility.yul\":30139:30151   */\n      add\n        /* \"#utility.yul\":30132:30151   */\n      swap1\n      pop\n        /* \"#utility.yul\":29791:30157   */\n      swap2\n      swap1\n      pop\n      jump\t// out\n        /* \"#utility.yul\":30163:30582   */\n    tag_245:\n        /* \"#utility.yul\":30329:30333   */\n      0x00\n        /* \"#utility.yul\":30367:30369   */\n      0x20\n        /* \"#utility.yul\":30356:30365   */\n      dup3\n        /* \"#utility.yul\":30352:30370   */\n      add\n        /* \"#utility.yul\":30344:30370   */\n      swap1\n      pop\n        /* \"#utility.yul\":30416:30425   */\n      dup2\n        /* \"#utility.yul\":30410:30414   */\n      dup2\n        /* \"#utility.yul\":30406:30426   */\n      sub\n        /* \"#utility.yul\":30402:30403   */\n      0x00\n        /* \"#utility.yul\":30391:30400   */\n      dup4\n        /* \"#utility.yul\":30387:30404   */\n      add\n        /* \"#utility.yul\":30380:30427   */\n      mstore\n        /* \"#utility.yul\":30444:30575   */\n      tag_653\n        /* \"#utility.yul\":30570:30574   */\n      dup2\n        /* \"#utility.yul\":30444:30575   */\n      tag_364\n      jump\t// in\n    tag_653:\n        /* \"#utility.yul\":30436:30575   */\n      swap1\n      pop\n        /* \"#utility.yul\":30163:30582   */\n      swap2\n      swap1\n      pop\n      jump\t// out\n        /* \"#utility.yul\":30588:30821   */\n    tag_250:\n        /* \"#utility.yul\":30627:30630   */\n      0x00\n        /* \"#utility.yul\":30650:30674   */\n      tag_655\n        /* \"#utility.yul\":30668:30673   */\n      dup3\n        /* \"#utility.yul\":30650:30674   */\n      tag_288\n      jump\t// in\n    tag_655:\n        /* \"#utility.yul\":30641:30674   */\n      swap2\n      pop\n        /* \"#utility.yul\":30696:30762   */\n      0xffffffffffffffffffffffffffffffffffffffffffffffffffffffffffffffff\n        /* \"#utility.yul\":30689:30694   */\n      dup3\n        /* \"#utility.yul\":30686:30763   */\n      sub\n        /* \"#utility.yul\":30683:30786   */\n      tag_656\n      jumpi\n        /* \"#utility.yul\":30766:30784   */\n      tag_657\n      tag_338\n      jump\t// in\n    tag_657:\n        /* \"#utility.yul\":30683:30786   */\n    tag_656:\n        /* \"#utility.yul\":30813:30814   */\n      0x01\n        /* \"#utility.yul\":30806:30811   */\n      dup3\n        /* \"#utility.yul\":30802:30815   */\n      add\n        /* \"#utility.yul\":30795:30815   */\n      swap1\n      pop\n        /* \"#utility.yul\":30588:30821   */\n      swap2\n      swap1\n      pop\n      jump\t// out\n\n    auxdata: 0xa26469706673582212202ebd117f18688c36f56c510323227004c391b601c4169f30cbc4041e1adefe6f64736f6c634300081a0033\n}\n",
				"bytecode": {
					"linkReferences": {},
					"object": "608060405234801561000f575f80fd5b50604051612a4f380380612a4f833981810160405281019061003191906102c5565b835f908161003f9190610578565b50826001908161004f9190610578565b508160028190555062015180816100669190610674565b4261007191906106b5565b6003819055508460045f6101000a81548173ffffffffffffffffffffffffffffffffffffffff021916908373ffffffffffffffffffffffffffffffffffffffff1602179055505f600460156101000a81548160ff021916908360028111156100dc576100db6106e8565b5b02179055505050505050610715565b5f604051905090565b5f80fd5b5f80fd5b5f73ffffffffffffffffffffffffffffffffffffffff82169050919050565b5f610125826100fc565b9050919050565b6101358161011b565b811461013f575f80fd5b50565b5f815190506101508161012c565b92915050565b5f80fd5b5f80fd5b5f601f19601f8301169050919050565b7f4e487b71000000000000000000000000000000000000000000000000000000005f52604160045260245ffd5b6101a48261015e565b810181811067ffffffffffffffff821117156101c3576101c261016e565b5b80604052505050565b5f6101d56100eb565b90506101e1828261019b565b919050565b5f67ffffffffffffffff821115610200576101ff61016e565b5b6102098261015e565b9050602081019050919050565b8281835e5f83830152505050565b5f610236610231846101e6565b6101cc565b9050828152602081018484840111156102525761025161015a565b5b61025d848285610216565b509392505050565b5f82601f83011261027957610278610156565b5b8151610289848260208601610224565b91505092915050565b5f819050919050565b6102a481610292565b81146102ae575f80fd5b50565b5f815190506102bf8161029b565b92915050565b5f805f805f60a086880312156102de576102dd6100f4565b5b5f6102eb88828901610142565b955050602086015167ffffffffffffffff81111561030c5761030b6100f8565b5b61031888828901610265565b945050604086015167ffffffffffffffff811115610339576103386100f8565b5b61034588828901610265565b9350506060610356888289016102b1565b9250506080610367888289016102b1565b9150509295509295909350565b5f81519050919050565b7f4e487b71000000000000000000000000000000000000000000000000000000005f52602260045260245ffd5b5f60028204905060018216806103c257607f821691505b6020821081036103d5576103d461037e565b5b50919050565b5f819050815f5260205f209050919050565b5f6020601f8301049050919050565b5f82821b905092915050565b5f600883026104377fffffffffffffffffffffffffffffffffffffffffffffffffffffffffffffffff826103fc565b61044186836103fc565b95508019841693508086168417925050509392505050565b5f819050919050565b5f61047c61047761047284610292565b610459565b610292565b9050919050565b5f819050919050565b61049583610462565b6104a96104a182610483565b848454610408565b825550505050565b5f90565b6104bd6104b1565b6104c881848461048c565b505050565b5b818110156104eb576104e05f826104b5565b6001810190506104ce565b5050565b601f82111561053057610501816103db565b61050a846103ed565b81016020851015610519578190505b61052d610525856103ed565b8301826104cd565b50505b505050565b5f82821c905092915050565b5f6105505f1984600802610535565b1980831691505092915050565b5f6105688383610541565b9150826002028217905092915050565b61058182610374565b67ffffffffffffffff81111561059a5761059961016e565b5b6105a482546103ab565b6105af8282856104ef565b5f60209050601f8311600181146105e0575f84156105ce578287015190505b6105d8858261055d565b86555061063f565b601f1984166105ee866103db565b5f5b82811015610615578489015182556001820191506020850194506020810190506105f0565b86831015610632578489015161062e601f891682610541565b8355505b6001600288020188555050505b505050505050565b7f4e487b71000000000000000000000000000000000000000000000000000000005f52601160045260245ffd5b5f61067e82610292565b915061068983610292565b925082820261069781610292565b915082820484148315176106ae576106ad610647565b5b5092915050565b5f6106bf82610292565b91506106ca83610292565b92508282019050808211156106e2576106e1610647565b5b92915050565b7f4e487b71000000000000000000000000000000000000000000000000000000005f52602160045260245ffd5b61232d806107225f395ff3fe60806040526004361061011e575f3560e01c80637284e4161161009f578063b85dfb8011610063578063b85dfb8014610390578063c19d93fb146103cc578063c4ae3168146103f6578063ca1d209d1461040c578063de170570146104285761011e565b80637284e416146102b05780637497211b146102da5780637adba527146103025780638da5cb5b1461033e5780638ece7b91146103685761011e565b806340193883116100e657806340193883146101f4578063590e1ae31461021e5780635c975abb14610234578063631b9d9f1461025e5780636f9fb98a146102865761011e565b8063039af9eb1461012257806306fdde0314610160578063105505151461018a57806329dcb0cf146101b45780633ccfd60b146101de575b5f80fd5b34801561012d575f80fd5b50610148600480360381019061014391906113e1565b610452565b6040516101579392919061148b565b60405180910390f35b34801561016b575f80fd5b5061017461050d565b60405161018191906114c7565b60405180910390f35b348015610195575f80fd5b5061019e610598565b6040516101ab919061155a565b60405180910390f35b3480156101bf575f80fd5b506101c8610612565b6040516101d59190611573565b60405180910390f35b3480156101e9575f80fd5b506101f2610618565b005b3480156101ff575f80fd5b506102086107d3565b6040516102159190611573565b60405180910390f35b348015610229575f80fd5b506102326107d9565b005b34801561023f575f80fd5b506102486108f1565b60405161025591906115a6565b60405180910390f35b348015610269575f80fd5b50610284600480360381019061027f91906113e1565b610904565b005b348015610291575f80fd5b5061029a610a31565b6040516102a79190611573565b60405180910390f35b3480156102bb575f80fd5b506102c4610a38565b6040516102d191906114c7565b60405180910390f35b3480156102e5575f80fd5b5061030060048036038101906102fb91906113e1565b610ac4565b005b34801561030d575f80fd5b5061032860048036038101906103239190611619565b610c5d565b60405161033591906115a6565b60405180910390f35b348015610349575f80fd5b50610352610cc2565b60405161035f9190611666565b60405180910390f35b348015610373575f80fd5b5061038e600480360381019061038991906117ab565b610ce7565b005b34801561039b575f80fd5b506103b660048036038101906103b19190611805565b610e29565b6040516103c39190611573565b60405180910390f35b3480156103d7575f80fd5b506103e0610e43565b6040516103ed919061155a565b60405180910390f35b348015610401575f80fd5b5061040a610e56565b005b610426600480360381019061042191906113e1565b610f11565b005b348015610433575f80fd5b5061043c611181565b604051610449919061198f565b60405180910390f35b60058181548110610461575f80fd5b905f5260205f2090600302015f91509050805f018054610480906119dc565b80601f01602080910402602001604051908101604052809291908181526020018280546104ac906119dc565b80156104f75780601f106104ce576101008083540402835291602001916104f7565b820191905f5260205f20905b8154815290600101906020018083116104da57829003601f168201915b5050505050908060010154908060020154905083565b5f8054610519906119dc565b80601f0160208091040260200160405190810160405280929190818152602001828054610545906119dc565b80156105905780601f1061056757610100808354040283529160200191610590565b820191905f5260205f20905b81548152906001019060200180831161057357829003601f168201915b505050505081565b5f8060028111156105ac576105ab6114e7565b5b600460159054906101000a900460ff1660028111156105ce576105cd6114e7565b5b1480156105dc575060035442115b156105fc576002544710156105f25760026105f5565b60015b905061060f565b600460159054906101000a900460ff1690505b90565b60035481565b60045f9054906101000a900473ffffffffffffffffffffffffffffffffffffffff1673ffffffffffffffffffffffffffffffffffffffff163373ffffffffffffffffffffffffffffffffffffffff16146106a7576040517f08c379a000000000000000000000000000000000000000000000000000000000815260040161069e90611a56565b60405180910390fd5b6106af611280565b600160028111156106c3576106c26114e7565b5b600460159054906101000a900460ff1660028111156106e5576106e46114e7565b5b14610725576040517f08c379a000000000000000000000000000000000000000000000000000000000815260040161071c90611abe565b60405180910390fd5b5f4790505f811161076b576040517f08c379a000000000000000000000000000000000000000000000000000000000815260040161076290611b26565b60405180910390fd5b60045f9054906101000a900473ffffffffffffffffffffffffffffffffffffffff1673ffffffffffffffffffffffffffffffffffffffff166108fc8290811502906040515f60405180830381858888f193505050501580156107cf573d5f803e3d5ffd5b5050565b60025481565b6107e1611280565b5f60065f3373ffffffffffffffffffffffffffffffffffffffff1673ffffffffffffffffffffffffffffffffffffffff1681526020019081526020015f205f015490505f8111610866576040517f08c379a000000000000000000000000000000000000000000000000000000000815260040161085d90611b8e565b60405180910390fd5b5f60065f3373ffffffffffffffffffffffffffffffffffffffff1673ffffffffffffffffffffffffffffffffffffffff1681526020019081526020015f205f01819055503373ffffffffffffffffffffffffffffffffffffffff166108fc8290811502906040515f60405180830381858888f193505050501580156108ed573d5f803e3d5ffd5b5050565b600460149054906101000a900460ff1681565b60045f9054906101000a900473ffffffffffffffffffffffffffffffffffffffff1673ffffffffffffffffffffffffffffffffffffffff163373ffffffffffffffffffffffffffffffffffffffff1614610993576040517f08c379a000000000000000000000000000000000000000000000000000000000815260040161098a90611a56565b60405180910390fd5b5f60028111156109a6576109a56114e7565b5b600460159054906101000a900460ff1660028111156109c8576109c76114e7565b5b14610a08576040517f08c379a00000000000000000000000000000000000000000000000000000000081526004016109ff90611bf6565b60405180910390fd5b6201518081610a179190611c41565b60035f828254610a279190611c82565b9250508190555050565b5f47905090565b60018054610a45906119dc565b80601f0160208091040260200160405190810160405280929190818152602001828054610a71906119dc565b8015610abc5780601f10610a9357610100808354040283529160200191610abc565b820191905f5260205f20905b815481529060010190602001808311610a9f57829003601f168201915b505050505081565b60045f9054906101000a900473ffffffffffffffffffffffffffffffffffffffff1673ffffffffffffffffffffffffffffffffffffffff163373ffffffffffffffffffffffffffffffffffffffff1614610b53576040517f08c379a0000000000000000000000000000000000000000000000000000000008152600401610b4a90611a56565b60405180910390fd5b6005805490508110610b9a576040517f08c379a0000000000000000000000000000000000000000000000000000000008152600401610b9190611cff565b60405180910390fd5b60056001600580549050610bae9190611d1d565b81548110610bbf57610bbe611d50565b5b905f5260205f20906003020160058281548110610bdf57610bde611d50565b5b905f5260205f2090600302015f8201815f019081610bfd9190611f2f565b5060018201548160010155600282015481600201559050506005805480610c2757610c26612014565b5b600190038181905f5260205f2090600302015f8082015f610c489190611345565b600182015f9055600282015f90555050905550565b5f60065f8473ffffffffffffffffffffffffffffffffffffffff1673ffffffffffffffffffffffffffffffffffffffff1681526020019081526020015f206001015f8381526020019081526020015f205f9054906101000a900460ff16905092915050565b60045f9054906101000a900473ffffffffffffffffffffffffffffffffffffffff1681565b60045f9054906101000a900473ffffffffffffffffffffffffffffffffffffffff1673ffffffffffffffffffffffffffffffffffffffff163373ffffffffffffffffffffffffffffffffffffffff1614610d76576040517f08c379a0000000000000000000000000000000000000000000000000000000008152600401610d6d90611a56565b60405180910390fd5b5f8111610db8576040517f08c379a0000000000000000000000000000000000000000000000000000000008152600401610daf9061208b565b60405180910390fd5b600560405180606001604052808481526020018381526020015f815250908060018154018082558091505060019003905f5260205f2090600302015f909190919091505f820151815f019081610e0e91906120a9565b50602082015181600101556040820151816002015550505050565b6006602052805f5260405f205f91509050805f0154905081565b600460159054906101000a900460ff1681565b60045f9054906101000a900473ffffffffffffffffffffffffffffffffffffffff1673ffffffffffffffffffffffffffffffffffffffff163373ffffffffffffffffffffffffffffffffffffffff1614610ee5576040517f08c379a0000000000000000000000000000000000000000000000000000000008152600401610edc90611a56565b60405180910390fd5b600460149054906101000a900460ff1615600460146101000a81548160ff021916908315150217905550565b5f6002811115610f2457610f236114e7565b5b600460159054906101000a900460ff166002811115610f4657610f456114e7565b5b14610f86576040517f08c379a0000000000000000000000000000000000000000000000000000000008152600401610f7d90611bf6565b60405180910390fd5b600460149054906101000a900460ff1615610fd6576040517f08c379a0000000000000000000000000000000000000000000000000000000008152600401610fcd906121c2565b60405180910390fd5b600580549050811061101d576040517f08c379a00000000000000000000000000000000000000000000000000000000081526004016110149061222a565b60405180910390fd5b6005818154811061103157611030611d50565b5b905f5260205f209060030201600101543414611082576040517f08c379a000000000000000000000000000000000000000000000000000000000815260040161107990612292565b60405180910390fd5b6005818154811061109657611095611d50565b5b905f5260205f2090600302016002015f8154809291906110b5906122b0565b91905055503460065f3373ffffffffffffffffffffffffffffffffffffffff1673ffffffffffffffffffffffffffffffffffffffff1681526020019081526020015f205f015f8282546111089190611c82565b92505081905550600160065f3373ffffffffffffffffffffffffffffffffffffffff1673ffffffffffffffffffffffffffffffffffffffff1681526020019081526020015f206001015f8381526020019081526020015f205f6101000a81548160ff02191690831515021790555061117e611280565b50565b60606005805480602002602001604051908101604052809291908181526020015f905b82821015611277578382905f5260205f2090600302016040518060600160405290815f820180546111d4906119dc565b80601f0160208091040260200160405190810160405280929190818152602001828054611200906119dc565b801561124b5780601f106112225761010080835404028352916020019161124b565b820191905f5260205f20905b81548152906001019060200180831161122e57829003601f168201915b5050505050815260200160018201548152602001600282015481525050815260200190600101906111a4565b50505050905090565b5f6002811115611293576112926114e7565b5b600460159054906101000a900460ff1660028111156112b5576112b46114e7565b5b03611343576003544210611305576002544710156112d45760026112d7565b60015b600460156101000a81548160ff021916908360028111156112fb576112fa6114e7565b5b0217905550611342565b600254471015611315575f611318565b60015b600460156101000a81548160ff0219169083600281111561133c5761133b6114e7565b5b02179055505b5b565b508054611351906119dc565b5f825580601f10611362575061137f565b601f0160209004905f5260205f209081019061137e9190611382565b5b50565b5b80821115611399575f815f905550600101611383565b5090565b5f604051905090565b5f80fd5b5f80fd5b5f819050919050565b6113c0816113ae565b81146113ca575f80fd5b50565b5f813590506113db816113b7565b92915050565b5f602082840312156113f6576113f56113a6565b5b5f611403848285016113cd565b91505092915050565b5f81519050919050565b5f82825260208201905092915050565b8281835e5f83830152505050565b5f601f19601f8301169050919050565b5f61144e8261140c565b6114588185611416565b9350611468818560208601611426565b61147181611434565b840191505092915050565b611485816113ae565b82525050565b5f6060820190508181035f8301526114a38186611444565b90506114b2602083018561147c565b6114bf604083018461147c565b949350505050565b5f6020820190508181035f8301526114df8184611444565b905092915050565b7f4e487b71000000000000000000000000000000000000000000000000000000005f52602160045260245ffd5b60038110611525576115246114e7565b5b50565b5f81905061153582611514565b919050565b5f61154482611528565b9050919050565b6115548161153a565b82525050565b5f60208201905061156d5f83018461154b565b92915050565b5f6020820190506115865f83018461147c565b92915050565b5f8115159050919050565b6115a08161158c565b82525050565b5f6020820190506115b95f830184611597565b92915050565b5f73ffffffffffffffffffffffffffffffffffffffff82169050919050565b5f6115e8826115bf565b9050919050565b6115f8816115de565b8114611602575f80fd5b50565b5f81359050611613816115ef565b92915050565b5f806040838503121561162f5761162e6113a6565b5b5f61163c85828601611605565b925050602061164d858286016113cd565b9150509250929050565b611660816115de565b82525050565b5f6020820190506116795f830184611657565b92915050565b5f80fd5b5f80fd5b7f4e487b71000000000000000000000000000000000000000000000000000000005f52604160045260245ffd5b6116bd82611434565b810181811067ffffffffffffffff821117156116dc576116db611687565b5b80604052505050565b5f6116ee61139d565b90506116fa82826116b4565b919050565b5f67ffffffffffffffff82111561171957611718611687565b5b61172282611434565b9050602081019050919050565b828183375f83830152505050565b5f61174f61174a846116ff565b6116e5565b90508281526020810184848401111561176b5761176a611683565b5b61177684828561172f565b509392505050565b5f82601f8301126117925761179161167f565b5b81356117a284826020860161173d565b91505092915050565b5f80604083850312156117c1576117c06113a6565b5b5f83013567ffffffffffffffff8111156117de576117dd6113aa565b5b6117ea8582860161177e565b92505060206117fb858286016113cd565b9150509250929050565b5f6020828403121561181a576118196113a6565b5b5f61182784828501611605565b91505092915050565b5f81519050919050565b5f82825260208201905092915050565b5f819050602082019050919050565b5f82825260208201905092915050565b5f6118738261140c565b61187d8185611859565b935061188d818560208601611426565b61189681611434565b840191505092915050565b6118aa816113ae565b82525050565b5f606083015f8301518482035f8601526118ca8282611869565b91505060208301516118df60208601826118a1565b5060408301516118f260408601826118a1565b508091505092915050565b5f61190883836118b0565b905092915050565b5f602082019050919050565b5f61192682611830565b611930818561183a565b9350836020820285016119428561184a565b805f5b8581101561197d578484038952815161195e85826118fd565b945061196983611910565b925060208a01995050600181019050611945565b50829750879550505050505092915050565b5f6020820190508181035f8301526119a7818461191c565b905092915050565b7f4e487b71000000000000000000000000000000000000000000000000000000005f52602260045260245ffd5b5f60028204905060018216806119f357607f821691505b602082108103611a0657611a056119af565b5b50919050565b7f4e6f7420746865206f776e6572000000000000000000000000000000000000005f82015250565b5f611a40600d83611416565b9150611a4b82611a0c565b602082019050919050565b5f6020820190508181035f830152611a6d81611a34565b9050919050565b7f43616d706169676e206973206e6f74207375636365737366756c0000000000005f82015250565b5f611aa8601a83611416565b9150611ab382611a74565b602082019050919050565b5f6020820190508181035f830152611ad581611a9c565b9050919050565b7f4e6f2062616c616e636520746f207769746864726177000000000000000000005f82015250565b5f611b10601683611416565b9150611b1b82611adc565b602082019050919050565b5f6020820190508181035f830152611b3d81611b04565b9050919050565b7f4e6f20436f6e747269627574696f6e20746f20726566756e64000000000000005f82015250565b5f611b78601983611416565b9150611b8382611b44565b602082019050919050565b5f6020820190508181035f830152611ba581611b6c565b9050919050565b7f43616d706169676e206973206e6f7420616374697665000000000000000000005f82015250565b5f611be0601683611416565b9150611beb82611bac565b602082019050919050565b5f6020820190508181035f830152611c0d81611bd4565b9050919050565b7f4e487b71000000000000000000000000000000000000000000000000000000005f52601160045260245ffd5b5f611c4b826113ae565b9150611c56836113ae565b9250828202611c64816113ae565b91508282048414831517611c7b57611c7a611c14565b5b5092915050565b5f611c8c826113ae565b9150611c97836113ae565b9250828201905080821115611caf57611cae611c14565b5b92915050565b7f546965727320646f6573206e6f742065786974000000000000000000000000005f82015250565b5f611ce9601383611416565b9150611cf482611cb5565b602082019050919050565b5f6020820190508181035f830152611d1681611cdd565b9050919050565b5f611d27826113ae565b9150611d32836113ae565b9250828203905081811115611d4a57611d49611c14565b5b92915050565b7f4e487b71000000000000000000000000000000000000000000000000000000005f52603260045260245ffd5b5f81549050611d8b816119dc565b9050919050565b5f819050815f5260205f209050919050565b5f6020601f8301049050919050565b5f82821b905092915050565b5f60088302611dee7fffffffffffffffffffffffffffffffffffffffffffffffffffffffffffffffff82611db3565b611df88683611db3565b95508019841693508086168417925050509392505050565b5f819050919050565b5f611e33611e2e611e29846113ae565b611e10565b6113ae565b9050919050565b5f819050919050565b611e4c83611e19565b611e60611e5882611e3a565b848454611dbf565b825550505050565b5f90565b611e74611e68565b611e7f818484611e43565b505050565b5b81811015611ea257611e975f82611e6c565b600181019050611e85565b5050565b601f821115611ee757611eb881611d92565b611ec184611da4565b81016020851015611ed0578190505b611ee4611edc85611da4565b830182611e84565b50505b505050565b5f82821c905092915050565b5f611f075f1984600802611eec565b1980831691505092915050565b5f611f1f8383611ef8565b9150826002028217905092915050565b818103611f3d575050612012565b611f4682611d7d565b67ffffffffffffffff811115611f5f57611f5e611687565b5b611f6982546119dc565b611f74828285611ea6565b5f601f831160018114611fa1575f8415611f8f578287015490505b611f998582611f14565b86555061200b565b601f198416611faf87611d92565b9650611fba86611d92565b5f5b82811015611fe157848901548255600182019150600185019450602081019050611fbc565b86831015611ffe5784890154611ffa601f891682611ef8565b8355505b6001600288020188555050505b5050505050505b565b7f4e487b71000000000000000000000000000000000000000000000000000000005f52603160045260245ffd5b7f416d6f756e74206d7573742062652067726561746572207468616e20302e00005f82015250565b5f612075601e83611416565b915061208082612041565b602082019050919050565b5f6020820190508181035f8301526120a281612069565b9050919050565b6120b28261140c565b67ffffffffffffffff8111156120cb576120ca611687565b5b6120d582546119dc565b6120e0828285611ea6565b5f60209050601f831160018114612111575f84156120ff578287015190505b6121098582611f14565b865550612170565b601f19841661211f86611d92565b5f5b8281101561214657848901518255600182019150602085019450602081019050612121565b86831015612163578489015161215f601f891682611ef8565b8355505b6001600288020188555050505b505050505050565b7f436f6e74726163742069732070617573656400000000000000000000000000005f82015250565b5f6121ac601283611416565b91506121b782612178565b602082019050919050565b5f6020820190508181035f8301526121d9816121a0565b9050919050565b7f496e76616c696420746965722e000000000000000000000000000000000000005f82015250565b5f612214600d83611416565b915061221f826121e0565b602082019050919050565b5f6020820190508181035f83015261224181612208565b9050919050565b7f496e76616c696420616d6f756e742e00000000000000000000000000000000005f82015250565b5f61227c600f83611416565b915061228782612248565b602082019050919050565b5f6020820190508181035f8301526122a981612270565b9050919050565b5f6122ba826113ae565b91507fffffffffffffffffffffffffffffffffffffffffffffffffffffffffffffffff82036122ec576122eb611c14565b5b60018201905091905056fea26469706673582212202ebd117f18688c36f56c510323227004c391b601c4169f30cbc4041e1adefe6f64736f6c634300081a0033",
					"opcodes": "PUSH1 0x80 PUSH1 0x40 MSTORE CALLVALUE DUP1 ISZERO PUSH2 0xF JUMPI PUSH0 DUP1 REVERT JUMPDEST POP PUSH1 0x40 MLOAD PUSH2 0x2A4F CODESIZE SUB DUP1 PUSH2 0x2A4F DUP4 CODECOPY DUP2 DUP2 ADD PUSH1 0x40 MSTORE DUP2 ADD SWAP1 PUSH2 0x31 SWAP2 SWAP1 PUSH2 0x2C5 JUMP JUMPDEST DUP4 PUSH0 SWAP1 DUP2 PUSH2 0x3F SWAP2 SWAP1 PUSH2 0x578 JUMP JUMPDEST POP DUP3 PUSH1 0x1 SWAP1 DUP2 PUSH2 0x4F SWAP2 SWAP1 PUSH2 0x578 JUMP JUMPDEST POP DUP2 PUSH1 0x2 DUP2 SWAP1 SSTORE POP PUSH3 0x15180 DUP2 PUSH2 0x66 SWAP2 SWAP1 PUSH2 0x674 JUMP JUMPDEST TIMESTAMP PUSH2 0x71 SWAP2 SWAP1 PUSH2 0x6B5 JUMP JUMPDEST PUSH1 0x3 DUP2 SWAP1 SSTORE POP DUP5 PUSH1 0x4 PUSH0 PUSH2 0x100 EXP DUP2 SLOAD DUP2 PUSH20 0xFFFFFFFFFFFFFFFFFFFFFFFFFFFFFFFFFFFFFFFF MUL NOT AND SWAP1 DUP4 PUSH20 0xFFFFFFFFFFFFFFFFFFFFFFFFFFFFFFFFFFFFFFFF AND MUL OR SWAP1 SSTORE POP PUSH0 PUSH1 0x4 PUSH1 0x15 PUSH2 0x100 EXP DUP2 SLOAD DUP2 PUSH1 0xFF MUL NOT AND SWAP1 DUP4 PUSH1 0x2 DUP2 GT ISZERO PUSH2 0xDC JUMPI PUSH2 0xDB PUSH2 0x6E8 JUMP JUMPDEST JUMPDEST MUL OR SWAP1 SSTORE POP POP POP POP POP POP PUSH2 0x715 JUMP JUMPDEST PUSH0 PUSH1 0x40 MLOAD SWAP1 POP SWAP1 JUMP JUMPDEST PUSH0 DUP1 REVERT JUMPDEST PUSH0 DUP1 REVERT JUMPDEST PUSH0 PUSH20 0xFFFFFFFFFFFFFFFFFFFFFFFFFFFFFFFFFFFFFFFF DUP3 AND SWAP1 POP SWAP2 SWAP1 POP JUMP JUMPDEST PUSH0 PUSH2 0x125 DUP3 PUSH2 0xFC JUMP JUMPDEST SWAP1 POP SWAP2 SWAP1 POP JUMP JUMPDEST PUSH2 0x135 DUP2 PUSH2 0x11B JUMP JUMPDEST DUP2 EQ PUSH2 0x13F JUMPI PUSH0 DUP1 REVERT JUMPDEST POP JUMP JUMPDEST PUSH0 DUP2 MLOAD SWAP1 POP PUSH2 0x150 DUP2 PUSH2 0x12C JUMP JUMPDEST SWAP3 SWAP2 POP POP JUMP JUMPDEST PUSH0 DUP1 REVERT JUMPDEST PUSH0 DUP1 REVERT JUMPDEST PUSH0 PUSH1 0x1F NOT PUSH1 0x1F DUP4 ADD AND SWAP1 POP SWAP2 SWAP1 POP JUMP JUMPDEST PUSH32 0x4E487B7100000000000000000000000000000000000000000000000000000000 PUSH0 MSTORE PUSH1 0x41 PUSH1 0x4 MSTORE PUSH1 0x24 PUSH0 REVERT JUMPDEST PUSH2 0x1A4 DUP3 PUSH2 0x15E JUMP JUMPDEST DUP2 ADD DUP2 DUP2 LT PUSH8 0xFFFFFFFFFFFFFFFF DUP3 GT OR ISZERO PUSH2 0x1C3 JUMPI PUSH2 0x1C2 PUSH2 0x16E JUMP JUMPDEST JUMPDEST DUP1 PUSH1 0x40 MSTORE POP POP POP JUMP JUMPDEST PUSH0 PUSH2 0x1D5 PUSH2 0xEB JUMP JUMPDEST SWAP1 POP PUSH2 0x1E1 DUP3 DUP3 PUSH2 0x19B JUMP JUMPDEST SWAP2 SWAP1 POP JUMP JUMPDEST PUSH0 PUSH8 0xFFFFFFFFFFFFFFFF DUP3 GT ISZERO PUSH2 0x200 JUMPI PUSH2 0x1FF PUSH2 0x16E JUMP JUMPDEST JUMPDEST PUSH2 0x209 DUP3 PUSH2 0x15E JUMP JUMPDEST SWAP1 POP PUSH1 0x20 DUP2 ADD SWAP1 POP SWAP2 SWAP1 POP JUMP JUMPDEST DUP3 DUP2 DUP4 MCOPY PUSH0 DUP4 DUP4 ADD MSTORE POP POP POP JUMP JUMPDEST PUSH0 PUSH2 0x236 PUSH2 0x231 DUP5 PUSH2 0x1E6 JUMP JUMPDEST PUSH2 0x1CC JUMP JUMPDEST SWAP1 POP DUP3 DUP2 MSTORE PUSH1 0x20 DUP2 ADD DUP5 DUP5 DUP5 ADD GT ISZERO PUSH2 0x252 JUMPI PUSH2 0x251 PUSH2 0x15A JUMP JUMPDEST JUMPDEST PUSH2 0x25D DUP5 DUP3 DUP6 PUSH2 0x216 JUMP JUMPDEST POP SWAP4 SWAP3 POP POP POP JUMP JUMPDEST PUSH0 DUP3 PUSH1 0x1F DUP4 ADD SLT PUSH2 0x279 JUMPI PUSH2 0x278 PUSH2 0x156 JUMP JUMPDEST JUMPDEST DUP2 MLOAD PUSH2 0x289 DUP5 DUP3 PUSH1 0x20 DUP7 ADD PUSH2 0x224 JUMP JUMPDEST SWAP2 POP POP SWAP3 SWAP2 POP POP JUMP JUMPDEST PUSH0 DUP2 SWAP1 POP SWAP2 SWAP1 POP JUMP JUMPDEST PUSH2 0x2A4 DUP2 PUSH2 0x292 JUMP JUMPDEST DUP2 EQ PUSH2 0x2AE JUMPI PUSH0 DUP1 REVERT JUMPDEST POP JUMP JUMPDEST PUSH0 DUP2 MLOAD SWAP1 POP PUSH2 0x2BF DUP2 PUSH2 0x29B JUMP JUMPDEST SWAP3 SWAP2 POP POP JUMP JUMPDEST PUSH0 DUP1 PUSH0 DUP1 PUSH0 PUSH1 0xA0 DUP7 DUP9 SUB SLT ISZERO PUSH2 0x2DE JUMPI PUSH2 0x2DD PUSH2 0xF4 JUMP JUMPDEST JUMPDEST PUSH0 PUSH2 0x2EB DUP9 DUP3 DUP10 ADD PUSH2 0x142 JUMP JUMPDEST SWAP6 POP POP PUSH1 0x20 DUP7 ADD MLOAD PUSH8 0xFFFFFFFFFFFFFFFF DUP2 GT ISZERO PUSH2 0x30C JUMPI PUSH2 0x30B PUSH2 0xF8 JUMP JUMPDEST JUMPDEST PUSH2 0x318 DUP9 DUP3 DUP10 ADD PUSH2 0x265 JUMP JUMPDEST SWAP5 POP POP PUSH1 0x40 DUP7 ADD MLOAD PUSH8 0xFFFFFFFFFFFFFFFF DUP2 GT ISZERO PUSH2 0x339 JUMPI PUSH2 0x338 PUSH2 0xF8 JUMP JUMPDEST JUMPDEST PUSH2 0x345 DUP9 DUP3 DUP10 ADD PUSH2 0x265 JUMP JUMPDEST SWAP4 POP POP PUSH1 0x60 PUSH2 0x356 DUP9 DUP3 DUP10 ADD PUSH2 0x2B1 JUMP JUMPDEST SWAP3 POP POP PUSH1 0x80 PUSH2 0x367 DUP9 DUP3 DUP10 ADD PUSH2 0x2B1 JUMP JUMPDEST SWAP2 POP POP SWAP3 SWAP6 POP SWAP3 SWAP6 SWAP1 SWAP4 POP JUMP JUMPDEST PUSH0 DUP2 MLOAD SWAP1 POP SWAP2 SWAP1 POP JUMP JUMPDEST PUSH32 0x4E487B7100000000000000000000000000000000000000000000000000000000 PUSH0 MSTORE PUSH1 0x22 PUSH1 0x4 MSTORE PUSH1 0x24 PUSH0 REVERT JUMPDEST PUSH0 PUSH1 0x2 DUP3 DIV SWAP1 POP PUSH1 0x1 DUP3 AND DUP1 PUSH2 0x3C2 JUMPI PUSH1 0x7F DUP3 AND SWAP2 POP JUMPDEST PUSH1 0x20 DUP3 LT DUP2 SUB PUSH2 0x3D5 JUMPI PUSH2 0x3D4 PUSH2 0x37E JUMP JUMPDEST JUMPDEST POP SWAP2 SWAP1 POP JUMP JUMPDEST PUSH0 DUP2 SWAP1 POP DUP2 PUSH0 MSTORE PUSH1 0x20 PUSH0 KECCAK256 SWAP1 POP SWAP2 SWAP1 POP JUMP JUMPDEST PUSH0 PUSH1 0x20 PUSH1 0x1F DUP4 ADD DIV SWAP1 POP SWAP2 SWAP1 POP JUMP JUMPDEST PUSH0 DUP3 DUP3 SHL SWAP1 POP SWAP3 SWAP2 POP POP JUMP JUMPDEST PUSH0 PUSH1 0x8 DUP4 MUL PUSH2 0x437 PUSH32 0xFFFFFFFFFFFFFFFFFFFFFFFFFFFFFFFFFFFFFFFFFFFFFFFFFFFFFFFFFFFFFFFF DUP3 PUSH2 0x3FC JUMP JUMPDEST PUSH2 0x441 DUP7 DUP4 PUSH2 0x3FC JUMP JUMPDEST SWAP6 POP DUP1 NOT DUP5 AND SWAP4 POP DUP1 DUP7 AND DUP5 OR SWAP3 POP POP POP SWAP4 SWAP3 POP POP POP JUMP JUMPDEST PUSH0 DUP2 SWAP1 POP SWAP2 SWAP1 POP JUMP JUMPDEST PUSH0 PUSH2 0x47C PUSH2 0x477 PUSH2 0x472 DUP5 PUSH2 0x292 JUMP JUMPDEST PUSH2 0x459 JUMP JUMPDEST PUSH2 0x292 JUMP JUMPDEST SWAP1 POP SWAP2 SWAP1 POP JUMP JUMPDEST PUSH0 DUP2 SWAP1 POP SWAP2 SWAP1 POP JUMP JUMPDEST PUSH2 0x495 DUP4 PUSH2 0x462 JUMP JUMPDEST PUSH2 0x4A9 PUSH2 0x4A1 DUP3 PUSH2 0x483 JUMP JUMPDEST DUP5 DUP5 SLOAD PUSH2 0x408 JUMP JUMPDEST DUP3 SSTORE POP POP POP POP JUMP JUMPDEST PUSH0 SWAP1 JUMP JUMPDEST PUSH2 0x4BD PUSH2 0x4B1 JUMP JUMPDEST PUSH2 0x4C8 DUP2 DUP5 DUP5 PUSH2 0x48C JUMP JUMPDEST POP POP POP JUMP JUMPDEST JUMPDEST DUP2 DUP2 LT ISZERO PUSH2 0x4EB JUMPI PUSH2 0x4E0 PUSH0 DUP3 PUSH2 0x4B5 JUMP JUMPDEST PUSH1 0x1 DUP2 ADD SWAP1 POP PUSH2 0x4CE JUMP JUMPDEST POP POP JUMP JUMPDEST PUSH1 0x1F DUP3 GT ISZERO PUSH2 0x530 JUMPI PUSH2 0x501 DUP2 PUSH2 0x3DB JUMP JUMPDEST PUSH2 0x50A DUP5 PUSH2 0x3ED JUMP JUMPDEST DUP2 ADD PUSH1 0x20 DUP6 LT ISZERO PUSH2 0x519 JUMPI DUP2 SWAP1 POP JUMPDEST PUSH2 0x52D PUSH2 0x525 DUP6 PUSH2 0x3ED JUMP JUMPDEST DUP4 ADD DUP3 PUSH2 0x4CD JUMP JUMPDEST POP POP JUMPDEST POP POP POP JUMP JUMPDEST PUSH0 DUP3 DUP3 SHR SWAP1 POP SWAP3 SWAP2 POP POP JUMP JUMPDEST PUSH0 PUSH2 0x550 PUSH0 NOT DUP5 PUSH1 0x8 MUL PUSH2 0x535 JUMP JUMPDEST NOT DUP1 DUP4 AND SWAP2 POP POP SWAP3 SWAP2 POP POP JUMP JUMPDEST PUSH0 PUSH2 0x568 DUP4 DUP4 PUSH2 0x541 JUMP JUMPDEST SWAP2 POP DUP3 PUSH1 0x2 MUL DUP3 OR SWAP1 POP SWAP3 SWAP2 POP POP JUMP JUMPDEST PUSH2 0x581 DUP3 PUSH2 0x374 JUMP JUMPDEST PUSH8 0xFFFFFFFFFFFFFFFF DUP2 GT ISZERO PUSH2 0x59A JUMPI PUSH2 0x599 PUSH2 0x16E JUMP JUMPDEST JUMPDEST PUSH2 0x5A4 DUP3 SLOAD PUSH2 0x3AB JUMP JUMPDEST PUSH2 0x5AF DUP3 DUP3 DUP6 PUSH2 0x4EF JUMP JUMPDEST PUSH0 PUSH1 0x20 SWAP1 POP PUSH1 0x1F DUP4 GT PUSH1 0x1 DUP2 EQ PUSH2 0x5E0 JUMPI PUSH0 DUP5 ISZERO PUSH2 0x5CE JUMPI DUP3 DUP8 ADD MLOAD SWAP1 POP JUMPDEST PUSH2 0x5D8 DUP6 DUP3 PUSH2 0x55D JUMP JUMPDEST DUP7 SSTORE POP PUSH2 0x63F JUMP JUMPDEST PUSH1 0x1F NOT DUP5 AND PUSH2 0x5EE DUP7 PUSH2 0x3DB JUMP JUMPDEST PUSH0 JUMPDEST DUP3 DUP2 LT ISZERO PUSH2 0x615 JUMPI DUP5 DUP10 ADD MLOAD DUP3 SSTORE PUSH1 0x1 DUP3 ADD SWAP2 POP PUSH1 0x20 DUP6 ADD SWAP5 POP PUSH1 0x20 DUP2 ADD SWAP1 POP PUSH2 0x5F0 JUMP JUMPDEST DUP7 DUP4 LT ISZERO PUSH2 0x632 JUMPI DUP5 DUP10 ADD MLOAD PUSH2 0x62E PUSH1 0x1F DUP10 AND DUP3 PUSH2 0x541 JUMP JUMPDEST DUP4 SSTORE POP JUMPDEST PUSH1 0x1 PUSH1 0x2 DUP9 MUL ADD DUP9 SSTORE POP POP POP JUMPDEST POP POP POP POP POP POP JUMP JUMPDEST PUSH32 0x4E487B7100000000000000000000000000000000000000000000000000000000 PUSH0 MSTORE PUSH1 0x11 PUSH1 0x4 MSTORE PUSH1 0x24 PUSH0 REVERT JUMPDEST PUSH0 PUSH2 0x67E DUP3 PUSH2 0x292 JUMP JUMPDEST SWAP2 POP PUSH2 0x689 DUP4 PUSH2 0x292 JUMP JUMPDEST SWAP3 POP DUP3 DUP3 MUL PUSH2 0x697 DUP2 PUSH2 0x292 JUMP JUMPDEST SWAP2 POP DUP3 DUP3 DIV DUP5 EQ DUP4 ISZERO OR PUSH2 0x6AE JUMPI PUSH2 0x6AD PUSH2 0x647 JUMP JUMPDEST JUMPDEST POP SWAP3 SWAP2 POP POP JUMP JUMPDEST PUSH0 PUSH2 0x6BF DUP3 PUSH2 0x292 JUMP JUMPDEST SWAP2 POP PUSH2 0x6CA DUP4 PUSH2 0x292 JUMP JUMPDEST SWAP3 POP DUP3 DUP3 ADD SWAP1 POP DUP1 DUP3 GT ISZERO PUSH2 0x6E2 JUMPI PUSH2 0x6E1 PUSH2 0x647 JUMP JUMPDEST JUMPDEST SWAP3 SWAP2 POP POP JUMP JUMPDEST PUSH32 0x4E487B7100000000000000000000000000000000000000000000000000000000 PUSH0 MSTORE PUSH1 0x21 PUSH1 0x4 MSTORE PUSH1 0x24 PUSH0 REVERT JUMPDEST PUSH2 0x232D DUP1 PUSH2 0x722 PUSH0 CODECOPY PUSH0 RETURN INVALID PUSH1 0x80 PUSH1 0x40 MSTORE PUSH1 0x4 CALLDATASIZE LT PUSH2 0x11E JUMPI PUSH0 CALLDATALOAD PUSH1 0xE0 SHR DUP1 PUSH4 0x7284E416 GT PUSH2 0x9F JUMPI DUP1 PUSH4 0xB85DFB80 GT PUSH2 0x63 JUMPI DUP1 PUSH4 0xB85DFB80 EQ PUSH2 0x390 JUMPI DUP1 PUSH4 0xC19D93FB EQ PUSH2 0x3CC JUMPI DUP1 PUSH4 0xC4AE3168 EQ PUSH2 0x3F6 JUMPI DUP1 PUSH4 0xCA1D209D EQ PUSH2 0x40C JUMPI DUP1 PUSH4 0xDE170570 EQ PUSH2 0x428 JUMPI PUSH2 0x11E JUMP JUMPDEST DUP1 PUSH4 0x7284E416 EQ PUSH2 0x2B0 JUMPI DUP1 PUSH4 0x7497211B EQ PUSH2 0x2DA JUMPI DUP1 PUSH4 0x7ADBA527 EQ PUSH2 0x302 JUMPI DUP1 PUSH4 0x8DA5CB5B EQ PUSH2 0x33E JUMPI DUP1 PUSH4 0x8ECE7B91 EQ PUSH2 0x368 JUMPI PUSH2 0x11E JUMP JUMPDEST DUP1 PUSH4 0x40193883 GT PUSH2 0xE6 JUMPI DUP1 PUSH4 0x40193883 EQ PUSH2 0x1F4 JUMPI DUP1 PUSH4 0x590E1AE3 EQ PUSH2 0x21E JUMPI DUP1 PUSH4 0x5C975ABB EQ PUSH2 0x234 JUMPI DUP1 PUSH4 0x631B9D9F EQ PUSH2 0x25E JUMPI DUP1 PUSH4 0x6F9FB98A EQ PUSH2 0x286 JUMPI PUSH2 0x11E JUMP JUMPDEST DUP1 PUSH4 0x39AF9EB EQ PUSH2 0x122 JUMPI DUP1 PUSH4 0x6FDDE03 EQ PUSH2 0x160 JUMPI DUP1 PUSH4 0x10550515 EQ PUSH2 0x18A JUMPI DUP1 PUSH4 0x29DCB0CF EQ PUSH2 0x1B4 JUMPI DUP1 PUSH4 0x3CCFD60B EQ PUSH2 0x1DE JUMPI JUMPDEST PUSH0 DUP1 REVERT JUMPDEST CALLVALUE DUP1 ISZERO PUSH2 0x12D JUMPI PUSH0 DUP1 REVERT JUMPDEST POP PUSH2 0x148 PUSH1 0x4 DUP1 CALLDATASIZE SUB DUP2 ADD SWAP1 PUSH2 0x143 SWAP2 SWAP1 PUSH2 0x13E1 JUMP JUMPDEST PUSH2 0x452 JUMP JUMPDEST PUSH1 0x40 MLOAD PUSH2 0x157 SWAP4 SWAP3 SWAP2 SWAP1 PUSH2 0x148B JUMP JUMPDEST PUSH1 0x40 MLOAD DUP1 SWAP2 SUB SWAP1 RETURN JUMPDEST CALLVALUE DUP1 ISZERO PUSH2 0x16B JUMPI PUSH0 DUP1 REVERT JUMPDEST POP PUSH2 0x174 PUSH2 0x50D JUMP JUMPDEST PUSH1 0x40 MLOAD PUSH2 0x181 SWAP2 SWAP1 PUSH2 0x14C7 JUMP JUMPDEST PUSH1 0x40 MLOAD DUP1 SWAP2 SUB SWAP1 RETURN JUMPDEST CALLVALUE DUP1 ISZERO PUSH2 0x195 JUMPI PUSH0 DUP1 REVERT JUMPDEST POP PUSH2 0x19E PUSH2 0x598 JUMP JUMPDEST PUSH1 0x40 MLOAD PUSH2 0x1AB SWAP2 SWAP1 PUSH2 0x155A JUMP JUMPDEST PUSH1 0x40 MLOAD DUP1 SWAP2 SUB SWAP1 RETURN JUMPDEST CALLVALUE DUP1 ISZERO PUSH2 0x1BF JUMPI PUSH0 DUP1 REVERT JUMPDEST POP PUSH2 0x1C8 PUSH2 0x612 JUMP JUMPDEST PUSH1 0x40 MLOAD PUSH2 0x1D5 SWAP2 SWAP1 PUSH2 0x1573 JUMP JUMPDEST PUSH1 0x40 MLOAD DUP1 SWAP2 SUB SWAP1 RETURN JUMPDEST CALLVALUE DUP1 ISZERO PUSH2 0x1E9 JUMPI PUSH0 DUP1 REVERT JUMPDEST POP PUSH2 0x1F2 PUSH2 0x618 JUMP JUMPDEST STOP JUMPDEST CALLVALUE DUP1 ISZERO PUSH2 0x1FF JUMPI PUSH0 DUP1 REVERT JUMPDEST POP PUSH2 0x208 PUSH2 0x7D3 JUMP JUMPDEST PUSH1 0x40 MLOAD PUSH2 0x215 SWAP2 SWAP1 PUSH2 0x1573 JUMP JUMPDEST PUSH1 0x40 MLOAD DUP1 SWAP2 SUB SWAP1 RETURN JUMPDEST CALLVALUE DUP1 ISZERO PUSH2 0x229 JUMPI PUSH0 DUP1 REVERT JUMPDEST POP PUSH2 0x232 PUSH2 0x7D9 JUMP JUMPDEST STOP JUMPDEST CALLVALUE DUP1 ISZERO PUSH2 0x23F JUMPI PUSH0 DUP1 REVERT JUMPDEST POP PUSH2 0x248 PUSH2 0x8F1 JUMP JUMPDEST PUSH1 0x40 MLOAD PUSH2 0x255 SWAP2 SWAP1 PUSH2 0x15A6 JUMP JUMPDEST PUSH1 0x40 MLOAD DUP1 SWAP2 SUB SWAP1 RETURN JUMPDEST CALLVALUE DUP1 ISZERO PUSH2 0x269 JUMPI PUSH0 DUP1 REVERT JUMPDEST POP PUSH2 0x284 PUSH1 0x4 DUP1 CALLDATASIZE SUB DUP2 ADD SWAP1 PUSH2 0x27F SWAP2 SWAP1 PUSH2 0x13E1 JUMP JUMPDEST PUSH2 0x904 JUMP JUMPDEST STOP JUMPDEST CALLVALUE DUP1 ISZERO PUSH2 0x291 JUMPI PUSH0 DUP1 REVERT JUMPDEST POP PUSH2 0x29A PUSH2 0xA31 JUMP JUMPDEST PUSH1 0x40 MLOAD PUSH2 0x2A7 SWAP2 SWAP1 PUSH2 0x1573 JUMP JUMPDEST PUSH1 0x40 MLOAD DUP1 SWAP2 SUB SWAP1 RETURN JUMPDEST CALLVALUE DUP1 ISZERO PUSH2 0x2BB JUMPI PUSH0 DUP1 REVERT JUMPDEST POP PUSH2 0x2C4 PUSH2 0xA38 JUMP JUMPDEST PUSH1 0x40 MLOAD PUSH2 0x2D1 SWAP2 SWAP1 PUSH2 0x14C7 JUMP JUMPDEST PUSH1 0x40 MLOAD DUP1 SWAP2 SUB SWAP1 RETURN JUMPDEST CALLVALUE DUP1 ISZERO PUSH2 0x2E5 JUMPI PUSH0 DUP1 REVERT JUMPDEST POP PUSH2 0x300 PUSH1 0x4 DUP1 CALLDATASIZE SUB DUP2 ADD SWAP1 PUSH2 0x2FB SWAP2 SWAP1 PUSH2 0x13E1 JUMP JUMPDEST PUSH2 0xAC4 JUMP JUMPDEST STOP JUMPDEST CALLVALUE DUP1 ISZERO PUSH2 0x30D JUMPI PUSH0 DUP1 REVERT JUMPDEST POP PUSH2 0x328 PUSH1 0x4 DUP1 CALLDATASIZE SUB DUP2 ADD SWAP1 PUSH2 0x323 SWAP2 SWAP1 PUSH2 0x1619 JUMP JUMPDEST PUSH2 0xC5D JUMP JUMPDEST PUSH1 0x40 MLOAD PUSH2 0x335 SWAP2 SWAP1 PUSH2 0x15A6 JUMP JUMPDEST PUSH1 0x40 MLOAD DUP1 SWAP2 SUB SWAP1 RETURN JUMPDEST CALLVALUE DUP1 ISZERO PUSH2 0x349 JUMPI PUSH0 DUP1 REVERT JUMPDEST POP PUSH2 0x352 PUSH2 0xCC2 JUMP JUMPDEST PUSH1 0x40 MLOAD PUSH2 0x35F SWAP2 SWAP1 PUSH2 0x1666 JUMP JUMPDEST PUSH1 0x40 MLOAD DUP1 SWAP2 SUB SWAP1 RETURN JUMPDEST CALLVALUE DUP1 ISZERO PUSH2 0x373 JUMPI PUSH0 DUP1 REVERT JUMPDEST POP PUSH2 0x38E PUSH1 0x4 DUP1 CALLDATASIZE SUB DUP2 ADD SWAP1 PUSH2 0x389 SWAP2 SWAP1 PUSH2 0x17AB JUMP JUMPDEST PUSH2 0xCE7 JUMP JUMPDEST STOP JUMPDEST CALLVALUE DUP1 ISZERO PUSH2 0x39B JUMPI PUSH0 DUP1 REVERT JUMPDEST POP PUSH2 0x3B6 PUSH1 0x4 DUP1 CALLDATASIZE SUB DUP2 ADD SWAP1 PUSH2 0x3B1 SWAP2 SWAP1 PUSH2 0x1805 JUMP JUMPDEST PUSH2 0xE29 JUMP JUMPDEST PUSH1 0x40 MLOAD PUSH2 0x3C3 SWAP2 SWAP1 PUSH2 0x1573 JUMP JUMPDEST PUSH1 0x40 MLOAD DUP1 SWAP2 SUB SWAP1 RETURN JUMPDEST CALLVALUE DUP1 ISZERO PUSH2 0x3D7 JUMPI PUSH0 DUP1 REVERT JUMPDEST POP PUSH2 0x3E0 PUSH2 0xE43 JUMP JUMPDEST PUSH1 0x40 MLOAD PUSH2 0x3ED SWAP2 SWAP1 PUSH2 0x155A JUMP JUMPDEST PUSH1 0x40 MLOAD DUP1 SWAP2 SUB SWAP1 RETURN JUMPDEST CALLVALUE DUP1 ISZERO PUSH2 0x401 JUMPI PUSH0 DUP1 REVERT JUMPDEST POP PUSH2 0x40A PUSH2 0xE56 JUMP JUMPDEST STOP JUMPDEST PUSH2 0x426 PUSH1 0x4 DUP1 CALLDATASIZE SUB DUP2 ADD SWAP1 PUSH2 0x421 SWAP2 SWAP1 PUSH2 0x13E1 JUMP JUMPDEST PUSH2 0xF11 JUMP JUMPDEST STOP JUMPDEST CALLVALUE DUP1 ISZERO PUSH2 0x433 JUMPI PUSH0 DUP1 REVERT JUMPDEST POP PUSH2 0x43C PUSH2 0x1181 JUMP JUMPDEST PUSH1 0x40 MLOAD PUSH2 0x449 SWAP2 SWAP1 PUSH2 0x198F JUMP JUMPDEST PUSH1 0x40 MLOAD DUP1 SWAP2 SUB SWAP1 RETURN JUMPDEST PUSH1 0x5 DUP2 DUP2 SLOAD DUP2 LT PUSH2 0x461 JUMPI PUSH0 DUP1 REVERT JUMPDEST SWAP1 PUSH0 MSTORE PUSH1 0x20 PUSH0 KECCAK256 SWAP1 PUSH1 0x3 MUL ADD PUSH0 SWAP2 POP SWAP1 POP DUP1 PUSH0 ADD DUP1 SLOAD PUSH2 0x480 SWAP1 PUSH2 0x19DC JUMP JUMPDEST DUP1 PUSH1 0x1F ADD PUSH1 0x20 DUP1 SWAP2 DIV MUL PUSH1 0x20 ADD PUSH1 0x40 MLOAD SWAP1 DUP2 ADD PUSH1 0x40 MSTORE DUP1 SWAP3 SWAP2 SWAP1 DUP2 DUP2 MSTORE PUSH1 0x20 ADD DUP3 DUP1 SLOAD PUSH2 0x4AC SWAP1 PUSH2 0x19DC JUMP JUMPDEST DUP1 ISZERO PUSH2 0x4F7 JUMPI DUP1 PUSH1 0x1F LT PUSH2 0x4CE JUMPI PUSH2 0x100 DUP1 DUP4 SLOAD DIV MUL DUP4 MSTORE SWAP2 PUSH1 0x20 ADD SWAP2 PUSH2 0x4F7 JUMP JUMPDEST DUP3 ADD SWAP2 SWAP1 PUSH0 MSTORE PUSH1 0x20 PUSH0 KECCAK256 SWAP1 JUMPDEST DUP2 SLOAD DUP2 MSTORE SWAP1 PUSH1 0x1 ADD SWAP1 PUSH1 0x20 ADD DUP1 DUP4 GT PUSH2 0x4DA JUMPI DUP3 SWAP1 SUB PUSH1 0x1F AND DUP3 ADD SWAP2 JUMPDEST POP POP POP POP POP SWAP1 DUP1 PUSH1 0x1 ADD SLOAD SWAP1 DUP1 PUSH1 0x2 ADD SLOAD SWAP1 POP DUP4 JUMP JUMPDEST PUSH0 DUP1 SLOAD PUSH2 0x519 SWAP1 PUSH2 0x19DC JUMP JUMPDEST DUP1 PUSH1 0x1F ADD PUSH1 0x20 DUP1 SWAP2 DIV MUL PUSH1 0x20 ADD PUSH1 0x40 MLOAD SWAP1 DUP2 ADD PUSH1 0x40 MSTORE DUP1 SWAP3 SWAP2 SWAP1 DUP2 DUP2 MSTORE PUSH1 0x20 ADD DUP3 DUP1 SLOAD PUSH2 0x545 SWAP1 PUSH2 0x19DC JUMP JUMPDEST DUP1 ISZERO PUSH2 0x590 JUMPI DUP1 PUSH1 0x1F LT PUSH2 0x567 JUMPI PUSH2 0x100 DUP1 DUP4 SLOAD DIV MUL DUP4 MSTORE SWAP2 PUSH1 0x20 ADD SWAP2 PUSH2 0x590 JUMP JUMPDEST DUP3 ADD SWAP2 SWAP1 PUSH0 MSTORE PUSH1 0x20 PUSH0 KECCAK256 SWAP1 JUMPDEST DUP2 SLOAD DUP2 MSTORE SWAP1 PUSH1 0x1 ADD SWAP1 PUSH1 0x20 ADD DUP1 DUP4 GT PUSH2 0x573 JUMPI DUP3 SWAP1 SUB PUSH1 0x1F AND DUP3 ADD SWAP2 JUMPDEST POP POP POP POP POP DUP2 JUMP JUMPDEST PUSH0 DUP1 PUSH1 0x2 DUP2 GT ISZERO PUSH2 0x5AC JUMPI PUSH2 0x5AB PUSH2 0x14E7 JUMP JUMPDEST JUMPDEST PUSH1 0x4 PUSH1 0x15 SWAP1 SLOAD SWAP1 PUSH2 0x100 EXP SWAP1 DIV PUSH1 0xFF AND PUSH1 0x2 DUP2 GT ISZERO PUSH2 0x5CE JUMPI PUSH2 0x5CD PUSH2 0x14E7 JUMP JUMPDEST JUMPDEST EQ DUP1 ISZERO PUSH2 0x5DC JUMPI POP PUSH1 0x3 SLOAD TIMESTAMP GT JUMPDEST ISZERO PUSH2 0x5FC JUMPI PUSH1 0x2 SLOAD SELFBALANCE LT ISZERO PUSH2 0x5F2 JUMPI PUSH1 0x2 PUSH2 0x5F5 JUMP JUMPDEST PUSH1 0x1 JUMPDEST SWAP1 POP PUSH2 0x60F JUMP JUMPDEST PUSH1 0x4 PUSH1 0x15 SWAP1 SLOAD SWAP1 PUSH2 0x100 EXP SWAP1 DIV PUSH1 0xFF AND SWAP1 POP JUMPDEST SWAP1 JUMP JUMPDEST PUSH1 0x3 SLOAD DUP2 JUMP JUMPDEST PUSH1 0x4 PUSH0 SWAP1 SLOAD SWAP1 PUSH2 0x100 EXP SWAP1 DIV PUSH20 0xFFFFFFFFFFFFFFFFFFFFFFFFFFFFFFFFFFFFFFFF AND PUSH20 0xFFFFFFFFFFFFFFFFFFFFFFFFFFFFFFFFFFFFFFFF AND CALLER PUSH20 0xFFFFFFFFFFFFFFFFFFFFFFFFFFFFFFFFFFFFFFFF AND EQ PUSH2 0x6A7 JUMPI PUSH1 0x40 MLOAD PUSH32 0x8C379A000000000000000000000000000000000000000000000000000000000 DUP2 MSTORE PUSH1 0x4 ADD PUSH2 0x69E SWAP1 PUSH2 0x1A56 JUMP JUMPDEST PUSH1 0x40 MLOAD DUP1 SWAP2 SUB SWAP1 REVERT JUMPDEST PUSH2 0x6AF PUSH2 0x1280 JUMP JUMPDEST PUSH1 0x1 PUSH1 0x2 DUP2 GT ISZERO PUSH2 0x6C3 JUMPI PUSH2 0x6C2 PUSH2 0x14E7 JUMP JUMPDEST JUMPDEST PUSH1 0x4 PUSH1 0x15 SWAP1 SLOAD SWAP1 PUSH2 0x100 EXP SWAP1 DIV PUSH1 0xFF AND PUSH1 0x2 DUP2 GT ISZERO PUSH2 0x6E5 JUMPI PUSH2 0x6E4 PUSH2 0x14E7 JUMP JUMPDEST JUMPDEST EQ PUSH2 0x725 JUMPI PUSH1 0x40 MLOAD PUSH32 0x8C379A000000000000000000000000000000000000000000000000000000000 DUP2 MSTORE PUSH1 0x4 ADD PUSH2 0x71C SWAP1 PUSH2 0x1ABE JUMP JUMPDEST PUSH1 0x40 MLOAD DUP1 SWAP2 SUB SWAP1 REVERT JUMPDEST PUSH0 SELFBALANCE SWAP1 POP PUSH0 DUP2 GT PUSH2 0x76B JUMPI PUSH1 0x40 MLOAD PUSH32 0x8C379A000000000000000000000000000000000000000000000000000000000 DUP2 MSTORE PUSH1 0x4 ADD PUSH2 0x762 SWAP1 PUSH2 0x1B26 JUMP JUMPDEST PUSH1 0x40 MLOAD DUP1 SWAP2 SUB SWAP1 REVERT JUMPDEST PUSH1 0x4 PUSH0 SWAP1 SLOAD SWAP1 PUSH2 0x100 EXP SWAP1 DIV PUSH20 0xFFFFFFFFFFFFFFFFFFFFFFFFFFFFFFFFFFFFFFFF AND PUSH20 0xFFFFFFFFFFFFFFFFFFFFFFFFFFFFFFFFFFFFFFFF AND PUSH2 0x8FC DUP3 SWAP1 DUP2 ISZERO MUL SWAP1 PUSH1 0x40 MLOAD PUSH0 PUSH1 0x40 MLOAD DUP1 DUP4 SUB DUP2 DUP6 DUP9 DUP9 CALL SWAP4 POP POP POP POP ISZERO DUP1 ISZERO PUSH2 0x7CF JUMPI RETURNDATASIZE PUSH0 DUP1 RETURNDATACOPY RETURNDATASIZE PUSH0 REVERT JUMPDEST POP POP JUMP JUMPDEST PUSH1 0x2 SLOAD DUP2 JUMP JUMPDEST PUSH2 0x7E1 PUSH2 0x1280 JUMP JUMPDEST PUSH0 PUSH1 0x6 PUSH0 CALLER PUSH20 0xFFFFFFFFFFFFFFFFFFFFFFFFFFFFFFFFFFFFFFFF AND PUSH20 0xFFFFFFFFFFFFFFFFFFFFFFFFFFFFFFFFFFFFFFFF AND DUP2 MSTORE PUSH1 0x20 ADD SWAP1 DUP2 MSTORE PUSH1 0x20 ADD PUSH0 KECCAK256 PUSH0 ADD SLOAD SWAP1 POP PUSH0 DUP2 GT PUSH2 0x866 JUMPI PUSH1 0x40 MLOAD PUSH32 0x8C379A000000000000000000000000000000000000000000000000000000000 DUP2 MSTORE PUSH1 0x4 ADD PUSH2 0x85D SWAP1 PUSH2 0x1B8E JUMP JUMPDEST PUSH1 0x40 MLOAD DUP1 SWAP2 SUB SWAP1 REVERT JUMPDEST PUSH0 PUSH1 0x6 PUSH0 CALLER PUSH20 0xFFFFFFFFFFFFFFFFFFFFFFFFFFFFFFFFFFFFFFFF AND PUSH20 0xFFFFFFFFFFFFFFFFFFFFFFFFFFFFFFFFFFFFFFFF AND DUP2 MSTORE PUSH1 0x20 ADD SWAP1 DUP2 MSTORE PUSH1 0x20 ADD PUSH0 KECCAK256 PUSH0 ADD DUP2 SWAP1 SSTORE POP CALLER PUSH20 0xFFFFFFFFFFFFFFFFFFFFFFFFFFFFFFFFFFFFFFFF AND PUSH2 0x8FC DUP3 SWAP1 DUP2 ISZERO MUL SWAP1 PUSH1 0x40 MLOAD PUSH0 PUSH1 0x40 MLOAD DUP1 DUP4 SUB DUP2 DUP6 DUP9 DUP9 CALL SWAP4 POP POP POP POP ISZERO DUP1 ISZERO PUSH2 0x8ED JUMPI RETURNDATASIZE PUSH0 DUP1 RETURNDATACOPY RETURNDATASIZE PUSH0 REVERT JUMPDEST POP POP JUMP JUMPDEST PUSH1 0x4 PUSH1 0x14 SWAP1 SLOAD SWAP1 PUSH2 0x100 EXP SWAP1 DIV PUSH1 0xFF AND DUP2 JUMP JUMPDEST PUSH1 0x4 PUSH0 SWAP1 SLOAD SWAP1 PUSH2 0x100 EXP SWAP1 DIV PUSH20 0xFFFFFFFFFFFFFFFFFFFFFFFFFFFFFFFFFFFFFFFF AND PUSH20 0xFFFFFFFFFFFFFFFFFFFFFFFFFFFFFFFFFFFFFFFF AND CALLER PUSH20 0xFFFFFFFFFFFFFFFFFFFFFFFFFFFFFFFFFFFFFFFF AND EQ PUSH2 0x993 JUMPI PUSH1 0x40 MLOAD PUSH32 0x8C379A000000000000000000000000000000000000000000000000000000000 DUP2 MSTORE PUSH1 0x4 ADD PUSH2 0x98A SWAP1 PUSH2 0x1A56 JUMP JUMPDEST PUSH1 0x40 MLOAD DUP1 SWAP2 SUB SWAP1 REVERT JUMPDEST PUSH0 PUSH1 0x2 DUP2 GT ISZERO PUSH2 0x9A6 JUMPI PUSH2 0x9A5 PUSH2 0x14E7 JUMP JUMPDEST JUMPDEST PUSH1 0x4 PUSH1 0x15 SWAP1 SLOAD SWAP1 PUSH2 0x100 EXP SWAP1 DIV PUSH1 0xFF AND PUSH1 0x2 DUP2 GT ISZERO PUSH2 0x9C8 JUMPI PUSH2 0x9C7 PUSH2 0x14E7 JUMP JUMPDEST JUMPDEST EQ PUSH2 0xA08 JUMPI PUSH1 0x40 MLOAD PUSH32 0x8C379A000000000000000000000000000000000000000000000000000000000 DUP2 MSTORE PUSH1 0x4 ADD PUSH2 0x9FF SWAP1 PUSH2 0x1BF6 JUMP JUMPDEST PUSH1 0x40 MLOAD DUP1 SWAP2 SUB SWAP1 REVERT JUMPDEST PUSH3 0x15180 DUP2 PUSH2 0xA17 SWAP2 SWAP1 PUSH2 0x1C41 JUMP JUMPDEST PUSH1 0x3 PUSH0 DUP3 DUP3 SLOAD PUSH2 0xA27 SWAP2 SWAP1 PUSH2 0x1C82 JUMP JUMPDEST SWAP3 POP POP DUP2 SWAP1 SSTORE POP POP JUMP JUMPDEST PUSH0 SELFBALANCE SWAP1 POP SWAP1 JUMP JUMPDEST PUSH1 0x1 DUP1 SLOAD PUSH2 0xA45 SWAP1 PUSH2 0x19DC JUMP JUMPDEST DUP1 PUSH1 0x1F ADD PUSH1 0x20 DUP1 SWAP2 DIV MUL PUSH1 0x20 ADD PUSH1 0x40 MLOAD SWAP1 DUP2 ADD PUSH1 0x40 MSTORE DUP1 SWAP3 SWAP2 SWAP1 DUP2 DUP2 MSTORE PUSH1 0x20 ADD DUP3 DUP1 SLOAD PUSH2 0xA71 SWAP1 PUSH2 0x19DC JUMP JUMPDEST DUP1 ISZERO PUSH2 0xABC JUMPI DUP1 PUSH1 0x1F LT PUSH2 0xA93 JUMPI PUSH2 0x100 DUP1 DUP4 SLOAD DIV MUL DUP4 MSTORE SWAP2 PUSH1 0x20 ADD SWAP2 PUSH2 0xABC JUMP JUMPDEST DUP3 ADD SWAP2 SWAP1 PUSH0 MSTORE PUSH1 0x20 PUSH0 KECCAK256 SWAP1 JUMPDEST DUP2 SLOAD DUP2 MSTORE SWAP1 PUSH1 0x1 ADD SWAP1 PUSH1 0x20 ADD DUP1 DUP4 GT PUSH2 0xA9F JUMPI DUP3 SWAP1 SUB PUSH1 0x1F AND DUP3 ADD SWAP2 JUMPDEST POP POP POP POP POP DUP2 JUMP JUMPDEST PUSH1 0x4 PUSH0 SWAP1 SLOAD SWAP1 PUSH2 0x100 EXP SWAP1 DIV PUSH20 0xFFFFFFFFFFFFFFFFFFFFFFFFFFFFFFFFFFFFFFFF AND PUSH20 0xFFFFFFFFFFFFFFFFFFFFFFFFFFFFFFFFFFFFFFFF AND CALLER PUSH20 0xFFFFFFFFFFFFFFFFFFFFFFFFFFFFFFFFFFFFFFFF AND EQ PUSH2 0xB53 JUMPI PUSH1 0x40 MLOAD PUSH32 0x8C379A000000000000000000000000000000000000000000000000000000000 DUP2 MSTORE PUSH1 0x4 ADD PUSH2 0xB4A SWAP1 PUSH2 0x1A56 JUMP JUMPDEST PUSH1 0x40 MLOAD DUP1 SWAP2 SUB SWAP1 REVERT JUMPDEST PUSH1 0x5 DUP1 SLOAD SWAP1 POP DUP2 LT PUSH2 0xB9A JUMPI PUSH1 0x40 MLOAD PUSH32 0x8C379A000000000000000000000000000000000000000000000000000000000 DUP2 MSTORE PUSH1 0x4 ADD PUSH2 0xB91 SWAP1 PUSH2 0x1CFF JUMP JUMPDEST PUSH1 0x40 MLOAD DUP1 SWAP2 SUB SWAP1 REVERT JUMPDEST PUSH1 0x5 PUSH1 0x1 PUSH1 0x5 DUP1 SLOAD SWAP1 POP PUSH2 0xBAE SWAP2 SWAP1 PUSH2 0x1D1D JUMP JUMPDEST DUP2 SLOAD DUP2 LT PUSH2 0xBBF JUMPI PUSH2 0xBBE PUSH2 0x1D50 JUMP JUMPDEST JUMPDEST SWAP1 PUSH0 MSTORE PUSH1 0x20 PUSH0 KECCAK256 SWAP1 PUSH1 0x3 MUL ADD PUSH1 0x5 DUP3 DUP2 SLOAD DUP2 LT PUSH2 0xBDF JUMPI PUSH2 0xBDE PUSH2 0x1D50 JUMP JUMPDEST JUMPDEST SWAP1 PUSH0 MSTORE PUSH1 0x20 PUSH0 KECCAK256 SWAP1 PUSH1 0x3 MUL ADD PUSH0 DUP3 ADD DUP2 PUSH0 ADD SWAP1 DUP2 PUSH2 0xBFD SWAP2 SWAP1 PUSH2 0x1F2F JUMP JUMPDEST POP PUSH1 0x1 DUP3 ADD SLOAD DUP2 PUSH1 0x1 ADD SSTORE PUSH1 0x2 DUP3 ADD SLOAD DUP2 PUSH1 0x2 ADD SSTORE SWAP1 POP POP PUSH1 0x5 DUP1 SLOAD DUP1 PUSH2 0xC27 JUMPI PUSH2 0xC26 PUSH2 0x2014 JUMP JUMPDEST JUMPDEST PUSH1 0x1 SWAP1 SUB DUP2 DUP2 SWAP1 PUSH0 MSTORE PUSH1 0x20 PUSH0 KECCAK256 SWAP1 PUSH1 0x3 MUL ADD PUSH0 DUP1 DUP3 ADD PUSH0 PUSH2 0xC48 SWAP2 SWAP1 PUSH2 0x1345 JUMP JUMPDEST PUSH1 0x1 DUP3 ADD PUSH0 SWAP1 SSTORE PUSH1 0x2 DUP3 ADD PUSH0 SWAP1 SSTORE POP POP SWAP1 SSTORE POP JUMP JUMPDEST PUSH0 PUSH1 0x6 PUSH0 DUP5 PUSH20 0xFFFFFFFFFFFFFFFFFFFFFFFFFFFFFFFFFFFFFFFF AND PUSH20 0xFFFFFFFFFFFFFFFFFFFFFFFFFFFFFFFFFFFFFFFF AND DUP2 MSTORE PUSH1 0x20 ADD SWAP1 DUP2 MSTORE PUSH1 0x20 ADD PUSH0 KECCAK256 PUSH1 0x1 ADD PUSH0 DUP4 DUP2 MSTORE PUSH1 0x20 ADD SWAP1 DUP2 MSTORE PUSH1 0x20 ADD PUSH0 KECCAK256 PUSH0 SWAP1 SLOAD SWAP1 PUSH2 0x100 EXP SWAP1 DIV PUSH1 0xFF AND SWAP1 POP SWAP3 SWAP2 POP POP JUMP JUMPDEST PUSH1 0x4 PUSH0 SWAP1 SLOAD SWAP1 PUSH2 0x100 EXP SWAP1 DIV PUSH20 0xFFFFFFFFFFFFFFFFFFFFFFFFFFFFFFFFFFFFFFFF AND DUP2 JUMP JUMPDEST PUSH1 0x4 PUSH0 SWAP1 SLOAD SWAP1 PUSH2 0x100 EXP SWAP1 DIV PUSH20 0xFFFFFFFFFFFFFFFFFFFFFFFFFFFFFFFFFFFFFFFF AND PUSH20 0xFFFFFFFFFFFFFFFFFFFFFFFFFFFFFFFFFFFFFFFF AND CALLER PUSH20 0xFFFFFFFFFFFFFFFFFFFFFFFFFFFFFFFFFFFFFFFF AND EQ PUSH2 0xD76 JUMPI PUSH1 0x40 MLOAD PUSH32 0x8C379A000000000000000000000000000000000000000000000000000000000 DUP2 MSTORE PUSH1 0x4 ADD PUSH2 0xD6D SWAP1 PUSH2 0x1A56 JUMP JUMPDEST PUSH1 0x40 MLOAD DUP1 SWAP2 SUB SWAP1 REVERT JUMPDEST PUSH0 DUP2 GT PUSH2 0xDB8 JUMPI PUSH1 0x40 MLOAD PUSH32 0x8C379A000000000000000000000000000000000000000000000000000000000 DUP2 MSTORE PUSH1 0x4 ADD PUSH2 0xDAF SWAP1 PUSH2 0x208B JUMP JUMPDEST PUSH1 0x40 MLOAD DUP1 SWAP2 SUB SWAP1 REVERT JUMPDEST PUSH1 0x5 PUSH1 0x40 MLOAD DUP1 PUSH1 0x60 ADD PUSH1 0x40 MSTORE DUP1 DUP5 DUP2 MSTORE PUSH1 0x20 ADD DUP4 DUP2 MSTORE PUSH1 0x20 ADD PUSH0 DUP2 MSTORE POP SWAP1 DUP1 PUSH1 0x1 DUP2 SLOAD ADD DUP1 DUP3 SSTORE DUP1 SWAP2 POP POP PUSH1 0x1 SWAP1 SUB SWAP1 PUSH0 MSTORE PUSH1 0x20 PUSH0 KECCAK256 SWAP1 PUSH1 0x3 MUL ADD PUSH0 SWAP1 SWAP2 SWAP1 SWAP2 SWAP1 SWAP2 POP PUSH0 DUP3 ADD MLOAD DUP2 PUSH0 ADD SWAP1 DUP2 PUSH2 0xE0E SWAP2 SWAP1 PUSH2 0x20A9 JUMP JUMPDEST POP PUSH1 0x20 DUP3 ADD MLOAD DUP2 PUSH1 0x1 ADD SSTORE PUSH1 0x40 DUP3 ADD MLOAD DUP2 PUSH1 0x2 ADD SSTORE POP POP POP POP JUMP JUMPDEST PUSH1 0x6 PUSH1 0x20 MSTORE DUP1 PUSH0 MSTORE PUSH1 0x40 PUSH0 KECCAK256 PUSH0 SWAP2 POP SWAP1 POP DUP1 PUSH0 ADD SLOAD SWAP1 POP DUP2 JUMP JUMPDEST PUSH1 0x4 PUSH1 0x15 SWAP1 SLOAD SWAP1 PUSH2 0x100 EXP SWAP1 DIV PUSH1 0xFF AND DUP2 JUMP JUMPDEST PUSH1 0x4 PUSH0 SWAP1 SLOAD SWAP1 PUSH2 0x100 EXP SWAP1 DIV PUSH20 0xFFFFFFFFFFFFFFFFFFFFFFFFFFFFFFFFFFFFFFFF AND PUSH20 0xFFFFFFFFFFFFFFFFFFFFFFFFFFFFFFFFFFFFFFFF AND CALLER PUSH20 0xFFFFFFFFFFFFFFFFFFFFFFFFFFFFFFFFFFFFFFFF AND EQ PUSH2 0xEE5 JUMPI PUSH1 0x40 MLOAD PUSH32 0x8C379A000000000000000000000000000000000000000000000000000000000 DUP2 MSTORE PUSH1 0x4 ADD PUSH2 0xEDC SWAP1 PUSH2 0x1A56 JUMP JUMPDEST PUSH1 0x40 MLOAD DUP1 SWAP2 SUB SWAP1 REVERT JUMPDEST PUSH1 0x4 PUSH1 0x14 SWAP1 SLOAD SWAP1 PUSH2 0x100 EXP SWAP1 DIV PUSH1 0xFF AND ISZERO PUSH1 0x4 PUSH1 0x14 PUSH2 0x100 EXP DUP2 SLOAD DUP2 PUSH1 0xFF MUL NOT AND SWAP1 DUP4 ISZERO ISZERO MUL OR SWAP1 SSTORE POP JUMP JUMPDEST PUSH0 PUSH1 0x2 DUP2 GT ISZERO PUSH2 0xF24 JUMPI PUSH2 0xF23 PUSH2 0x14E7 JUMP JUMPDEST JUMPDEST PUSH1 0x4 PUSH1 0x15 SWAP1 SLOAD SWAP1 PUSH2 0x100 EXP SWAP1 DIV PUSH1 0xFF AND PUSH1 0x2 DUP2 GT ISZERO PUSH2 0xF46 JUMPI PUSH2 0xF45 PUSH2 0x14E7 JUMP JUMPDEST JUMPDEST EQ PUSH2 0xF86 JUMPI PUSH1 0x40 MLOAD PUSH32 0x8C379A000000000000000000000000000000000000000000000000000000000 DUP2 MSTORE PUSH1 0x4 ADD PUSH2 0xF7D SWAP1 PUSH2 0x1BF6 JUMP JUMPDEST PUSH1 0x40 MLOAD DUP1 SWAP2 SUB SWAP1 REVERT JUMPDEST PUSH1 0x4 PUSH1 0x14 SWAP1 SLOAD SWAP1 PUSH2 0x100 EXP SWAP1 DIV PUSH1 0xFF AND ISZERO PUSH2 0xFD6 JUMPI PUSH1 0x40 MLOAD PUSH32 0x8C379A000000000000000000000000000000000000000000000000000000000 DUP2 MSTORE PUSH1 0x4 ADD PUSH2 0xFCD SWAP1 PUSH2 0x21C2 JUMP JUMPDEST PUSH1 0x40 MLOAD DUP1 SWAP2 SUB SWAP1 REVERT JUMPDEST PUSH1 0x5 DUP1 SLOAD SWAP1 POP DUP2 LT PUSH2 0x101D JUMPI PUSH1 0x40 MLOAD PUSH32 0x8C379A000000000000000000000000000000000000000000000000000000000 DUP2 MSTORE PUSH1 0x4 ADD PUSH2 0x1014 SWAP1 PUSH2 0x222A JUMP JUMPDEST PUSH1 0x40 MLOAD DUP1 SWAP2 SUB SWAP1 REVERT JUMPDEST PUSH1 0x5 DUP2 DUP2 SLOAD DUP2 LT PUSH2 0x1031 JUMPI PUSH2 0x1030 PUSH2 0x1D50 JUMP JUMPDEST JUMPDEST SWAP1 PUSH0 MSTORE PUSH1 0x20 PUSH0 KECCAK256 SWAP1 PUSH1 0x3 MUL ADD PUSH1 0x1 ADD SLOAD CALLVALUE EQ PUSH2 0x1082 JUMPI PUSH1 0x40 MLOAD PUSH32 0x8C379A000000000000000000000000000000000000000000000000000000000 DUP2 MSTORE PUSH1 0x4 ADD PUSH2 0x1079 SWAP1 PUSH2 0x2292 JUMP JUMPDEST PUSH1 0x40 MLOAD DUP1 SWAP2 SUB SWAP1 REVERT JUMPDEST PUSH1 0x5 DUP2 DUP2 SLOAD DUP2 LT PUSH2 0x1096 JUMPI PUSH2 0x1095 PUSH2 0x1D50 JUMP JUMPDEST JUMPDEST SWAP1 PUSH0 MSTORE PUSH1 0x20 PUSH0 KECCAK256 SWAP1 PUSH1 0x3 MUL ADD PUSH1 0x2 ADD PUSH0 DUP2 SLOAD DUP1 SWAP3 SWAP2 SWAP1 PUSH2 0x10B5 SWAP1 PUSH2 0x22B0 JUMP JUMPDEST SWAP2 SWAP1 POP SSTORE POP CALLVALUE PUSH1 0x6 PUSH0 CALLER PUSH20 0xFFFFFFFFFFFFFFFFFFFFFFFFFFFFFFFFFFFFFFFF AND PUSH20 0xFFFFFFFFFFFFFFFFFFFFFFFFFFFFFFFFFFFFFFFF AND DUP2 MSTORE PUSH1 0x20 ADD SWAP1 DUP2 MSTORE PUSH1 0x20 ADD PUSH0 KECCAK256 PUSH0 ADD PUSH0 DUP3 DUP3 SLOAD PUSH2 0x1108 SWAP2 SWAP1 PUSH2 0x1C82 JUMP JUMPDEST SWAP3 POP POP DUP2 SWAP1 SSTORE POP PUSH1 0x1 PUSH1 0x6 PUSH0 CALLER PUSH20 0xFFFFFFFFFFFFFFFFFFFFFFFFFFFFFFFFFFFFFFFF AND PUSH20 0xFFFFFFFFFFFFFFFFFFFFFFFFFFFFFFFFFFFFFFFF AND DUP2 MSTORE PUSH1 0x20 ADD SWAP1 DUP2 MSTORE PUSH1 0x20 ADD PUSH0 KECCAK256 PUSH1 0x1 ADD PUSH0 DUP4 DUP2 MSTORE PUSH1 0x20 ADD SWAP1 DUP2 MSTORE PUSH1 0x20 ADD PUSH0 KECCAK256 PUSH0 PUSH2 0x100 EXP DUP2 SLOAD DUP2 PUSH1 0xFF MUL NOT AND SWAP1 DUP4 ISZERO ISZERO MUL OR SWAP1 SSTORE POP PUSH2 0x117E PUSH2 0x1280 JUMP JUMPDEST POP JUMP JUMPDEST PUSH1 0x60 PUSH1 0x5 DUP1 SLOAD DUP1 PUSH1 0x20 MUL PUSH1 0x20 ADD PUSH1 0x40 MLOAD SWAP1 DUP2 ADD PUSH1 0x40 MSTORE DUP1 SWAP3 SWAP2 SWAP1 DUP2 DUP2 MSTORE PUSH1 0x20 ADD PUSH0 SWAP1 JUMPDEST DUP3 DUP3 LT ISZERO PUSH2 0x1277 JUMPI DUP4 DUP3 SWAP1 PUSH0 MSTORE PUSH1 0x20 PUSH0 KECCAK256 SWAP1 PUSH1 0x3 MUL ADD PUSH1 0x40 MLOAD DUP1 PUSH1 0x60 ADD PUSH1 0x40 MSTORE SWAP1 DUP2 PUSH0 DUP3 ADD DUP1 SLOAD PUSH2 0x11D4 SWAP1 PUSH2 0x19DC JUMP JUMPDEST DUP1 PUSH1 0x1F ADD PUSH1 0x20 DUP1 SWAP2 DIV MUL PUSH1 0x20 ADD PUSH1 0x40 MLOAD SWAP1 DUP2 ADD PUSH1 0x40 MSTORE DUP1 SWAP3 SWAP2 SWAP1 DUP2 DUP2 MSTORE PUSH1 0x20 ADD DUP3 DUP1 SLOAD PUSH2 0x1200 SWAP1 PUSH2 0x19DC JUMP JUMPDEST DUP1 ISZERO PUSH2 0x124B JUMPI DUP1 PUSH1 0x1F LT PUSH2 0x1222 JUMPI PUSH2 0x100 DUP1 DUP4 SLOAD DIV MUL DUP4 MSTORE SWAP2 PUSH1 0x20 ADD SWAP2 PUSH2 0x124B JUMP JUMPDEST DUP3 ADD SWAP2 SWAP1 PUSH0 MSTORE PUSH1 0x20 PUSH0 KECCAK256 SWAP1 JUMPDEST DUP2 SLOAD DUP2 MSTORE SWAP1 PUSH1 0x1 ADD SWAP1 PUSH1 0x20 ADD DUP1 DUP4 GT PUSH2 0x122E JUMPI DUP3 SWAP1 SUB PUSH1 0x1F AND DUP3 ADD SWAP2 JUMPDEST POP POP POP POP POP DUP2 MSTORE PUSH1 0x20 ADD PUSH1 0x1 DUP3 ADD SLOAD DUP2 MSTORE PUSH1 0x20 ADD PUSH1 0x2 DUP3 ADD SLOAD DUP2 MSTORE POP POP DUP2 MSTORE PUSH1 0x20 ADD SWAP1 PUSH1 0x1 ADD SWAP1 PUSH2 0x11A4 JUMP JUMPDEST POP POP POP POP SWAP1 POP SWAP1 JUMP JUMPDEST PUSH0 PUSH1 0x2 DUP2 GT ISZERO PUSH2 0x1293 JUMPI PUSH2 0x1292 PUSH2 0x14E7 JUMP JUMPDEST JUMPDEST PUSH1 0x4 PUSH1 0x15 SWAP1 SLOAD SWAP1 PUSH2 0x100 EXP SWAP1 DIV PUSH1 0xFF AND PUSH1 0x2 DUP2 GT ISZERO PUSH2 0x12B5 JUMPI PUSH2 0x12B4 PUSH2 0x14E7 JUMP JUMPDEST JUMPDEST SUB PUSH2 0x1343 JUMPI PUSH1 0x3 SLOAD TIMESTAMP LT PUSH2 0x1305 JUMPI PUSH1 0x2 SLOAD SELFBALANCE LT ISZERO PUSH2 0x12D4 JUMPI PUSH1 0x2 PUSH2 0x12D7 JUMP JUMPDEST PUSH1 0x1 JUMPDEST PUSH1 0x4 PUSH1 0x15 PUSH2 0x100 EXP DUP2 SLOAD DUP2 PUSH1 0xFF MUL NOT AND SWAP1 DUP4 PUSH1 0x2 DUP2 GT ISZERO PUSH2 0x12FB JUMPI PUSH2 0x12FA PUSH2 0x14E7 JUMP JUMPDEST JUMPDEST MUL OR SWAP1 SSTORE POP PUSH2 0x1342 JUMP JUMPDEST PUSH1 0x2 SLOAD SELFBALANCE LT ISZERO PUSH2 0x1315 JUMPI PUSH0 PUSH2 0x1318 JUMP JUMPDEST PUSH1 0x1 JUMPDEST PUSH1 0x4 PUSH1 0x15 PUSH2 0x100 EXP DUP2 SLOAD DUP2 PUSH1 0xFF MUL NOT AND SWAP1 DUP4 PUSH1 0x2 DUP2 GT ISZERO PUSH2 0x133C JUMPI PUSH2 0x133B PUSH2 0x14E7 JUMP JUMPDEST JUMPDEST MUL OR SWAP1 SSTORE POP JUMPDEST JUMPDEST JUMP JUMPDEST POP DUP1 SLOAD PUSH2 0x1351 SWAP1 PUSH2 0x19DC JUMP JUMPDEST PUSH0 DUP3 SSTORE DUP1 PUSH1 0x1F LT PUSH2 0x1362 JUMPI POP PUSH2 0x137F JUMP JUMPDEST PUSH1 0x1F ADD PUSH1 0x20 SWAP1 DIV SWAP1 PUSH0 MSTORE PUSH1 0x20 PUSH0 KECCAK256 SWAP1 DUP2 ADD SWAP1 PUSH2 0x137E SWAP2 SWAP1 PUSH2 0x1382 JUMP JUMPDEST JUMPDEST POP JUMP JUMPDEST JUMPDEST DUP1 DUP3 GT ISZERO PUSH2 0x1399 JUMPI PUSH0 DUP2 PUSH0 SWAP1 SSTORE POP PUSH1 0x1 ADD PUSH2 0x1383 JUMP JUMPDEST POP SWAP1 JUMP JUMPDEST PUSH0 PUSH1 0x40 MLOAD SWAP1 POP SWAP1 JUMP JUMPDEST PUSH0 DUP1 REVERT JUMPDEST PUSH0 DUP1 REVERT JUMPDEST PUSH0 DUP2 SWAP1 POP SWAP2 SWAP1 POP JUMP JUMPDEST PUSH2 0x13C0 DUP2 PUSH2 0x13AE JUMP JUMPDEST DUP2 EQ PUSH2 0x13CA JUMPI PUSH0 DUP1 REVERT JUMPDEST POP JUMP JUMPDEST PUSH0 DUP2 CALLDATALOAD SWAP1 POP PUSH2 0x13DB DUP2 PUSH2 0x13B7 JUMP JUMPDEST SWAP3 SWAP2 POP POP JUMP JUMPDEST PUSH0 PUSH1 0x20 DUP3 DUP5 SUB SLT ISZERO PUSH2 0x13F6 JUMPI PUSH2 0x13F5 PUSH2 0x13A6 JUMP JUMPDEST JUMPDEST PUSH0 PUSH2 0x1403 DUP5 DUP3 DUP6 ADD PUSH2 0x13CD JUMP JUMPDEST SWAP2 POP POP SWAP3 SWAP2 POP POP JUMP JUMPDEST PUSH0 DUP2 MLOAD SWAP1 POP SWAP2 SWAP1 POP JUMP JUMPDEST PUSH0 DUP3 DUP3 MSTORE PUSH1 0x20 DUP3 ADD SWAP1 POP SWAP3 SWAP2 POP POP JUMP JUMPDEST DUP3 DUP2 DUP4 MCOPY PUSH0 DUP4 DUP4 ADD MSTORE POP POP POP JUMP JUMPDEST PUSH0 PUSH1 0x1F NOT PUSH1 0x1F DUP4 ADD AND SWAP1 POP SWAP2 SWAP1 POP JUMP JUMPDEST PUSH0 PUSH2 0x144E DUP3 PUSH2 0x140C JUMP JUMPDEST PUSH2 0x1458 DUP2 DUP6 PUSH2 0x1416 JUMP JUMPDEST SWAP4 POP PUSH2 0x1468 DUP2 DUP6 PUSH1 0x20 DUP7 ADD PUSH2 0x1426 JUMP JUMPDEST PUSH2 0x1471 DUP2 PUSH2 0x1434 JUMP JUMPDEST DUP5 ADD SWAP2 POP POP SWAP3 SWAP2 POP POP JUMP JUMPDEST PUSH2 0x1485 DUP2 PUSH2 0x13AE JUMP JUMPDEST DUP3 MSTORE POP POP JUMP JUMPDEST PUSH0 PUSH1 0x60 DUP3 ADD SWAP1 POP DUP2 DUP2 SUB PUSH0 DUP4 ADD MSTORE PUSH2 0x14A3 DUP2 DUP7 PUSH2 0x1444 JUMP JUMPDEST SWAP1 POP PUSH2 0x14B2 PUSH1 0x20 DUP4 ADD DUP6 PUSH2 0x147C JUMP JUMPDEST PUSH2 0x14BF PUSH1 0x40 DUP4 ADD DUP5 PUSH2 0x147C JUMP JUMPDEST SWAP5 SWAP4 POP POP POP POP JUMP JUMPDEST PUSH0 PUSH1 0x20 DUP3 ADD SWAP1 POP DUP2 DUP2 SUB PUSH0 DUP4 ADD MSTORE PUSH2 0x14DF DUP2 DUP5 PUSH2 0x1444 JUMP JUMPDEST SWAP1 POP SWAP3 SWAP2 POP POP JUMP JUMPDEST PUSH32 0x4E487B7100000000000000000000000000000000000000000000000000000000 PUSH0 MSTORE PUSH1 0x21 PUSH1 0x4 MSTORE PUSH1 0x24 PUSH0 REVERT JUMPDEST PUSH1 0x3 DUP2 LT PUSH2 0x1525 JUMPI PUSH2 0x1524 PUSH2 0x14E7 JUMP JUMPDEST JUMPDEST POP JUMP JUMPDEST PUSH0 DUP2 SWAP1 POP PUSH2 0x1535 DUP3 PUSH2 0x1514 JUMP JUMPDEST SWAP2 SWAP1 POP JUMP JUMPDEST PUSH0 PUSH2 0x1544 DUP3 PUSH2 0x1528 JUMP JUMPDEST SWAP1 POP SWAP2 SWAP1 POP JUMP JUMPDEST PUSH2 0x1554 DUP2 PUSH2 0x153A JUMP JUMPDEST DUP3 MSTORE POP POP JUMP JUMPDEST PUSH0 PUSH1 0x20 DUP3 ADD SWAP1 POP PUSH2 0x156D PUSH0 DUP4 ADD DUP5 PUSH2 0x154B JUMP JUMPDEST SWAP3 SWAP2 POP POP JUMP JUMPDEST PUSH0 PUSH1 0x20 DUP3 ADD SWAP1 POP PUSH2 0x1586 PUSH0 DUP4 ADD DUP5 PUSH2 0x147C JUMP JUMPDEST SWAP3 SWAP2 POP POP JUMP JUMPDEST PUSH0 DUP2 ISZERO ISZERO SWAP1 POP SWAP2 SWAP1 POP JUMP JUMPDEST PUSH2 0x15A0 DUP2 PUSH2 0x158C JUMP JUMPDEST DUP3 MSTORE POP POP JUMP JUMPDEST PUSH0 PUSH1 0x20 DUP3 ADD SWAP1 POP PUSH2 0x15B9 PUSH0 DUP4 ADD DUP5 PUSH2 0x1597 JUMP JUMPDEST SWAP3 SWAP2 POP POP JUMP JUMPDEST PUSH0 PUSH20 0xFFFFFFFFFFFFFFFFFFFFFFFFFFFFFFFFFFFFFFFF DUP3 AND SWAP1 POP SWAP2 SWAP1 POP JUMP JUMPDEST PUSH0 PUSH2 0x15E8 DUP3 PUSH2 0x15BF JUMP JUMPDEST SWAP1 POP SWAP2 SWAP1 POP JUMP JUMPDEST PUSH2 0x15F8 DUP2 PUSH2 0x15DE JUMP JUMPDEST DUP2 EQ PUSH2 0x1602 JUMPI PUSH0 DUP1 REVERT JUMPDEST POP JUMP JUMPDEST PUSH0 DUP2 CALLDATALOAD SWAP1 POP PUSH2 0x1613 DUP2 PUSH2 0x15EF JUMP JUMPDEST SWAP3 SWAP2 POP POP JUMP JUMPDEST PUSH0 DUP1 PUSH1 0x40 DUP4 DUP6 SUB SLT ISZERO PUSH2 0x162F JUMPI PUSH2 0x162E PUSH2 0x13A6 JUMP JUMPDEST JUMPDEST PUSH0 PUSH2 0x163C DUP6 DUP3 DUP7 ADD PUSH2 0x1605 JUMP JUMPDEST SWAP3 POP POP PUSH1 0x20 PUSH2 0x164D DUP6 DUP3 DUP7 ADD PUSH2 0x13CD JUMP JUMPDEST SWAP2 POP POP SWAP3 POP SWAP3 SWAP1 POP JUMP JUMPDEST PUSH2 0x1660 DUP2 PUSH2 0x15DE JUMP JUMPDEST DUP3 MSTORE POP POP JUMP JUMPDEST PUSH0 PUSH1 0x20 DUP3 ADD SWAP1 POP PUSH2 0x1679 PUSH0 DUP4 ADD DUP5 PUSH2 0x1657 JUMP JUMPDEST SWAP3 SWAP2 POP POP JUMP JUMPDEST PUSH0 DUP1 REVERT JUMPDEST PUSH0 DUP1 REVERT JUMPDEST PUSH32 0x4E487B7100000000000000000000000000000000000000000000000000000000 PUSH0 MSTORE PUSH1 0x41 PUSH1 0x4 MSTORE PUSH1 0x24 PUSH0 REVERT JUMPDEST PUSH2 0x16BD DUP3 PUSH2 0x1434 JUMP JUMPDEST DUP2 ADD DUP2 DUP2 LT PUSH8 0xFFFFFFFFFFFFFFFF DUP3 GT OR ISZERO PUSH2 0x16DC JUMPI PUSH2 0x16DB PUSH2 0x1687 JUMP JUMPDEST JUMPDEST DUP1 PUSH1 0x40 MSTORE POP POP POP JUMP JUMPDEST PUSH0 PUSH2 0x16EE PUSH2 0x139D JUMP JUMPDEST SWAP1 POP PUSH2 0x16FA DUP3 DUP3 PUSH2 0x16B4 JUMP JUMPDEST SWAP2 SWAP1 POP JUMP JUMPDEST PUSH0 PUSH8 0xFFFFFFFFFFFFFFFF DUP3 GT ISZERO PUSH2 0x1719 JUMPI PUSH2 0x1718 PUSH2 0x1687 JUMP JUMPDEST JUMPDEST PUSH2 0x1722 DUP3 PUSH2 0x1434 JUMP JUMPDEST SWAP1 POP PUSH1 0x20 DUP2 ADD SWAP1 POP SWAP2 SWAP1 POP JUMP JUMPDEST DUP3 DUP2 DUP4 CALLDATACOPY PUSH0 DUP4 DUP4 ADD MSTORE POP POP POP JUMP JUMPDEST PUSH0 PUSH2 0x174F PUSH2 0x174A DUP5 PUSH2 0x16FF JUMP JUMPDEST PUSH2 0x16E5 JUMP JUMPDEST SWAP1 POP DUP3 DUP2 MSTORE PUSH1 0x20 DUP2 ADD DUP5 DUP5 DUP5 ADD GT ISZERO PUSH2 0x176B JUMPI PUSH2 0x176A PUSH2 0x1683 JUMP JUMPDEST JUMPDEST PUSH2 0x1776 DUP5 DUP3 DUP6 PUSH2 0x172F JUMP JUMPDEST POP SWAP4 SWAP3 POP POP POP JUMP JUMPDEST PUSH0 DUP3 PUSH1 0x1F DUP4 ADD SLT PUSH2 0x1792 JUMPI PUSH2 0x1791 PUSH2 0x167F JUMP JUMPDEST JUMPDEST DUP2 CALLDATALOAD PUSH2 0x17A2 DUP5 DUP3 PUSH1 0x20 DUP7 ADD PUSH2 0x173D JUMP JUMPDEST SWAP2 POP POP SWAP3 SWAP2 POP POP JUMP JUMPDEST PUSH0 DUP1 PUSH1 0x40 DUP4 DUP6 SUB SLT ISZERO PUSH2 0x17C1 JUMPI PUSH2 0x17C0 PUSH2 0x13A6 JUMP JUMPDEST JUMPDEST PUSH0 DUP4 ADD CALLDATALOAD PUSH8 0xFFFFFFFFFFFFFFFF DUP2 GT ISZERO PUSH2 0x17DE JUMPI PUSH2 0x17DD PUSH2 0x13AA JUMP JUMPDEST JUMPDEST PUSH2 0x17EA DUP6 DUP3 DUP7 ADD PUSH2 0x177E JUMP JUMPDEST SWAP3 POP POP PUSH1 0x20 PUSH2 0x17FB DUP6 DUP3 DUP7 ADD PUSH2 0x13CD JUMP JUMPDEST SWAP2 POP POP SWAP3 POP SWAP3 SWAP1 POP JUMP JUMPDEST PUSH0 PUSH1 0x20 DUP3 DUP5 SUB SLT ISZERO PUSH2 0x181A JUMPI PUSH2 0x1819 PUSH2 0x13A6 JUMP JUMPDEST JUMPDEST PUSH0 PUSH2 0x1827 DUP5 DUP3 DUP6 ADD PUSH2 0x1605 JUMP JUMPDEST SWAP2 POP POP SWAP3 SWAP2 POP POP JUMP JUMPDEST PUSH0 DUP2 MLOAD SWAP1 POP SWAP2 SWAP1 POP JUMP JUMPDEST PUSH0 DUP3 DUP3 MSTORE PUSH1 0x20 DUP3 ADD SWAP1 POP SWAP3 SWAP2 POP POP JUMP JUMPDEST PUSH0 DUP2 SWAP1 POP PUSH1 0x20 DUP3 ADD SWAP1 POP SWAP2 SWAP1 POP JUMP JUMPDEST PUSH0 DUP3 DUP3 MSTORE PUSH1 0x20 DUP3 ADD SWAP1 POP SWAP3 SWAP2 POP POP JUMP JUMPDEST PUSH0 PUSH2 0x1873 DUP3 PUSH2 0x140C JUMP JUMPDEST PUSH2 0x187D DUP2 DUP6 PUSH2 0x1859 JUMP JUMPDEST SWAP4 POP PUSH2 0x188D DUP2 DUP6 PUSH1 0x20 DUP7 ADD PUSH2 0x1426 JUMP JUMPDEST PUSH2 0x1896 DUP2 PUSH2 0x1434 JUMP JUMPDEST DUP5 ADD SWAP2 POP POP SWAP3 SWAP2 POP POP JUMP JUMPDEST PUSH2 0x18AA DUP2 PUSH2 0x13AE JUMP JUMPDEST DUP3 MSTORE POP POP JUMP JUMPDEST PUSH0 PUSH1 0x60 DUP4 ADD PUSH0 DUP4 ADD MLOAD DUP5 DUP3 SUB PUSH0 DUP7 ADD MSTORE PUSH2 0x18CA DUP3 DUP3 PUSH2 0x1869 JUMP JUMPDEST SWAP2 POP POP PUSH1 0x20 DUP4 ADD MLOAD PUSH2 0x18DF PUSH1 0x20 DUP7 ADD DUP3 PUSH2 0x18A1 JUMP JUMPDEST POP PUSH1 0x40 DUP4 ADD MLOAD PUSH2 0x18F2 PUSH1 0x40 DUP7 ADD DUP3 PUSH2 0x18A1 JUMP JUMPDEST POP DUP1 SWAP2 POP POP SWAP3 SWAP2 POP POP JUMP JUMPDEST PUSH0 PUSH2 0x1908 DUP4 DUP4 PUSH2 0x18B0 JUMP JUMPDEST SWAP1 POP SWAP3 SWAP2 POP POP JUMP JUMPDEST PUSH0 PUSH1 0x20 DUP3 ADD SWAP1 POP SWAP2 SWAP1 POP JUMP JUMPDEST PUSH0 PUSH2 0x1926 DUP3 PUSH2 0x1830 JUMP JUMPDEST PUSH2 0x1930 DUP2 DUP6 PUSH2 0x183A JUMP JUMPDEST SWAP4 POP DUP4 PUSH1 0x20 DUP3 MUL DUP6 ADD PUSH2 0x1942 DUP6 PUSH2 0x184A JUMP JUMPDEST DUP1 PUSH0 JUMPDEST DUP6 DUP2 LT ISZERO PUSH2 0x197D JUMPI DUP5 DUP5 SUB DUP10 MSTORE DUP2 MLOAD PUSH2 0x195E DUP6 DUP3 PUSH2 0x18FD JUMP JUMPDEST SWAP5 POP PUSH2 0x1969 DUP4 PUSH2 0x1910 JUMP JUMPDEST SWAP3 POP PUSH1 0x20 DUP11 ADD SWAP10 POP POP PUSH1 0x1 DUP2 ADD SWAP1 POP PUSH2 0x1945 JUMP JUMPDEST POP DUP3 SWAP8 POP DUP8 SWAP6 POP POP POP POP POP POP SWAP3 SWAP2 POP POP JUMP JUMPDEST PUSH0 PUSH1 0x20 DUP3 ADD SWAP1 POP DUP2 DUP2 SUB PUSH0 DUP4 ADD MSTORE PUSH2 0x19A7 DUP2 DUP5 PUSH2 0x191C JUMP JUMPDEST SWAP1 POP SWAP3 SWAP2 POP POP JUMP JUMPDEST PUSH32 0x4E487B7100000000000000000000000000000000000000000000000000000000 PUSH0 MSTORE PUSH1 0x22 PUSH1 0x4 MSTORE PUSH1 0x24 PUSH0 REVERT JUMPDEST PUSH0 PUSH1 0x2 DUP3 DIV SWAP1 POP PUSH1 0x1 DUP3 AND DUP1 PUSH2 0x19F3 JUMPI PUSH1 0x7F DUP3 AND SWAP2 POP JUMPDEST PUSH1 0x20 DUP3 LT DUP2 SUB PUSH2 0x1A06 JUMPI PUSH2 0x1A05 PUSH2 0x19AF JUMP JUMPDEST JUMPDEST POP SWAP2 SWAP1 POP JUMP JUMPDEST PUSH32 0x4E6F7420746865206F776E657200000000000000000000000000000000000000 PUSH0 DUP3 ADD MSTORE POP JUMP JUMPDEST PUSH0 PUSH2 0x1A40 PUSH1 0xD DUP4 PUSH2 0x1416 JUMP JUMPDEST SWAP2 POP PUSH2 0x1A4B DUP3 PUSH2 0x1A0C JUMP JUMPDEST PUSH1 0x20 DUP3 ADD SWAP1 POP SWAP2 SWAP1 POP JUMP JUMPDEST PUSH0 PUSH1 0x20 DUP3 ADD SWAP1 POP DUP2 DUP2 SUB PUSH0 DUP4 ADD MSTORE PUSH2 0x1A6D DUP2 PUSH2 0x1A34 JUMP JUMPDEST SWAP1 POP SWAP2 SWAP1 POP JUMP JUMPDEST PUSH32 0x43616D706169676E206973206E6F74207375636365737366756C000000000000 PUSH0 DUP3 ADD MSTORE POP JUMP JUMPDEST PUSH0 PUSH2 0x1AA8 PUSH1 0x1A DUP4 PUSH2 0x1416 JUMP JUMPDEST SWAP2 POP PUSH2 0x1AB3 DUP3 PUSH2 0x1A74 JUMP JUMPDEST PUSH1 0x20 DUP3 ADD SWAP1 POP SWAP2 SWAP1 POP JUMP JUMPDEST PUSH0 PUSH1 0x20 DUP3 ADD SWAP1 POP DUP2 DUP2 SUB PUSH0 DUP4 ADD MSTORE PUSH2 0x1AD5 DUP2 PUSH2 0x1A9C JUMP JUMPDEST SWAP1 POP SWAP2 SWAP1 POP JUMP JUMPDEST PUSH32 0x4E6F2062616C616E636520746F20776974686472617700000000000000000000 PUSH0 DUP3 ADD MSTORE POP JUMP JUMPDEST PUSH0 PUSH2 0x1B10 PUSH1 0x16 DUP4 PUSH2 0x1416 JUMP JUMPDEST SWAP2 POP PUSH2 0x1B1B DUP3 PUSH2 0x1ADC JUMP JUMPDEST PUSH1 0x20 DUP3 ADD SWAP1 POP SWAP2 SWAP1 POP JUMP JUMPDEST PUSH0 PUSH1 0x20 DUP3 ADD SWAP1 POP DUP2 DUP2 SUB PUSH0 DUP4 ADD MSTORE PUSH2 0x1B3D DUP2 PUSH2 0x1B04 JUMP JUMPDEST SWAP1 POP SWAP2 SWAP1 POP JUMP JUMPDEST PUSH32 0x4E6F20436F6E747269627574696F6E20746F20726566756E6400000000000000 PUSH0 DUP3 ADD MSTORE POP JUMP JUMPDEST PUSH0 PUSH2 0x1B78 PUSH1 0x19 DUP4 PUSH2 0x1416 JUMP JUMPDEST SWAP2 POP PUSH2 0x1B83 DUP3 PUSH2 0x1B44 JUMP JUMPDEST PUSH1 0x20 DUP3 ADD SWAP1 POP SWAP2 SWAP1 POP JUMP JUMPDEST PUSH0 PUSH1 0x20 DUP3 ADD SWAP1 POP DUP2 DUP2 SUB PUSH0 DUP4 ADD MSTORE PUSH2 0x1BA5 DUP2 PUSH2 0x1B6C JUMP JUMPDEST SWAP1 POP SWAP2 SWAP1 POP JUMP JUMPDEST PUSH32 0x43616D706169676E206973206E6F742061637469766500000000000000000000 PUSH0 DUP3 ADD MSTORE POP JUMP JUMPDEST PUSH0 PUSH2 0x1BE0 PUSH1 0x16 DUP4 PUSH2 0x1416 JUMP JUMPDEST SWAP2 POP PUSH2 0x1BEB DUP3 PUSH2 0x1BAC JUMP JUMPDEST PUSH1 0x20 DUP3 ADD SWAP1 POP SWAP2 SWAP1 POP JUMP JUMPDEST PUSH0 PUSH1 0x20 DUP3 ADD SWAP1 POP DUP2 DUP2 SUB PUSH0 DUP4 ADD MSTORE PUSH2 0x1C0D DUP2 PUSH2 0x1BD4 JUMP JUMPDEST SWAP1 POP SWAP2 SWAP1 POP JUMP JUMPDEST PUSH32 0x4E487B7100000000000000000000000000000000000000000000000000000000 PUSH0 MSTORE PUSH1 0x11 PUSH1 0x4 MSTORE PUSH1 0x24 PUSH0 REVERT JUMPDEST PUSH0 PUSH2 0x1C4B DUP3 PUSH2 0x13AE JUMP JUMPDEST SWAP2 POP PUSH2 0x1C56 DUP4 PUSH2 0x13AE JUMP JUMPDEST SWAP3 POP DUP3 DUP3 MUL PUSH2 0x1C64 DUP2 PUSH2 0x13AE JUMP JUMPDEST SWAP2 POP DUP3 DUP3 DIV DUP5 EQ DUP4 ISZERO OR PUSH2 0x1C7B JUMPI PUSH2 0x1C7A PUSH2 0x1C14 JUMP JUMPDEST JUMPDEST POP SWAP3 SWAP2 POP POP JUMP JUMPDEST PUSH0 PUSH2 0x1C8C DUP3 PUSH2 0x13AE JUMP JUMPDEST SWAP2 POP PUSH2 0x1C97 DUP4 PUSH2 0x13AE JUMP JUMPDEST SWAP3 POP DUP3 DUP3 ADD SWAP1 POP DUP1 DUP3 GT ISZERO PUSH2 0x1CAF JUMPI PUSH2 0x1CAE PUSH2 0x1C14 JUMP JUMPDEST JUMPDEST SWAP3 SWAP2 POP POP JUMP JUMPDEST PUSH32 0x546965727320646F6573206E6F74206578697400000000000000000000000000 PUSH0 DUP3 ADD MSTORE POP JUMP JUMPDEST PUSH0 PUSH2 0x1CE9 PUSH1 0x13 DUP4 PUSH2 0x1416 JUMP JUMPDEST SWAP2 POP PUSH2 0x1CF4 DUP3 PUSH2 0x1CB5 JUMP JUMPDEST PUSH1 0x20 DUP3 ADD SWAP1 POP SWAP2 SWAP1 POP JUMP JUMPDEST PUSH0 PUSH1 0x20 DUP3 ADD SWAP1 POP DUP2 DUP2 SUB PUSH0 DUP4 ADD MSTORE PUSH2 0x1D16 DUP2 PUSH2 0x1CDD JUMP JUMPDEST SWAP1 POP SWAP2 SWAP1 POP JUMP JUMPDEST PUSH0 PUSH2 0x1D27 DUP3 PUSH2 0x13AE JUMP JUMPDEST SWAP2 POP PUSH2 0x1D32 DUP4 PUSH2 0x13AE JUMP JUMPDEST SWAP3 POP DUP3 DUP3 SUB SWAP1 POP DUP2 DUP2 GT ISZERO PUSH2 0x1D4A JUMPI PUSH2 0x1D49 PUSH2 0x1C14 JUMP JUMPDEST JUMPDEST SWAP3 SWAP2 POP POP JUMP JUMPDEST PUSH32 0x4E487B7100000000000000000000000000000000000000000000000000000000 PUSH0 MSTORE PUSH1 0x32 PUSH1 0x4 MSTORE PUSH1 0x24 PUSH0 REVERT JUMPDEST PUSH0 DUP2 SLOAD SWAP1 POP PUSH2 0x1D8B DUP2 PUSH2 0x19DC JUMP JUMPDEST SWAP1 POP SWAP2 SWAP1 POP JUMP JUMPDEST PUSH0 DUP2 SWAP1 POP DUP2 PUSH0 MSTORE PUSH1 0x20 PUSH0 KECCAK256 SWAP1 POP SWAP2 SWAP1 POP JUMP JUMPDEST PUSH0 PUSH1 0x20 PUSH1 0x1F DUP4 ADD DIV SWAP1 POP SWAP2 SWAP1 POP JUMP JUMPDEST PUSH0 DUP3 DUP3 SHL SWAP1 POP SWAP3 SWAP2 POP POP JUMP JUMPDEST PUSH0 PUSH1 0x8 DUP4 MUL PUSH2 0x1DEE PUSH32 0xFFFFFFFFFFFFFFFFFFFFFFFFFFFFFFFFFFFFFFFFFFFFFFFFFFFFFFFFFFFFFFFF DUP3 PUSH2 0x1DB3 JUMP JUMPDEST PUSH2 0x1DF8 DUP7 DUP4 PUSH2 0x1DB3 JUMP JUMPDEST SWAP6 POP DUP1 NOT DUP5 AND SWAP4 POP DUP1 DUP7 AND DUP5 OR SWAP3 POP POP POP SWAP4 SWAP3 POP POP POP JUMP JUMPDEST PUSH0 DUP2 SWAP1 POP SWAP2 SWAP1 POP JUMP JUMPDEST PUSH0 PUSH2 0x1E33 PUSH2 0x1E2E PUSH2 0x1E29 DUP5 PUSH2 0x13AE JUMP JUMPDEST PUSH2 0x1E10 JUMP JUMPDEST PUSH2 0x13AE JUMP JUMPDEST SWAP1 POP SWAP2 SWAP1 POP JUMP JUMPDEST PUSH0 DUP2 SWAP1 POP SWAP2 SWAP1 POP JUMP JUMPDEST PUSH2 0x1E4C DUP4 PUSH2 0x1E19 JUMP JUMPDEST PUSH2 0x1E60 PUSH2 0x1E58 DUP3 PUSH2 0x1E3A JUMP JUMPDEST DUP5 DUP5 SLOAD PUSH2 0x1DBF JUMP JUMPDEST DUP3 SSTORE POP POP POP POP JUMP JUMPDEST PUSH0 SWAP1 JUMP JUMPDEST PUSH2 0x1E74 PUSH2 0x1E68 JUMP JUMPDEST PUSH2 0x1E7F DUP2 DUP5 DUP5 PUSH2 0x1E43 JUMP JUMPDEST POP POP POP JUMP JUMPDEST JUMPDEST DUP2 DUP2 LT ISZERO PUSH2 0x1EA2 JUMPI PUSH2 0x1E97 PUSH0 DUP3 PUSH2 0x1E6C JUMP JUMPDEST PUSH1 0x1 DUP2 ADD SWAP1 POP PUSH2 0x1E85 JUMP JUMPDEST POP POP JUMP JUMPDEST PUSH1 0x1F DUP3 GT ISZERO PUSH2 0x1EE7 JUMPI PUSH2 0x1EB8 DUP2 PUSH2 0x1D92 JUMP JUMPDEST PUSH2 0x1EC1 DUP5 PUSH2 0x1DA4 JUMP JUMPDEST DUP2 ADD PUSH1 0x20 DUP6 LT ISZERO PUSH2 0x1ED0 JUMPI DUP2 SWAP1 POP JUMPDEST PUSH2 0x1EE4 PUSH2 0x1EDC DUP6 PUSH2 0x1DA4 JUMP JUMPDEST DUP4 ADD DUP3 PUSH2 0x1E84 JUMP JUMPDEST POP POP JUMPDEST POP POP POP JUMP JUMPDEST PUSH0 DUP3 DUP3 SHR SWAP1 POP SWAP3 SWAP2 POP POP JUMP JUMPDEST PUSH0 PUSH2 0x1F07 PUSH0 NOT DUP5 PUSH1 0x8 MUL PUSH2 0x1EEC JUMP JUMPDEST NOT DUP1 DUP4 AND SWAP2 POP POP SWAP3 SWAP2 POP POP JUMP JUMPDEST PUSH0 PUSH2 0x1F1F DUP4 DUP4 PUSH2 0x1EF8 JUMP JUMPDEST SWAP2 POP DUP3 PUSH1 0x2 MUL DUP3 OR SWAP1 POP SWAP3 SWAP2 POP POP JUMP JUMPDEST DUP2 DUP2 SUB PUSH2 0x1F3D JUMPI POP POP PUSH2 0x2012 JUMP JUMPDEST PUSH2 0x1F46 DUP3 PUSH2 0x1D7D JUMP JUMPDEST PUSH8 0xFFFFFFFFFFFFFFFF DUP2 GT ISZERO PUSH2 0x1F5F JUMPI PUSH2 0x1F5E PUSH2 0x1687 JUMP JUMPDEST JUMPDEST PUSH2 0x1F69 DUP3 SLOAD PUSH2 0x19DC JUMP JUMPDEST PUSH2 0x1F74 DUP3 DUP3 DUP6 PUSH2 0x1EA6 JUMP JUMPDEST PUSH0 PUSH1 0x1F DUP4 GT PUSH1 0x1 DUP2 EQ PUSH2 0x1FA1 JUMPI PUSH0 DUP5 ISZERO PUSH2 0x1F8F JUMPI DUP3 DUP8 ADD SLOAD SWAP1 POP JUMPDEST PUSH2 0x1F99 DUP6 DUP3 PUSH2 0x1F14 JUMP JUMPDEST DUP7 SSTORE POP PUSH2 0x200B JUMP JUMPDEST PUSH1 0x1F NOT DUP5 AND PUSH2 0x1FAF DUP8 PUSH2 0x1D92 JUMP JUMPDEST SWAP7 POP PUSH2 0x1FBA DUP7 PUSH2 0x1D92 JUMP JUMPDEST PUSH0 JUMPDEST DUP3 DUP2 LT ISZERO PUSH2 0x1FE1 JUMPI DUP5 DUP10 ADD SLOAD DUP3 SSTORE PUSH1 0x1 DUP3 ADD SWAP2 POP PUSH1 0x1 DUP6 ADD SWAP5 POP PUSH1 0x20 DUP2 ADD SWAP1 POP PUSH2 0x1FBC JUMP JUMPDEST DUP7 DUP4 LT ISZERO PUSH2 0x1FFE JUMPI DUP5 DUP10 ADD SLOAD PUSH2 0x1FFA PUSH1 0x1F DUP10 AND DUP3 PUSH2 0x1EF8 JUMP JUMPDEST DUP4 SSTORE POP JUMPDEST PUSH1 0x1 PUSH1 0x2 DUP9 MUL ADD DUP9 SSTORE POP POP POP JUMPDEST POP POP POP POP POP POP JUMPDEST JUMP JUMPDEST PUSH32 0x4E487B7100000000000000000000000000000000000000000000000000000000 PUSH0 MSTORE PUSH1 0x31 PUSH1 0x4 MSTORE PUSH1 0x24 PUSH0 REVERT JUMPDEST PUSH32 0x416D6F756E74206D7573742062652067726561746572207468616E20302E0000 PUSH0 DUP3 ADD MSTORE POP JUMP JUMPDEST PUSH0 PUSH2 0x2075 PUSH1 0x1E DUP4 PUSH2 0x1416 JUMP JUMPDEST SWAP2 POP PUSH2 0x2080 DUP3 PUSH2 0x2041 JUMP JUMPDEST PUSH1 0x20 DUP3 ADD SWAP1 POP SWAP2 SWAP1 POP JUMP JUMPDEST PUSH0 PUSH1 0x20 DUP3 ADD SWAP1 POP DUP2 DUP2 SUB PUSH0 DUP4 ADD MSTORE PUSH2 0x20A2 DUP2 PUSH2 0x2069 JUMP JUMPDEST SWAP1 POP SWAP2 SWAP1 POP JUMP JUMPDEST PUSH2 0x20B2 DUP3 PUSH2 0x140C JUMP JUMPDEST PUSH8 0xFFFFFFFFFFFFFFFF DUP2 GT ISZERO PUSH2 0x20CB JUMPI PUSH2 0x20CA PUSH2 0x1687 JUMP JUMPDEST JUMPDEST PUSH2 0x20D5 DUP3 SLOAD PUSH2 0x19DC JUMP JUMPDEST PUSH2 0x20E0 DUP3 DUP3 DUP6 PUSH2 0x1EA6 JUMP JUMPDEST PUSH0 PUSH1 0x20 SWAP1 POP PUSH1 0x1F DUP4 GT PUSH1 0x1 DUP2 EQ PUSH2 0x2111 JUMPI PUSH0 DUP5 ISZERO PUSH2 0x20FF JUMPI DUP3 DUP8 ADD MLOAD SWAP1 POP JUMPDEST PUSH2 0x2109 DUP6 DUP3 PUSH2 0x1F14 JUMP JUMPDEST DUP7 SSTORE POP PUSH2 0x2170 JUMP JUMPDEST PUSH1 0x1F NOT DUP5 AND PUSH2 0x211F DUP7 PUSH2 0x1D92 JUMP JUMPDEST PUSH0 JUMPDEST DUP3 DUP2 LT ISZERO PUSH2 0x2146 JUMPI DUP5 DUP10 ADD MLOAD DUP3 SSTORE PUSH1 0x1 DUP3 ADD SWAP2 POP PUSH1 0x20 DUP6 ADD SWAP5 POP PUSH1 0x20 DUP2 ADD SWAP1 POP PUSH2 0x2121 JUMP JUMPDEST DUP7 DUP4 LT ISZERO PUSH2 0x2163 JUMPI DUP5 DUP10 ADD MLOAD PUSH2 0x215F PUSH1 0x1F DUP10 AND DUP3 PUSH2 0x1EF8 JUMP JUMPDEST DUP4 SSTORE POP JUMPDEST PUSH1 0x1 PUSH1 0x2 DUP9 MUL ADD DUP9 SSTORE POP POP POP JUMPDEST POP POP POP POP POP POP JUMP JUMPDEST PUSH32 0x436F6E7472616374206973207061757365640000000000000000000000000000 PUSH0 DUP3 ADD MSTORE POP JUMP JUMPDEST PUSH0 PUSH2 0x21AC PUSH1 0x12 DUP4 PUSH2 0x1416 JUMP JUMPDEST SWAP2 POP PUSH2 0x21B7 DUP3 PUSH2 0x2178 JUMP JUMPDEST PUSH1 0x20 DUP3 ADD SWAP1 POP SWAP2 SWAP1 POP JUMP JUMPDEST PUSH0 PUSH1 0x20 DUP3 ADD SWAP1 POP DUP2 DUP2 SUB PUSH0 DUP4 ADD MSTORE PUSH2 0x21D9 DUP2 PUSH2 0x21A0 JUMP JUMPDEST SWAP1 POP SWAP2 SWAP1 POP JUMP JUMPDEST PUSH32 0x496E76616C696420746965722E00000000000000000000000000000000000000 PUSH0 DUP3 ADD MSTORE POP JUMP JUMPDEST PUSH0 PUSH2 0x2214 PUSH1 0xD DUP4 PUSH2 0x1416 JUMP JUMPDEST SWAP2 POP PUSH2 0x221F DUP3 PUSH2 0x21E0 JUMP JUMPDEST PUSH1 0x20 DUP3 ADD SWAP1 POP SWAP2 SWAP1 POP JUMP JUMPDEST PUSH0 PUSH1 0x20 DUP3 ADD SWAP1 POP DUP2 DUP2 SUB PUSH0 DUP4 ADD MSTORE PUSH2 0x2241 DUP2 PUSH2 0x2208 JUMP JUMPDEST SWAP1 POP SWAP2 SWAP1 POP JUMP JUMPDEST PUSH32 0x496E76616C696420616D6F756E742E0000000000000000000000000000000000 PUSH0 DUP3 ADD MSTORE POP JUMP JUMPDEST PUSH0 PUSH2 0x227C PUSH1 0xF DUP4 PUSH2 0x1416 JUMP JUMPDEST SWAP2 POP PUSH2 0x2287 DUP3 PUSH2 0x2248 JUMP JUMPDEST PUSH1 0x20 DUP3 ADD SWAP1 POP SWAP2 SWAP1 POP JUMP JUMPDEST PUSH0 PUSH1 0x20 DUP3 ADD SWAP1 POP DUP2 DUP2 SUB PUSH0 DUP4 ADD MSTORE PUSH2 0x22A9 DUP2 PUSH2 0x2270 JUMP JUMPDEST SWAP1 POP SWAP2 SWAP1 POP JUMP JUMPDEST PUSH0 PUSH2 0x22BA DUP3 PUSH2 0x13AE JUMP JUMPDEST SWAP2 POP PUSH32 0xFFFFFFFFFFFFFFFFFFFFFFFFFFFFFFFFFFFFFFFFFFFFFFFFFFFFFFFFFFFFFFFF DUP3 SUB PUSH2 0x22EC JUMPI PUSH2 0x22EB PUSH2 0x1C14 JUMP JUMPDEST JUMPDEST PUSH1 0x1 DUP3 ADD SWAP1 POP SWAP2 SWAP1 POP JUMP INVALID LOG2 PUSH5 0x6970667358 0x22 SLT KECCAK256 0x2E 0xBD GT PUSH32 0x18688C36F56C510323227004C391B601C4169F30CBC4041E1ADEFE6F64736F6C PUSH4 0x4300081A STOP CALLER "
				},
				"gasEstimates": {
					"creation": {
						"codeDepositCost": "1801000",
						"executionCost": "infinite",
						"totalCost": "infinite"
					},
					"external": {
						"addTier(string,uint256)": "infinite",
						"backers(address)": "2837",
						"deadline()": "2515",
						"description()": "infinite",
						"extendDeadLine(uint256)": "infinite",
						"fund(uint256)": "infinite",
						"getCampaignStatus()": "7075",
						"getContractBalance()": "445",
						"getTiers()": "infinite",
						"goal()": "2448",
						"hasFundedTier(address,uint256)": "3190",
						"name()": "infinite",
						"owner()": "2597",
						"paused()": "2584",
						"refund()": "infinite",
						"removeTier(uint256)": "infinite",
						"state()": "2649",
						"tiers(uint256)": "infinite",
						"togglePause()": "28884",
						"withdraw()": "infinite"
					},
					"internal": {
						"checkAndUpdateCampaignState()": "30878"
					}
				},
				"methodIdentifiers": {
					"addTier(string,uint256)": "8ece7b91",
					"backers(address)": "b85dfb80",
					"deadline()": "29dcb0cf",
					"description()": "7284e416",
					"extendDeadLine(uint256)": "631b9d9f",
					"fund(uint256)": "ca1d209d",
					"getCampaignStatus()": "10550515",
					"getContractBalance()": "6f9fb98a",
					"getTiers()": "de170570",
					"goal()": "40193883",
					"hasFundedTier(address,uint256)": "7adba527",
					"name()": "06fdde03",
					"owner()": "8da5cb5b",
					"paused()": "5c975abb",
					"refund()": "590e1ae3",
					"removeTier(uint256)": "7497211b",
					"state()": "c19d93fb",
					"tiers(uint256)": "039af9eb",
					"togglePause()": "c4ae3168",
					"withdraw()": "3ccfd60b"
				}
			},
			"storageLayout": {
				"storage": [
					{
						"astId": 3,
						"contract": "contracts/CrowdFunding.sol:Crowdfunding",
						"label": "name",
						"offset": 0,
						"slot": "0",
						"type": "t_string_storage"
					},
					{
						"astId": 5,
						"contract": "contracts/CrowdFunding.sol:Crowdfunding",
						"label": "description",
						"offset": 0,
						"slot": "1",
						"type": "t_string_storage"
					},
					{
						"astId": 7,
						"contract": "contracts/CrowdFunding.sol:Crowdfunding",
						"label": "goal",
						"offset": 0,
						"slot": "2",
						"type": "t_uint256"
					},
					{
						"astId": 9,
						"contract": "contracts/CrowdFunding.sol:Crowdfunding",
						"label": "deadline",
						"offset": 0,
						"slot": "3",
						"type": "t_uint256"
					},
					{
						"astId": 11,
						"contract": "contracts/CrowdFunding.sol:Crowdfunding",
						"label": "owner",
						"offset": 0,
						"slot": "4",
						"type": "t_address"
					},
					{
						"astId": 13,
						"contract": "contracts/CrowdFunding.sol:Crowdfunding",
						"label": "paused",
						"offset": 20,
						"slot": "4",
						"type": "t_bool"
					},
					{
						"astId": 20,
						"contract": "contracts/CrowdFunding.sol:Crowdfunding",
						"label": "state",
						"offset": 21,
						"slot": "4",
						"type": "t_enum(CampaignState)17"
					},
					{
						"astId": 38,
						"contract": "contracts/CrowdFunding.sol:Crowdfunding",
						"label": "tiers",
						"offset": 0,
						"slot": "5",
						"type": "t_array(t_struct(Tier)27_storage)dyn_storage"
					},
					{
						"astId": 43,
						"contract": "contracts/CrowdFunding.sol:Crowdfunding",
						"label": "backers",
						"offset": 0,
						"slot": "6",
						"type": "t_mapping(t_address,t_struct(Backer)34_storage)"
					}
				],
				"types": {
					"t_address": {
						"encoding": "inplace",
						"label": "address",
						"numberOfBytes": "20"
					},
					"t_array(t_struct(Tier)27_storage)dyn_storage": {
						"base": "t_struct(Tier)27_storage",
						"encoding": "dynamic_array",
						"label": "struct Crowdfunding.Tier[]",
						"numberOfBytes": "32"
					},
					"t_bool": {
						"encoding": "inplace",
						"label": "bool",
						"numberOfBytes": "1"
					},
					"t_enum(CampaignState)17": {
						"encoding": "inplace",
						"label": "enum Crowdfunding.CampaignState",
						"numberOfBytes": "1"
					},
					"t_mapping(t_address,t_struct(Backer)34_storage)": {
						"encoding": "mapping",
						"key": "t_address",
						"label": "mapping(address => struct Crowdfunding.Backer)",
						"numberOfBytes": "32",
						"value": "t_struct(Backer)34_storage"
					},
					"t_mapping(t_uint256,t_bool)": {
						"encoding": "mapping",
						"key": "t_uint256",
						"label": "mapping(uint256 => bool)",
						"numberOfBytes": "32",
						"value": "t_bool"
					},
					"t_string_storage": {
						"encoding": "bytes",
						"label": "string",
						"numberOfBytes": "32"
					},
					"t_struct(Backer)34_storage": {
						"encoding": "inplace",
						"label": "struct Crowdfunding.Backer",
						"members": [
							{
								"astId": 29,
								"contract": "contracts/CrowdFunding.sol:Crowdfunding",
								"label": "totalContrubution",
								"offset": 0,
								"slot": "0",
								"type": "t_uint256"
							},
							{
								"astId": 33,
								"contract": "contracts/CrowdFunding.sol:Crowdfunding",
								"label": "fundedTiers",
								"offset": 0,
								"slot": "1",
								"type": "t_mapping(t_uint256,t_bool)"
							}
						],
						"numberOfBytes": "64"
					},
					"t_struct(Tier)27_storage": {
						"encoding": "inplace",
						"label": "struct Crowdfunding.Tier",
						"members": [
							{
								"astId": 22,
								"contract": "contracts/CrowdFunding.sol:Crowdfunding",
								"label": "name",
								"offset": 0,
								"slot": "0",
								"type": "t_string_storage"
							},
							{
								"astId": 24,
								"contract": "contracts/CrowdFunding.sol:Crowdfunding",
								"label": "amount",
								"offset": 0,
								"slot": "1",
								"type": "t_uint256"
							},
							{
								"astId": 26,
								"contract": "contracts/CrowdFunding.sol:Crowdfunding",
								"label": "backers",
								"offset": 0,
								"slot": "2",
								"type": "t_uint256"
							}
						],
						"numberOfBytes": "96"
					},
					"t_uint256": {
						"encoding": "inplace",
						"label": "uint256",
						"numberOfBytes": "32"
					}
				}
			},
			"userdoc": {
				"kind": "user",
				"methods": {},
				"version": 1
			}
		}
	}
}